:100000000C947D010C94A5010C94A5010C94A50100
:100010000C94A5010C94A5010C94A5010C94A501C8
:100020000C94A5010C94A5010C94EF070C94A10667
:100030000C94A5010C94A5010C94A5010C94A501A8
:100040000C94A5010C94A5010C94A5010C94A50198
:100050000C94A5010C94A5010C94A5010C94F0033B
:100060000C94A5010C94A5010C94A5010C94A50178
:100070000C94A5010C94A5010C94A5010C94A50168
:100080000C94A5010C94A5010C94A5010C94A50158
:100090000C94A5010C94A5010C94A5010C94A50148
:1000A0000C94A5010C94A5010C94A50169036C03A3
:1000B0005F0363038D038D038D0370037403780363
:1000C0007E0382038D0388030000000200080E00F7
:1000D00000030401000B000000000000000000000D
:1000E00000000000000004080201104080401020C1
:1000F00040804080080204018040201002011080EE
:100100001020404004040404040304050202020217
:1001100004030202020206060606060604040202A0
:100120000204000000002300260029002C002F00FC
:1001300000000000250028002B002E0031000000E8
:100140000000240027002A002D00300000C180811B
:10015000C11201000202000040412336800001016B
:10016000020001120100020000004041233680001D
:10017000010102000118034100720064007500696A
:10018000006E006F0020004C004C00430022034131
:100190000072006400750069006E006F0020004C62
:1001A0000065006F006E006100720064006F000463
:1001B00003090400000000000000002A2B280000B2
:1001C000000000000000000000000000000000002F
:1001D0000000002C9EB4A0A1A2A434A6A7A5AE3610
:1001E0002D3738271E1F20212223242526B333B67E
:1001F0002EB7B89F8485868788898A8B8C8D8E8F51
:10020000909192939495969798999A9B9C9D2F3153
:1002100030A3AD350405060708090A0B0C0D0E0FB7
:10022000101112131415161718191A1B1C1DAFB133
:10023000B0B500090402000103000000092101011A
:100240000001226500070584034000010501090241
:10025000A1010901A1008501050919012903150062
:10026000250195037501810295017505810305013D
:100270000930093109381581257F750895038106F4
:10028000C0C005010906A1018502050719E029E79B
:1002900015002501750195088102950175088103F6
:1002A0009506750815002565050719002965810063
:1002B000C0080B0002020201000904000001020252
:1002C0000000052400100105240101010424020698
:1002D0000524060001070581031000400904010000
:1002E000020A000000070502024000000705830221
:1002F000400000006A028409880A11241FBECFEF63
:10030000DAE0DEBFCDBF11E0A0E0B1E0EEE9F5E15B
:1003100002C005900D92A834B107D9F711E0A8E406
:10032000B1E001C01D92A83DB107E1F712E0CAEFAC
:10033000D2E004C02297FE010E94C90AC43FD1073F
:10034000C9F70E94E5040C94CD0A0C940000FC014E
:10035000A2EEB0E08C9180831C92A9EEB0E08C916B
:1003600081831C92A0EFB0E08C9182831C9208954F
:10037000FC01A9EEB0E01C9282818093F0008181A3
:100380008C9380818093E20008950895FC01208180
:1003900021FB0EF0559820FB0EF05D980EF45D9A4F
:1003A00021FB0EF4559A0895FF920F931F93CF935C
:1003B000DF9300D000D0CDB7DEB7CE0101960E940A
:1003C000A70120E05D992160559922602C83559802
:1003D0005D9A80E18A95F1F7F9B0CE0104960E940A
:1003E000C601CE0101960E94B801F5FA002700F976
:1003F00010E081E00827802F81700F900F900F9000
:100400000F90DF91CF911F910F91FF900895FC0104
:10041000208121FB0EF0209820FB0EF028980EF48E
:10042000289A21FB0EF4209A08951F93CF93DF930F
:1004300000D000D0CDB7DEB7CE0101960E94A70153
:1004400020E028992160209922602C832098289A06
:1004500080E18A95F1F713B1CE0104960E9407025C
:10046000CE0101960E94B801812F809581700F9076
:100470000F900F900F90DF91CF911F91089580E51D
:1004800091E00E94D401882319F068EC70E019C053
:10049000E0915801F09159010190F081E02D88E53B
:1004A00091E00995882329F068EC70E088E39FEFDC
:1004B0000FC088E491E00E941502882329F068E3C8
:1004C0007FEF88EC90E004C060E070E080E090E0B6
:1004D0000C940D030F931F93CF93DF9321E041E022
:1004E0006EE088E591E00E941A0384E191E0909328
:1004F000590180935801C0E5D1E00EE011E0198365
:10050000088382E591E00E94170385E591E00E944F
:1005100017038AE191E099838883C8E4D1E01983C5
:1005200008838AE491E00E9417038DE491E00E9421
:10053000170380E291E099838883DF91CF911F9127
:100540000F9108952E98269A2D98259A2A98229AE6
:100550002998219A80EA8093800081E1809381002C
:1005600080E991E090938700809386001092890043
:100570001092880010928B0010928A00089580914A
:100580006401811105C081E0809364010C94A20292
:100590000895CF93DF93EC010E94BF02D7FF05C0FF
:1005A000D195C195D10981E001C080E0C13991E0C8
:1005B000D90714F0C0E9D1E0D0938B00C0938A0032
:1005C00090916601891711F02A9A01C02A98229AFF
:1005D000DF91CF910895CF93DF93EC010E94BF028A
:1005E000D7FF05C0D195C195D10981E001C080E058
:1005F000C13991E0D90714F0C0E9D1E0D093890066
:10060000C093880090916501891711F0299A01C063
:100610002998219ADF91CF910895CF93DF93EB0131
:100620000E94C902CE01DF91CF910C94EB02FC0134
:1006300010820895FC011282158286E291E0918376
:1006400080831086618781E0411101C080E082874C
:1006500081E0211101C080E083870895FC0182853B
:10066000882311F062E001C060E081850E948E0362
:1006700085E090E00C948304CF93DF93EC018885B0
:10068000811105C081E08887CE010E942E038985F3
:100690000E94C7032B8530E041E08217930709F4DD
:1006A00040E0842FDF91CF91089590E0FC013197D5
:1006B000EE30F10590F5EA5AFF4F0C94C70A80918D
:1006C00080008F7703C0809180008F7D80938000B1
:1006D000089584B58F7702C084B58F7D84BD089559
:1006E000809190008F7707C0809190008F7D03C02C
:1006F00080919000877F8093900008958091C00042
:100700008F7703C08091C0008F7D8093C0000895D3
:100710008091C200877F8093C2000895CF93DF93BA
:1007200090E0FC01EA51FF4F2491FC01EC5FFE4F89
:100730008491882349F190E0880F991FFC01E25CC5
:10074000FE4FA591B491805D9E4FFC01C591D4915F
:100750009FB7611108C0F8948C91209582238C93E7
:10076000888182230AC0623051F4F8948C91322F30
:10077000309583238C938881822B888304C0F894DE
:100780008C91822B8C939FBFDF91CF910895CF9353
:10079000DF93282F30E0F901E853FF4F8491F901EE
:1007A000EA51FF4FD491F901EC5FFE4FC491CC2385
:1007B00091F081110E945503EC2FF0E0EE0FFF1F26
:1007C000EE5DFE4FA591B4912C912D2381E090E038
:1007D00021F480E002C080E090E0DF91CF910895A5
:1007E0001F920F920FB60F9211242F933F938F9366
:1007F0009F93AF93BF938091680190916901A091FD
:100800006A01B0916B013091670123E0230F2D370E
:1008100020F40196A11DB11D05C026E8230F029604
:10082000A11DB11D20936701809368019093690118
:10083000A0936A01B0936B0180916C0190916D015E
:10084000A0916E01B0916F010196A11DB11D809321
:100850006C0190936D01A0936E01B0936F01BF91F5
:10086000AF919F918F913F912F910F900FBE0F905D
:100870001F9018953FB7F89480916C0190916D018D
:10088000A0916E01B0916F0126B5A89B05C02F3FC6
:1008900019F00196A11DB11D3FBF6627782F892F42
:1008A0009A2F620F711D811D911D42E0660F771F07
:1008B000881F991F4A95D1F70895CF92DF92EF9242
:1008C000FF92CF93DF936B017C010E943A04EB010E
:1008D000C114D104E104F10479F00E943A046C1BC4
:1008E0007D0B683E7340A0F381E0C81AD108E1088F
:1008F000F108C851DC4FECCFDF91CF91FF90EF9022
:10090000DF90CF9008950197009739F0880F991FD5
:10091000880F991F02970197F1F70895789484B58D
:10092000826084BD84B5816084BD85B5826085BDEB
:1009300085B5816085BDEEE6F0E0808181608083D1
:10094000E1E8F0E0108280818260808380818160B4
:100950008083E0E8F0E0808181608083E1E9F0E07D
:10096000808182608083808181608083E0E9F0E023
:10097000808181608083E1ECF0E08081846080830D
:10098000808182608083808181608083E3ECF0E0FD
:10099000808181608083E0ECF0E0808182608083F0
:1009A000E2ECF0E0808181608083EAE7F0E0808122
:1009B0008460808380818260808380818160808385
:1009C000808180688083089508950E948E0480E766
:1009D00091E00E94D1070E94C501C0E0D0E00E94D2
:1009E0003F022097E1F30E940000F9CF615030F000
:1009F0002091F100FC0120830196F8CF289884E62D
:100A00008093770108952FB7FC012083F8946770D5
:100A10006093E9000895CF93DF931F92CDB7DEB7BF
:100A2000682FCE0101960E9403058091F200998102
:100A30009FBF0F90DF91CF910895FF920F931F9367
:100A4000CF93DF9300D0CDB7DEB7F62E8A01909119
:100A50007601992311F057FF03C08FEF9FEF2BC052
:100A6000682FCE0101967A830E9403058091F200DF
:100A700090E0A8017A81801791070CF4AC01EF2D6A
:100A8000F72FF40E84E6FE1639F02898809377014C
:100A90009091F1009193F7CF4115510521F080918C
:100AA000F200882321F089818FBFCA0104C08BE640
:100AB0008093E800F8CF0F900F90DF91CF911F91B6
:100AC0000F91FF900895CF93DF931F92CDB7DEB7BC
:100AD00041E050E0BE016F5F7F4F0E941D0501970E
:100AE00019F4898190E002C08FEF9FEF0F90DF91A2
:100AF000CF910895CF93DF931F92CDB7DEB7682FC4
:100B0000CE0101960E9403059091E800892F807222
:100B100095FF04C09091F20080E4891B99819FBFEA
:100B20000F90DF91CF9108954F925F926F927F92D5
:100B30008F929F92AF92BF92CF92DF92EF92FF92ED
:100B40000F931F93CF93DF931F92CDB7DEB7582E2D
:100B50007B01A42E952E80917601882369F0042FC5
:100B6000152F8AEFB82E852D8072782E9AE3892E64
:100B7000852D8074682E11C08FEF9FEF53C0852D97
:100B80000E947A05482E81110CC0BA94A9F361E045
:100B900070E080E090E00E945D040115110579F796
:100BA00037C0282F30E0021713070CF4402EC42C56
:100BB000D12C0C191D09652DCE0101960E9403054B
:100BC000772039F04A948FEF4816B1F01092F10077
:100BD000F9CFF701842D57FE07C0815058F094914A
:100BE0009093F1003196F9CF815020F0919190933C
:100BF000F100FACFEC0CFD1C8091E80085FF0FC0DE
:100C00000115110511F461100AC089818FBFC5CF8C
:100C10005D9884E6809378018A2D992D03C0809297
:100C2000E800F3CF0F90DF91CF911F910F91FF90CC
:100C3000EF90DF90CF90BF90AF909F908F907F907C
:100C40006F905F904F9008951092E9001092750197
:100C50001092740190937301809372010895CF9361
:100C6000DF93FB0120E030E0DEEF24173507A1F130
:100C700087FF02C0C49101C0C081A0917401B091EE
:100C800075016091720170917301A617B707B4F4F2
:100C90009091E8009570E1F39091E80092FD1EC0FC
:100CA000C093F10060917401709175016F5F7F4F87
:100CB0006F737727672B11F4D093E800609174016C
:100CC000709175016F5F7F4F709375016093740130
:100CD0002F5F3F4F3196C9CFC90102C08FEF9FEF01
:100CE000DF91CF9108951F93CF93DF931F92CDB7DC
:100CF000DEB7162F2091E80022FFFCCF612F798309
:100D00000E94F6048BEF8093E800812F7981972F62
:100D10000F90DF91CF911F910895CF93DF931F9292
:100D2000CDB7DEB71982CE0101960E94260ACE0108
:100D300001960E946C08898190E00F90DF91CF911D
:100D400008951F920F920FB60F921124EF92FF9207
:100D50000F931F932F933F934F935F936F937F93C3
:100D60008F939F93AF93BF93EF93FF93CF93DF93B3
:100D7000CDB7DEB76297DEBFCDBF1092E90080919C
:100D8000E80083FFE7C068E0CE010A960E94F604FF
:100D900082EF8093E8009A8597FF05C08091E80074
:100DA00080FFFCCF03C08EEF8093E800892F807610
:100DB00009F0B5C08B85811105C01092F100109229
:100DC000F100C1C0282F2D7F213009F4BCC085302F
:100DD00049F48091E80080FFFCCF8C858068809387
:100DE000E300B1C0863009F072C02D85E888F9882B
:100DF000223071F580E090E02A8B0E9424060E9448
:100E00008D0699E08E010F5F1F4FF801392F119267
:100E10003A95E9F799832A892A8391E09E8390E89D
:100E200098879AEF99872091740130917501275F17
:100E30003F4F3C832B838D83C7010E94240649E0EA
:100E400050E0B80180E00E942F060E948D067BC012
:100E5000C7012A8B0E9424062A89223241F482E2A9
:100E600090E00E947708892B09F06DC070C0213096
:100E700069F488899989089711F420937101809108
:100E80007101882389F061E571E016C0233009F013
:100E90005EC08C85882359F0823061F0813009F082
:100EA00056C065E771E008C063E671E005C06FEA0F
:100EB00071E002C06DE871E06115710509F447C089
:100EC000FB01449150E080E80E942F063CC087302F
:100ED00009F43DC0883021F481E08093F10033C0F3
:100EE000893089F5937099F5EDE4F1E081E021E036
:100EF00096E38093E9002093EB0034913093EC006B
:100F00009093ED008F5F3196853099F78EE780934F
:100F1000EA001092EA008C858093760114C08889DB
:100F200099890E9424068E85811105C0CE010A96FA
:100F30000E94310A06C0823051F4CE010A960E9406
:100F40009F08882321F08EEF8093E80003C081E2A0
:100F50008093EB0062960FB6F894DEBF0FBECDBF54
:100F6000DF91CF91FF91EF91BF91AF919F918F91C1
:100F70007F916F915F914F913F912F911F910F91B1
:100F8000FF90EF900F900FBE0F901F9018958093D9
:100F9000E9008091F200882319F08AE38093E80049
:100FA00008951092760181E08093D70080EA8093C3
:100FB000D80082E189BD09B400FEFDCF61E070E098
:100FC00080E090E00E945D0480E98093D8008CE08E
:100FD0008093E2001092E000559A209A08951F92A3
:100FE0000F920FB60F9211242F933F934F935F935D
:100FF0006F937F938F939F93AF93BF93EF93FF93E1
:101000008091E1001092E10083FF0FC01092E9008F
:1010100091E09093EB001092EC0092E39093ED003E
:101020001092760198E09093F00082FF26C083E052
:101030000E94C70782E00E940B05882321F086E802
:1010400091E00E94D80980917801882339F080913D
:101050007801815080937801882369F0809177012D
:10106000882359F080917701815080937701811115
:1010700004C0289A02C05D9AF1CFFF91EF91BF9111
:10108000AF919F918F917F916F915F914F913F9120
:101090002F910F900FBE0F901F901895FF920F93F6
:1010A0001F93CF93DF93EC01F62EE881F981048042
:1010B000F581E02D09958C01E881F9810680F781A1
:1010C000E02D6F2DCE010995C8019927DF91CF91B1
:1010D0001F910F91FF900895FC0120812F5F2083C5
:1010E00049E150E063E372E080E80C942F0645E6A6
:1010F00050E06CE472E080E80C942F06EF92FF92CF
:101100000F931F93CF93DF931F92CDB7DEB78983E1
:101110008B017A0141E050E0BE016F5F7F4F84E0B8
:101120000E949405A701B80184E40E9494050F90E1
:10113000DF91CF911F910F91FF90EF900895FC01E7
:1011400091818081813A31F481E0913091F0933046
:1011500089F411C0813271F49B3021F48281809333
:10116000010105C09A3031F482818093000181E051
:101170000895089580E0089548E050E082E00C94DE
:101180007E08CF93DF93DC01683818F0E8E7E60FBC
:1011900025C0E62FF0E067FF11C0E058F10981E0BB
:1011A00090E001C0880FEA95EAF714969C91149795
:1011B000982B14969C931497E0E010C0ED54FE4FCA
:1011C000E491EE2309F440C0E7FF08C014968C9127
:1011D0001497826014968C931497EF7716968C91DF
:1011E00016978E1741F117968C9117978E1719F154
:1011F00018968C9118978E17F1F019968C91199773
:101200008E17C9F01A968C911A978E17A1F01B961B
:101210008C911B978E1779F080E090E0ED01C80F5C
:10122000D91F2E81211102C0EE8305C001968630A0
:101230009105A1F709C0BD016C5F7F4FCD010E94F0
:10124000BC0881E090E008C081E090E013969C9398
:101250008E93129780E090E0DF91CF9108956838E7
:1012600018F0E8E7E60F25C0E62FF0E067FF12C0B0
:10127000E058F10921E030E001C0220FEA95EAF7D9
:101280002095DC0114963C911497322314963C93DC
:10129000E0E00FC0ED54FE4FE491EE2329F1E7FFAB
:1012A00008C0DC0114962C9114972D7F14962C9372
:1012B000EF7720E030E0EE2351F0DC01A20FB31F06
:1012C00016964C9116974E1302C016961C922F5FDD
:1012D0003F4F2630310579F7BC016C5F7F4F0E948C
:1012E000BC0881E090E0089580E090E00895FC0162
:1012F0001682178210861186128613861482BC010C
:101300006C5F7F4F0C94BC081092850110927C0199
:1013100010927B018CE291E090937A0180937901A5
:1013200008958091D4019091D5012091D6013091FA
:10133000D701821B930B8F73992708952091D401B5
:101340003091D5018091D6019091D70128173907A6
:1013500049F0E091D601F091D701EC56FE4F808123
:1013600090E008958FEF9FEF08952091D401309180
:10137000D5018091D6019091D70128173907A9F09E
:10138000E091D601F091D701EC56FE4F808120917B
:10139000D6013091D7012F5F3F4F2F733327309302
:1013A000D7012093D60190E008958FEF9FEF089525
:1013B000CF93DF93C091D401D091D5012196CF7303
:1013C000DD278091D6019091D701C817D90799F0F0
:1013D00082E00E9463058F3F2FEF920761F0E0915A
:1013E000D401F091D501EC56FE4F8083D093D50106
:1013F000C093D401DFCFDF91CF91089583E00C94A7
:10140000C7070F931F93CF93DF931F92CDB7DEB71C
:101410008C01698380910901882359F041E050E0F3
:10142000BE016F5F7F4F83E00E9494051816190676
:101430003CF081E090E0F8019383828380E090E0CB
:101440000F90DF91CF911F910F910895FC012081A2
:101450002E5F208342E450E061EB72E080E80C9460
:101460002F06FC0181819081913A59F4813209F073
:101470004BC047E050E062E071E080E00E942F0640
:1014800045C0913209F040C0803239F467E070E025
:1014900082E091E00E94730639C0823209F034C0C4
:1014A0008281809309018091020190910301A091B2
:1014B0000401B0910501803B9440A105B10531F5CF
:1014C0008091090180FD12C087E797E7909301089A
:1014D000809300082BE088E190E00FB6F894A8957F
:1014E000809360000FBE2093600010C088E10FB6AB
:1014F000F89480936000109260000FBEA89510923F
:1015000001081092000802C080E0089581E008956B
:10151000109289011092880188EE93E0A0E0B0E07B
:1015200080938A0190938B01A0938C01B0938D01DD
:101530008AE391E090938701809386010895CF928A
:10154000DF92EF92FF920F931F93CF93DF936C0183
:101550007A01EB01E60EF71E00E010E0CE15DF0584
:1015600061F06991D601ED91FC910190F081E02D3F
:10157000C6010995080F191FF1CFC801DF91CF915E
:101580001F910F91FF90EF90DF90CF900895EE0F95
:0E159000FF1F0590F491E02D0994F894FFCF11
:10159E00010100E100000000000000000000E40472
:1015AE00000000003C0300000000D4010000000019
:1015BE001502000000003C03000000004E089F0AC8
:1015CE00C1082F09770900000000010A9F0A91093E
:0815DE00B5099E09FE09D809B8
:00000001FF
