:100000000C947E010C94A6010C94A6010C94A601FC
:100010000C94A6010C94A6010C94A6010C94A601C4
:100020000C94A6010C94A6010C94950E0C94470D0B
:100030000C94A6010C94A6010C94A6010C94A601A4
:100040000C94A6010C94A6010C94A6010C94A60194
:100050000C94A6010C94A6010C94A6010C949E0885
:100060000C94A6010C94A6010C94A6010C94A60174
:100070000C94A6010C94A6010C94A6010C94A60164
:100080000C94A6010C94A6010C94A6010C94A60154
:100090000C94A6010C94A6010C94A6010C94A60144
:1000A0000C94A6010C9432080C94A601CD0AD00A37
:1000B000C30AC70AF10AF10AF10AD40AD80ADC0A0B
:1000C000E20AE60AF10AEC0A0000000200080E004B
:1000D00000030401000B000000000000000000000D
:1000E00000000000000004080201104080401020C1
:1000F00040804080080204018040201002011080EE
:100100001020404004040404040304050202020217
:1001100004030202020206060606060604040202A0
:100120000204000000002300260029002C002F00FC
:1001300000000000250028002B002E0031000000E8
:100140000000240027002A002D00300000C180811B
:10015000C11201000202000040412336800001016B
:10016000020001120100020000004041233680001D
:10017000010102000118034100720064007500696A
:10018000006E006F0020004C004C00430022034131
:100190000072006400750069006E006F0020004C62
:1001A0000065006F006E006100720064006F000463
:1001B00003090400000000000000002A2B280000B2
:1001C000000000000000000000000000000000002F
:1001D0000000002C9EB4A0A1A2A434A6A7A5AE3610
:1001E0002D3738271E1F20212223242526B333B67E
:1001F0002EB7B89F8485868788898A8B8C8D8E8F51
:10020000909192939495969798999A9B9C9D2F3153
:1002100030A3AD350405060708090A0B0C0D0E0FB7
:10022000101112131415161718191A1B1C1DAFB133
:10023000B0B500090402000103000000092101011A
:100240000001226500070584034000010501090241
:10025000A1010901A1008501050919012903150062
:10026000250195037501810295017505810305013D
:100270000930093109381581257F750895038106F4
:10028000C0C005010906A1018502050719E029E79B
:1002900015002501750195088102950175088103F6
:1002A0009506750815002565050719002965810063
:1002B000C0080B0002020201000904000001020252
:1002C0000000052400100105240101010424020698
:1002D0000524060001070581031000400904010000
:1002E000020A000000070502024000000705830221
:1002F000400000001C022A105611270211241FBEC4
:10030000CFEFDAE0DEBFCDBF11E0A0E0B1E0E6E282
:10031000F4E202C005900D92A038B107D9F712E0BF
:10032000A0E8B1E001C01D92AF31B107E1F712E0E2
:10033000CAEFD2E004C02297FE010E940212C43F1D
:10034000D107C9F70E948A0B0C9406120C94000086
:100350000F93CF93DF9300D000D01F92CDB7DEB7BD
:1003600085E0EAE1F1E0DE01119601900D928A95B7
:10037000E1F70BE020ED37E045E0BE016F5F7F4F16
:100380008CE891E00E9456048FE191E00E9492086F
:1003900089E291E00E9492080E9483088111FCCFBB
:1003A0000F900F900F900F900F90DF91CF910F91C2
:1003B000089520E041E060E871E08CE891E00E945F
:1003C000B703805D97409C0197FF02C02D5F3F4FB0
:1003D000359527953595279540918A0150918B0148
:1003E000BC01641B750BE6E0E69FA001E79F500D82
:1003F0001124240F351F90938B0180938A0160E9AB
:1004000071E0621B730B20573E4F213981E03807A2
:1004100014F020E931E0613981E0780714F060E9F7
:1004200071E077FF02C060E070E0C90137FF02C0F1
:1004300080E090E00C94FD048CE891E00E9446047A
:100440008AE391E090938D0180938C01089586E476
:1004500091E090938D0180938C018CE891E00C9455
:1004600068046F927F928F929F92AF92BF92CF92C9
:10047000DF92EF92FF920F931F93CF93DF93EC01E4
:100480008B018A859B85892B09F474C0D12C8C85BE
:10049000D816E8F4ED2CF12C8E859F85F701EE0F30
:1004A000FF1FE00FF11F91838083EA85FB85EE0D2E
:1004B000FF1D61E080810E942B0BEA85FB85EE0D1C
:1004C000FF1D61E080810E94F20AD394E0CF8AE0B0
:1004D00090E00E943109D12C8C85D816A0F4ED2C27
:1004E000F12CEA85FB85EE0DFF1D60E080810E9406
:1004F000F20AEA85FB85EE0DFF1D60E080810E9417
:100500002B0BD394E9CF0E94E8086B017C010E9479
:10051000E8086C197D098E099F092E853F854901E0
:10052000A12CB12C681579058A059B0518F50E9448
:10053000E8083B016C187D08912C8C85981638F7DB
:10054000A92CB12CAA85BB85AA0DBB1D8C910E943C
:10055000610B892B51F4F501EE0FFF1FE00FF11F26
:10056000808191816816790610F09394E6CF7182AC
:100570006082FBCFDF91CF911F910F91FF90EF90A1
:10058000DF90CF90BF90AF909F908F907F906F90B3
:100590000895EF92FF920F931F93CF93DF931F92D3
:1005A000CDB7DEB77C018B01DC0113961C921E9245
:1005B000129715961C921E92149717961C921E92D3
:1005C000169719961C921E921897413120F080E1DF
:1005D0001C968C9302C0FC014487D7011A968D911A
:1005E0009C911B97892B11F030E00FC0F701848597
:1005F00090E029830E949209D7011B969C938E93C9
:100600001A972981892B81F715C0F701848538173E
:1006100080F4832F90E0F801E80FF91F4081D701A3
:100620001A96ED91FC911B97E80FF91F40833F5FED
:10063000ECCF25870F90DF91CF911F910F91FF9005
:10064000EF900895CF93DF93EC018D858F3F69F094
:1006500061E00E94F20A60E08D850E942B0B88EC1D
:1006600090E0DF91CF910C943109DF91CF91089503
:10067000CF93DF93EC018D858F3F69F061E00E949D
:10068000F20A61E08D850E942B0B88EC90E0DF91EF
:10069000CF910C943109DF91CF910895DF92EF92C1
:1006A000FF920F931F93CF93DF93CDB7DEB7A09741
:1006B0000FB6F894DEBF0FBECDBF8C017B01D42EE8
:1006C0008FEF840F823020F4C8010E94380303C0EA
:1006D000C8010E942203D801ED91FC910190F081A4
:1006E000E02DB701C8010995C8010E942203B2E0BC
:1006F000DB122FC0D801ED91FC910190F081E02D2B
:10070000BE016F5F7F4FC801099540E0F801848505
:100710004817F8F4842F90E0880F991FF701E80F2D
:10072000F91F21E030E02C0F3D1F820F931FD801ED
:100730001E962D913C911F97DC018D919C91281B59
:10074000390B80819181820F931F918380834F5F4A
:10075000DDCFA0960FB6F894DEBF0FBECDBFDF9100
:10076000CF911F910F91FF90EF90DF9008952F92FE
:100770003F924F925F926F927F928F929F92AF9231
:10078000BF92CF92DF92EF92FF920F931F93CF937E
:10079000DF93EC018B01822E0E944E032C84E80132
:1007A000412C512C320100E010E0C12CD12C7601FB
:1007B000312C912CE8EEAE2EE3E0BE2E921421F106
:1007C000E991F991882021F0C5018E1B9F0BFC0156
:1007D000E93CF10524F4E333F10574F002C033245D
:1007E0003394DF01A30192010E948711C60ED71E28
:1007F000E81EF91E0E0F1F1F939498EE490E93E00A
:10080000591E611C711CDACF31101EC0492D50E0F9
:100810004150510924EF31E0429FC001439F900DA8
:10082000529F900D112420919C0130919D01281719
:100830003907B4F088EE93E0489F9001499F300D4E
:10084000589F300D11240EC0980140E050E0C701C0
:10085000B6010E94BF1130939D0120939C0102C0FC
:1008600020E030E0C901DF91CF911F910F91FF90FF
:10087000EF90DF90CF90BF90AF909F908F907F9040
:100880006F905F904F903F902F900895FC0186E409
:1008900091E09183808313821282158214821782E1
:1008A000168211861086138612860895EF92FF92A3
:1008B0000F93CF93DF93EC017901202F0E94C9029F
:1008C000FF86EE86DF91CF910F91FF90EF90089514
:1008D000CF93DF93EC0180E491E0998388838A854C
:1008E0009B85009711F00E942A0A8C819D810097B8
:1008F00011F00E942A0A88859985009711F00E94BC
:100900002A0A8A819B81009711F00E942A0A8E810F
:100910009F81009721F0DF91CF910C942A0ADF91FB
:10092000CF9108952E98269A2D98259A2A98229A42
:100930002998219A80EA8093800081E18093810048
:1009400080E991E09093870080938600109289005F
:100950001092880010928B0010928A000895809166
:100960009E01811105C081E080939E010C94920448
:100970000895CF93DF93EC010E94AF04D7FF05C029
:10098000D195C195D10981E001C080E0C13991E0E4
:10099000D90714F0C0E9D1E0D0938B00C0938A004E
:1009A0009091A001891711F02A9A01C02A98229AE1
:1009B000DF91CF910895CF93DF93EC010E94AF04B4
:1009C000D7FF05C0D195C195D10981E001C080E074
:1009D000C13991E0D90714F0C0E9D1E0D093890082
:1009E000C093880090919F01891711F0299A01C046
:1009F0002998219ADF91CF910895CF93DF93EB014E
:100A00000E94B904CE01DF91CF910C94DB04909148
:100A1000A301E091A701F091A801992311F084911D
:100A200001C080812FEB280F2A3110F4805E0895D9
:100A3000803249F49F012F5F3F4F3093A8012093EC
:100A4000A701EF2B31F708951F93CF93DF930E94F7
:100A50000705C0E0D0E01AE090ED980F9A30B8F4A6
:100A60009E01129FE001139FD00D1124C80FD11DCC
:100A700087FDDA95E0978091A7019091A8010196F2
:100A80009093A8018093A7010E940705E5CFCE01AE
:100A9000DF91CF911F910895109272001092C000C3
:100AA00084E08093C10089E08093C20081E080935C
:100AB000C300EFEBF0E083E0808388EE8093D10009
:100AC00010821092D200579A789408952F923F92F4
:100AD0004F925F926F927F928F929F92AF92BF924E
:100AE000CF92DF92EF92FF920F931F93CF93DF93FA
:100AF000CDB7DEB727970FB6F894DEBF0FBECDBFD8
:100B00007C011B014D838091A901811105C081E009
:100B10008093A9010E944C0510920901F7FE04C0C0
:100B2000E894F7F81AE001C011E088E2189F802DE0
:100B30001124282F30E03F832E832E153F0510F41B
:100B4000FF82EE82113049F44E815F81413157427C
:100B500020F0E0E1F7E2FF83EE83812E912CA12CBF
:100B6000B12C8E819F81969587959C0140E050E045
:100B700029833A834B835C834E815F812A01612CF8
:100B8000712CA501940160E072E18AE790E00E9477
:100B90008F1129813A814B815C81620F731F841F01
:100BA000951FA30192010E94E11169017A01EE24CF
:100BB000FF2400E00F5FC11434E0D306E104F10428
:100BC00008F120E032E14AE750E0002E04C05595DC
:100BD0004795379527950A94D2F7C501B4010E942D
:100BE0008F1129813A814B815C81620F731F841FB1
:100BF000951FA30192010E94E11169017A01EE247F
:100C0000FF24D8CF1A3049F48E819F8105966AE07F
:100C100070E00E94AB117F836E834E815F81483EFE
:100C200083E0580759F09101DA010E946D1128EE16
:100C300033E040E050E00E94E1111901109272008F
:100C40008091C100807F802B8093C100BB27AF2D96
:100C50009E2D8D2D8093BF00C092D1002D8120311B
:100C600008F02FE080E190E0821B910904C0F69427
:100C7000E794D794C7948A95D2F78D2D99278093BE
:100C8000BF00C092D2003092A6012092A50189B384
:100C90008FEF89BB84E08093720027960FB6F8949B
:100CA000DEBF0FBECDBFDF91CF911F910F91FF909F
:100CB000EF90DF90CF90BF90AF909F908F907F90FC
:100CC0006F905F904F903F902F900895CF93DF9358
:100CD000EB018F3F11F0411105C040E0BE0188EEED
:100CE00093E043C0813130F050EF580F503618F088
:100CF0005FE501C050E0852F6CE00E949F11682FD6
:100D000074EF760390011124250F311D2C3031052D
:100D100040F4F901EE0FFF1FE85BFE4F20813181A7
:100D200002C020E030E0873081F0082E02C0220FA0
:100D3000331F0A94E2F7823028F0C90105966AE071
:100D400070E00CC0C90190580CC0C90136E0880F92
:100D5000991F3A95E1F7029665E070E00E94AB11A9
:100D6000CB01403108F04FE0BE01DF91CF910C94F0
:100D700066054F925F926F927F928F929F92AF9291
:100D8000BF92CF92DF92EF92FF920F931F93CF9378
:100D9000DF9300D0CDB7DEB7909008018091A2011B
:100DA000882321F06091A101611117C07724739409
:100DB000B0ECAB2EBDE5BB2E1AE0612E04E0802E18
:100DC00080EDC82E87E0D82E94E0E92EF12C04EFB8
:100DD00011E02FE0422E512C15C070E040E088EE6B
:100DE00093E00E9466051092A10129C18636D4F5D0
:100DF000813609F4A9C07CF58C3309F460C08E33C8
:100E000081F493940E9407052091A7013091A801D5
:100E10002F5F3F4F3093A8012093A701853631F70C
:100E200052C0813209F08BC080920801D092070134
:100E3000C0920601F0920501E092040110930301B3
:100E40000093020150920101409200011092A20110
:100E5000A4E09A2ED7CF8336A1F10CF478C010E02D
:100E600082E077C08D36C1F194F4873691F174F148
:100E70008C3609F064C00E942405BC0190930501E2
:100E800080930401809106019091070151C082373F
:100E9000C9F14CF48F3609F052C00E942405982EF7
:100EA00080930801AFCF843781F1863709F047C0BE
:100EB0000E9424059093010180930001A3CF9A948E
:100EC000A1CF10E020C010E084E043C010E085E036
:100ED00040C010E087E03DC00E9407058C3619F441
:100EE0001092A20104C07092A2011092A10120915F
:100EF000A7013091A8012F5F3F4F3093A8012093A5
:100F0000A70180CF11E080E024C00E942405BC012D
:100F1000C5010E94AB11669EC001679E900D112411
:100F2000909307018093060160910401709105017F
:100F30000E94AB11709303016093020163CF109282
:100F4000A8011092A7017BC010E089E002C010E068
:100F50008BE0082F9CE0999E000D11240E9407054C
:100F6000982F977F933261F42091A7013091A801C7
:100F70002F5F3F4F3093A8012093A7010F5FEECF63
:100F80008D3271F42091A7013091A8012F5F3F4F5E
:100F90003093A8012093A70101500E940705F0CFCC
:100FA00060910201709103018153883050F4E09008
:100FB0000601F09007010E942405BC01C7010E94B0
:100FC000AB117B01F694E79469837A830E9407054D
:100FD00069817A818E3269F42091A7013091A8014C
:100FE0002F5F3F4F3093A8012093A7016E0D7F1D07
:100FF000E9CF8091A201882339F09B01369527958E
:101000002093A101621B710940910001112311F08D
:101010008FEF01C0802F0F900F90DF91CF911F9124
:101020000F91FF90EF90DF90CF90BF90AF909F9087
:101030008F907F906F905F904F900C9466060F900A
:101040000F90DF91CF911F910F91FF90EF90DF9064
:10105000CF90BF90AF909F908F907F906F905F9058
:101060004F9008951F920F920FB60F9211242F9355
:101070003F934F935F936F937F938F939F93AF9320
:10108000BF93EF93FF938091A5019091A6019C01DE
:10109000215031093093A6012093A501892B11F528
:1010A0001092720078948091C100807F8460809358
:1010B000C10083E08093BF0088EE8093D10010923E
:1010C000BF001092D20081E0809309018091A701B6
:1010D0009091A801892B31F08091A401811102C067
:1010E0000E94B906FF91EF91BF91AF919F918F91AF
:1010F0007F916F915F914F913F912F910F900FBE14
:101100000F901F90189580910901882349F081E084
:101110002091A7013091A801232B19F480E00895B4
:1011200081E00895109272009093A8018093A70126
:101130001092A3011092A1010C94B9061F920F9274
:101140000FB60F9211242F933F938F939F93AF93DA
:10115000BF938091AB019091AC01A091AD01B09192
:10116000AE013091AA0123E0230F2D3720F4019620
:10117000A11DB11D05C026E8230F0296A11DB11DBA
:101180002093AA018093AB019093AC01A093AD0191
:10119000B093AE018091AF019091B001A091B101E7
:1011A000B091B2010196A11DB11D8093AF01909342
:1011B000B001A093B101B093B201BF91AF919F91E3
:1011C0008F913F912F910F900FBE0F901F90189508
:1011D0003FB7F8948091AF019091B001A091B10117
:1011E000B091B20126B5A89B05C02F3F19F001961A
:1011F000A11DB11D3FBF6627782F892F9A2F620F3F
:10120000711D811D911D42E0660F771F881F991F78
:101210004A95D1F70895CF92DF92EF92FF92CF9344
:10122000DF936B017C010E94E808EB01C114D1043B
:10123000E104F10479F00E94E8086C1B7D0B683E24
:101240007340A0F381E0C81AD108E108F108C85141
:10125000DC4FECCFDF91CF91FF90EF90DF90CF90FC
:1012600008950197009739F0880F991F880F991FEB
:1012700002970197F1F70895789484B5826084BD50
:1012800084B5816084BD85B5826085BD85B581608A
:1012900085BDEEE6F0E0808181608083E1E8F0E0EA
:1012A0001082808182608083808181608083E0E819
:1012B000F0E0808181608083E1E9F0E080818260FC
:1012C0008083808181608083E0E9F0E080818160BB
:1012D0008083E1ECF0E080818460808380818260A3
:1012E0008083808181608083E3ECF0E08081816095
:1012F0008083E0ECF0E0808182608083E2ECF0E0CB
:10130000808181608083EAE7F0E08081846080836F
:101310008081826080838081816080838081806819
:1013200080830895CF93DF938230910510F482E09B
:1013300090E0E0911D02F0911E0220E030E0A0E07C
:10134000B0E0309739F14081518148175907B8F022
:101350004817590771F482819381109729F01396E9
:101360009C938E9312972CC090931E0280931D0223
:1013700027C02115310531F04217530718F0A90194
:10138000DB0101C0EF019A01BD01DF010280F381A1
:10139000E02DD7CF21153105F9F0281B390B24306A
:1013A000310580F48A819B816115710521F0FB0173
:1013B0009383828304C090931E0280931D02FE01DA
:1013C000329644C0FE01E20FF31F819391932250A5
:1013D0003109398328833AC020911B0230911C02C5
:1013E000232B41F420910C0130910D0130931C020C
:1013F00020931B0220910A0130910B012115310528
:1014000041F42DB73EB740910E0150910F01241BBE
:10141000350BE0911B02F0911C02E217F307A0F4D8
:101420002E1B3F0B2817390778F0AC014E5F5F4F3A
:101430002417350748F04E0F5F1F50931C0240934E
:101440001B028193919302C0E0E0F0E0CF01DF91B5
:10145000CF910895CF93DF93009709F487C0FC01E3
:10146000329713821282C0911D02D0911E022097E2
:1014700081F420813181280F391F80911B029091C6
:101480001C028217930779F5F0931C02E0931B026C
:101490006DC0DE0120E030E0AE17BF0750F41296B9
:1014A0004D915C9113979D014115510509F1DA01A8
:1014B000F3CFB383A28340815181840F951F8A1794
:1014C0009B0771F48D919C911197840F951F029643
:1014D0009183808312968D919C911397938382833D
:1014E0002115310529F4F0931E02E0931D023EC040
:1014F000D9011396FC93EE9312974D915D91A40F31
:10150000B51FEA17FB0779F480819181840F951F3D
:101510000296D90111969C938E93828193811396A2
:101520009C938E931297E0E0F0E08A819B81009774
:1015300019F0FE01EC01F9CFCE0102962881398124
:10154000820F931F20911B0230911C02281739072C
:1015500069F4309729F410921E0210921D0202C005
:1015600013821282D0931C02C0931B02DF91CF9191
:10157000089590E0FC013197EE30F10590F5EA5ABC
:10158000FF4F0C940012809180008F7703C08091F0
:1015900080008F7D80938000089584B58F7702C08E
:1015A00084B58F7D84BD0895809190008F7707C0AA
:1015B000809190008F7D03C080919000877F809301
:1015C000900008958091C0008F7703C08091C00083
:1015D0008F7D8093C00008958091C200877F8093A3
:1015E000C2000895CF93DF9390E0FC01EA51FF4FD2
:1015F0002491FC01EC5FFE4F8491882349F190E037
:10160000880F991FFC01E25CFE4FA591B491805DAB
:101610009E4FFC01C591D4919FB7611108C0F89409
:101620008C91209582238C93888182230AC062301A
:1016300051F4F8948C91322F309583238C938881C8
:10164000822B888304C0F8948C91822B8C939FBF4B
:10165000DF91CF9108950F931F93CF93DF931F9244
:10166000CDB7DEB7282F30E0F901E853FF4F849162
:10167000F901EA51FF4F1491F901EC5FFE4F04911B
:101680000023C9F0882321F069830E94B90A698187
:10169000E02FF0E0EE0FFF1FE05DFE4FA591B4914B
:1016A0009FB7F8948C91611103C01095812301C0FC
:1016B000812B8C939FBF0F90DF91CF911F910F9142
:1016C0000895CF93DF93282F30E0F901E853FF4FBF
:1016D0008491F901EA51FF4FD491F901EC5FFE4F7B
:1016E000C491CC2391F081110E94B90AEC2FF0E053
:1016F000EE0FFF1FEE5DFE4FA591B4912C912D23AF
:1017000081E090E021F480E002C080E090E0DF9191
:10171000CF9108950E943C0983EB91E00E94770EDF
:101720000E94A801C0E0D0E00E94D9012097E1F317
:101730000E940000F9CF0895615030F02091F1002F
:10174000FC0120830196F8CF289884E68093BA01A3
:1017500008952FB7FC012083F89467706093E90027
:101760000895CF93DF931F92CDB7DEB7682FCE01D8
:1017700001960E94A90B8091F20099819FBF0F9062
:10178000DF91CF910895FF920F931F93CF93DF9333
:1017900000D0CDB7DEB7F62E8A019091B90199231A
:1017A00011F057FF03C08FEF9FEF2BC0682FCE01C2
:1017B00001967A830E94A90B8091F20090E0A80123
:1017C0007A81801791070CF4AC01EF2DF72FF40EFE
:1017D00084E6FE1639F028988093BA019091F100C2
:1017E0009193F7CF4115510521F08091F2008823A4
:1017F00021F089818FBFCA0104C08BE68093E80085
:10180000F8CF0F900F90DF91CF911F910F91FF9024
:101810000895CF93DF931F92CDB7DEB741E050E03C
:10182000BE016F5F7F4F0E94C30B019719F489813E
:1018300090E002C08FEF9FEF0F90DF91CF9108955E
:10184000CF93DF931F92CDB7DEB7682FCE010196FD
:101850000E94A90B9091E800892F807295FF04C027
:101860009091F20080E4891B99819FBF0F90DF91D6
:10187000CF9108954F925F926F927F928F929F9235
:10188000AF92BF92CF92DF92EF92FF920F931F938E
:10189000CF93DF931F92CDB7DEB7582E7B01A42ED6
:1018A000952E8091B901882369F0042F152F8AEFB6
:1018B000B82E852D8072782E9AE3892E852D80741E
:1018C000682E11C08FEF9FEF53C0852D0E94200C12
:1018D000482E81110CC0BA94A9F361E070E080E059
:1018E00090E00E940B090115110579F737C0282FE8
:1018F00030E0021713070CF4402EC42CD12C0C1925
:101900001D09652DCE0101960E94A90B772039F0A3
:101910004A948FEF4816B1F01092F100F9CFF70119
:10192000842D57FE07C0815058F094919093F10098
:101930003196F9CF815020F091919093F100FACF38
:10194000EC0CFD1C8091E80085FF0FC0011511050E
:1019500011F461100AC089818FBFC5CF5D9884E6FC
:101960008093BB018A2D992D03C08092E800F3CFAC
:101970000F90DF91CF911F910F91FF90EF90DF902B
:10198000CF90BF90AF909F908F907F906F905F901F
:101990004F9008951092E9001092B8011092B7018B
:1019A0009093B6018093B5010895CF93DF93FB0127
:1019B00020E030E0DEEF24173507A1F187FF02C0F9
:1019C000C49101C0C081A091B701B091B8016091EC
:1019D000B5017091B601A617B707B4F49091E8006D
:1019E0009570E1F39091E80092FD1EC0C093F10064
:1019F0006091B7017091B8016F5F7F4F6F73772768
:101A0000672B11F4D093E8006091B7017091B80191
:101A10006F5F7F4F7093B8016093B7012F5F3F4FA7
:101A20003196C9CFC90102C08FEF9FEFDF91CF91EF
:101A300008951F93CF93DF931F92CDB7DEB7162F74
:101A40002091E80022FFFCCF612F79830E949C0B3C
:101A50008BEF8093E800812F7981972F0F90DF9192
:101A6000CF911F910895CF93DF931F92CDB7DEB72B
:101A70001982CE0101960E94F410CE0101960E94B7
:101A8000120F898190E00F90DF91CF9108951F92FE
:101A90000F920FB60F921124EF92FF920F931F93A4
:101AA0002F933F934F935F936F937F938F939F9366
:101AB000AF93BF93EF93FF93CF93DF93CDB7DEB791
:101AC0006297DEBFCDBF1092E9008091E80083FFEE
:101AD000E7C068E0CE010A960E949C0B82EF8093DB
:101AE000E8009A8597FF05C08091E80080FFFCCF51
:101AF00003C08EEF8093E800892F807609F0B5C08F
:101B00008B85811105C01092F1001092F100C1C0C7
:101B1000282F2D7F213009F4BCC0853049F48091F5
:101B2000E80080FFFCCF8C8580688093E300B1C023
:101B3000863009F072C02D85E888F988223071F569
:101B400080E090E02A8B0E94CA0C0E94330D99E03D
:101B50008E010F5F1F4FF801392F11923A95E9F767
:101B600099832A892A8391E09E8390E898879AEF47
:101B700099872091B7013091B801275F3F4F3C838F
:101B80002B838D83C7010E94CA0C49E050E0B80145
:101B900080E00E94D50C0E94330D7BC0C7012A8BC8
:101BA0000E94CA0C2A89223241F482E290E00E940B
:101BB0001D0F892B09F06DC070C0213069F4888930
:101BC0009989089711F42093B4018091B401882376
:101BD00089F061E571E016C0233009F05EC08C85A4
:101BE000882359F0823061F0813009F056C065E7F2
:101BF00071E008C063E671E005C06FEA71E002C001
:101C00006DE871E06115710509F447C0FB0144916D
:101C100050E080E80E94D50C3CC0873009F43DC0FC
:101C2000883021F481E08093F10033C0893089F558
:101C3000937099F5EDE4F1E081E021E096E3809383
:101C4000E9002093EB0034913093EC009093ED0089
:101C50008F5F3196853099F78EE78093EA00109276
:101C6000EA008C858093B90114C0888999890E9403
:101C7000CA0C8E85811105C0CE010A960E94FF1004
:101C800006C0823051F4CE010A960E94450F882387
:101C900021F08EEF8093E80003C081E28093EB0097
:101CA00062960FB6F894DEBF0FBECDBFDF91CF9125
:101CB000FF91EF91BF91AF919F918F917F916F9124
:101CC0005F914F913F912F911F910F91FF90EF9056
:101CD0000F900FBE0F901F9018958093E900809190
:101CE000F200882319F08AE38093E80008951092A7
:101CF000B90181E08093D70080EA8093D80082E127
:101D000089BD09B400FEFDCF61E070E080E090E0A5
:101D10000E940B0980E98093D8008CE08093E20058
:101D20001092E000559A209A08951F920F920FB6D4
:101D30000F9211242F933F934F935F936F937F9351
:101D40008F939F93AF93BF93EF93FF938091E100A5
:101D50001092E10083FF0FC01092E90091E0909390
:101D6000EB001092EC0092E39093ED001092B90119
:101D700098E09093F00082FF26C083E00E946D0EF1
:101D800082E00E94B10B882321F089EC91E00E944F
:101D9000A6108091BB01882339F08091BB0181504E
:101DA0008093BB01882369F08091BA01882359F0A0
:101DB0008091BA0181508093BA01811104C0289AA0
:101DC00002C05D9AF1CFFF91EF91BF91AF919F91CA
:101DD0008F917F916F915F914F913F912F910F90D4
:101DE0000FBE0F901F901895FF920F931F93CF93E4
:101DF000DF93EC01F62EE881F9810480F581E02D76
:101E000009958C01E881F9810680F781E02D6F2D1D
:101E1000CE010995C8019927DF91CF911F910F91AC
:101E2000FF900895FC0120812F5F208349E150E05D
:101E300063E372E080E80C94D50C45E650E06CE476
:101E400072E080E80C94D50CEF92FF920F931F93F1
:101E5000CF93DF931F92CDB7DEB789838B017A01D1
:101E600041E050E0BE016F5F7F4F84E00E943A0C7A
:101E7000A701B80184E40E943A0C0F90DF91CF9142
:101E80001F910F91FF90EF900895FC019181808147
:101E9000813A31F481E0913091F0933089F411C0AE
:101EA000813271F49B3021F482818093110105C04D
:101EB0009A3031F482818093100181E00895089571
:101EC00080E0089548E050E082E00C94240FCF9326
:101ED000DF93DC01683818F0E8E7E60F25C0E62F4D
:101EE000F0E067FF11C0E058F10981E090E001C027
:101EF000880FEA95EAF714969C911497982B1496FC
:101F00009C931497E0E010C0ED54FE4FE491EE2353
:101F100009F440C0E7FF08C014968C9114978260C2
:101F200014968C931497EF7716968C9116978E17BC
:101F300041F117968C9117978E1719F118968C917D
:101F400018978E17F1F019968C9119978E17C9F082
:101F50001A968C911A978E17A1F01B968C911B974D
:101F60008E1779F080E090E0ED01C80FD91F2E8127
:101F7000211102C0EE8305C0019686309105A1F7BC
:101F800009C0BD016C5F7F4FCD010E94620F81E0EF
:101F900090E008C081E090E013969C938E93129796
:101FA00080E090E0DF91CF910895683818F0E8E77D
:101FB000E60F25C0E62FF0E067FF12C0E058F109F8
:101FC00021E030E001C0220FEA95EAF72095DC011C
:101FD00014963C911497322314963C93E0E00FC082
:101FE000ED54FE4FE491EE2329F1E7FF08C0DC0138
:101FF00014962C9114972D7F14962C93EF7720E054
:1020000030E0EE2351F0DC01A20FB31F16964C9185
:1020100016974E1302C016961C922F5F3F4F263024
:10202000310579F7BC016C5F7F4F0E94620F81E040
:1020300090E0089580E090E00895FC0116821782F8
:1020400010861186128613861482BC016C5F7F4F46
:102050000C94620F1092C8011092BF011092BE0141
:1020600084E691E09093BD018093BC010895CF92E6
:10207000DF92EF92FF920F931F93CF93DF936C0148
:102080007A01EB01E60EF71E00E010E0CE15DF0549
:1020900061F06991D601ED91FC910190F081E02D04
:1020A000C6010995080F191FF1CFC801DF91CF9123
:1020B0001F910F91FF90EF90DF90CF900895809146
:1020C0001702909118022091190230911A02821B76
:1020D000930B8F739927089520911702309118025E
:1020E0008091190290911A022817390749F0E0915E
:1020F0001902F0911A02E952FE4F808190E0089592
:102100008FEF9FEF08952091170230911802809170
:10211000190290911A0228173907A9F0E0911902C3
:10212000F0911A02E952FE4F8081209119023091FC
:102130001A022F5F3F4F2F73332730931A022093D9
:10214000190290E008958FEF9FEF0895CF93DF93EA
:10215000C0911702D09118022196CF73DD2780918C
:10216000190290911A02C817D90799F082E00E94CB
:10217000090C8F3F2FEF920761F0E0911702F09169
:102180001802E952FE4F8083D0931802C0931702C1
:10219000DFCFDF91CF91089583E00C946D0E0F9304
:1021A0001F93CF93DF931F92CDB7DEB78C01698366
:1021B00080911901882359F041E050E0BE016F5F22
:1021C0007F4F83E00E943A0C181619063CF081E01C
:1021D00090E0F8019383828380E090E00F90DF919C
:1021E000CF911F910F910895FC0120812E5F2083D4
:1021F00042E450E061EB72E080E80C94D50CFC0105
:1022000081819081913A59F4813209F04BC047E0C5
:1022100050E062E171E080E00E94D50C45C091324F
:1022200009F040C0803239F467E070E082E191E06B
:102230000E94190D39C0823209F034C08281809326
:1022400019018091120190911301A0911401B09194
:102250001501803B9440A105B10531F5809119012C
:1022600080FD12C087E797E79093010880930008EC
:102270002BE088E190E00FB6F894A8958093600079
:102280000FBE2093600010C088E10FB6F8948093D1
:102290006000109260000FBEA89510920108109285
:1022A000000802C080E0089581E008951092CC01FA
:1022B0001092CB0188EE93E0A0E0B0E08093CD01D6
:1022C0009093CE01A093CF01B093D00182E791E02B
:1022D0009093CA018093C9010895A29FB001B39F52
:1022E000C001A39F700D811D1124911DB29F700D1F
:1022F000811D1124911D08950E946D11A59F900DBF
:10230000B49F900DA49F800D911D11240895B7FFD7
:102310000C947C110E947C11821B930B0895DB01AD
:102320008F939F930E947C11BF91AF91A29F800DCC
:10233000911DA39F900DB29F900D11240895991B9C
:1023400079E004C0991F961708F0961B881F7A95AC
:10235000C9F780950895AA1BBB1B51E107C0AA1FAE
:10236000BB1FA617B70710F0A61BB70B881F991F36
:102370005A95A9F780959095BC01CD010895A1E2E9
:102380001A2EAA1BBB1BFD010DC0AA1FBB1FEE1FEF
:10239000FF1FA217B307E407F50720F0A21BB30B3A
:1023A000E40BF50B661F771F881F991F1A9469F7B6
:1023B00060957095809590959B01AC01BD01CF0112
:1023C0000895052E97FB1EF400940E94F81157FD06
:1023D00007D00E94BF1107FC03D04EF40C94F811F3
:1023E00050954095309521953F4F4F4F5F4F089541
:1023F00090958095709561957F4F8F4F9F4F089571
:10240000EE0FFF1F0590F491E02D099412E0CAEF42
:10241000D2E004C0FE010E9402122296CC3FD107F6
:06242000C9F7F894FFCF9C
:102426000F00F4010400D007040100001F02800021
:10243600010100E1000000000000121415040C3E2A
:102446006733323E3E633332004C31362063646577
:10245600677265673400000000003102000000006A
:102466009B0B0000000031029C01B501CF01EA017F
:1024760007022602470269028E02B502DE020A033D
:1024860000000000F40E3710670FD50F1D10000076
:102496000000CF1037105F1083106C10CC10A61000
:00000001FF
