:100000000C947E010C94A6010C94A6010C94A601FC
:100010000C94A6010C94A6010C94A6010C94A601C4
:100020000C94A6010C94A6010C94920F0C94440E0F
:100030000C94A6010C94A6010C94A6010C94A601A4
:100040000C94A6010C94A6010C94A6010C94A60194
:100050000C94A6010C94A6010C94A6010C949B0987
:100060000C94A6010C94A6010C94A6010C94A60174
:100070000C94A6010C94A6010C94A6010C94A60164
:100080000C94A6010C94A6010C94A6010C94A60154
:100090000C94A6010C94A6010C94A6010C94A60144
:1000A0000C94A6010C942F090C94A601CA0BCD0B3D
:1000B000C00BC40BEE0BEE0BEE0BD10BD50BD90B1B
:1000C000DF0BE30BEE0BE90B0000000200080E0053
:1000D00000030401000B000000000000000000000D
:1000E00000000000000004080201104080401020C1
:1000F00040804080080204018040201002011080EE
:100100001020404004040404040304050202020217
:1001100004030202020206060606060604040202A0
:100120000204000000002300260029002C002F00FC
:1001300000000000250028002B002E0031000000E8
:100140000000240027002A002D00300000C180811B
:10015000C11201000202000040412336800001016B
:10016000020001120100020000004041233680001D
:10017000010102000118034100720064007500696A
:10018000006E006F0020004C004C00430022034131
:100190000072006400750069006E006F0020004C62
:1001A0000065006F006E006100720064006F000463
:1001B00003090400000000000000002A2B280000B2
:1001C000000000000000000000000000000000002F
:1001D0000000002C9EB4A0A1A2A434A6A7A5AE3610
:1001E0002D3738271E1F20212223242526B333B67E
:1001F0002EB7B89F8485868788898A8B8C8D8E8F51
:10020000909192939495969798999A9B9C9D2F3153
:1002100030A3AD350405060708090A0B0C0D0E0FB7
:10022000101112131415161718191A1B1C1DAFB133
:10023000B0B500090402000103000000092101011A
:100240000001226500070584034000010501090241
:10025000A1010901A1008501050919012903150062
:10026000250195037501810295017505810305013D
:100270000930093109381581257F750895038106F4
:10028000C0C005010906A1018502050719E029E79B
:1002900015002501750195088102950175088103F6
:1002A0009506750815002565050719002965810063
:1002B000C0080B0002020201000904000001020252
:1002C0000000052400100105240101010424020698
:1002D0000524060001070581031000400904010000
:1002E000020A000000070502024000000705830221
:1002F000400000001C0227115312340211241FBEBB
:10030000CFEFDAE0DEBFCDBF11E0A0E0B1E0E0E288
:10031000F6E202C005900D92AC38B107D9F712E0B1
:10032000ACE8B1E001C01D92A733B107E1F712E0DC
:10033000CAEFD2E004C02297FE010E94FF12C43F20
:10034000D107C9F70E94870C0C9403130C9400008A
:100350000F93CF93DF9300D000D01F92CDB7DEB7BD
:1003600085E0EAE1F1E0DE01119601900D928A95B7
:10037000E1F70BE020ED37E045E0BE016F5F7F4F16
:1003800084EA91E00E9418058FE191E00E948F09B4
:1003900089E291E00E948F090E9480098111FCCFBF
:1003A0000F900F900F900F900F90DF91CF910F91C2
:1003B000089520E041E06CE871E084EA91E00E9459
:1003C0007904805D97409C0197FF02C02D5F3F4FED
:1003D0003595279535952795409196015091970130
:1003E000BC01641B750BE6E0E69FA001E79F500D82
:1003F0001124240F351F909397018093960160E993
:1004000071E0621B730B20573E4F213981E03807A2
:1004100014F020E931E0613981E0780714F060E9F7
:1004200071E077FF02C060E070E0C90137FF02C0F1
:1004300080E090E00C94FA0584EA91E00E940805BF
:1004400080E491E09093A5018093A40121E041E034
:100450006EE088E991E00E9454058AE391E0909370
:1004600099018093980108958CE491E09093A501FF
:100470008093A40184EA91E00C942A056F927F9204
:100480008F929F92AF92BF92CF92DF92EF92FF92A4
:100490000F931F93CF93DF93EC018B018A859B858C
:1004A000892B09F474C0D12C8C85D816E8F4ED2C76
:1004B000F12C8E859F85F701EE0FFF1FE00FF11FD6
:1004C00091838083EA85FB85EE0DFF1D61E08081CD
:1004D0000E94280CEA85FB85EE0DFF1D61E08081FE
:1004E0000E94EF0BD394E0CF8AE090E00E942E0AA6
:1004F000D12C8C85D816A0F4ED2CF12CEA85FB8547
:10050000EE0DFF1D60E080810E94EF0BEA85FB8508
:10051000EE0DFF1D60E080810E94280CD394E9CF8E
:100520000E94E5096B017C010E94E5096C197D09B7
:100530008E099F092E853F854901A12CB12C681594
:1005400079058A059B0518F50E94E5093B016C18A1
:100550007D08912C8C85981638F7A92CB12CAA858A
:10056000BB85AA0DBB1D8C910E945E0C892B51F49A
:10057000F501EE0FFF1FE00FF11F808191816816DA
:10058000790610F09394E6CF71826082FBCFDF9101
:10059000CF911F910F91FF90EF90DF90CF90BF9080
:1005A000AF909F908F907F906F900895EF92FF9201
:1005B0000F931F93CF93DF931F92CDB7DEB77C01CC
:1005C0008B01DC0113961C921E92129715961C92B9
:1005D0001E92149717961C921E92169719961C92AB
:1005E0001E921897413120F080E11C968C9302C036
:1005F000FC014487D7011A968D919C911B97892BFA
:1006000011F030E00FC0F701848590E029830E944B
:100610008F0AD7011B969C938E931A972981892B59
:1006200081F715C0F7018485381780F4832F90E097
:10063000F801E80FF91F4081D7011A96ED91FC915E
:100640001B97E80FF91F40833F5FECCF25870F9082
:10065000DF91CF911F910F91FF90EF900895CF936D
:10066000DF93EC018D858F3F69F061E00E94EF0B15
:1006700060E08D850E94280C88EC90E0DF91CF919E
:100680000C942E0ADF91CF910895CF93DF93EC0164
:100690008D858F3F69F061E00E94EF0B61E08D85F1
:1006A0000E94280C88EC90E0DF91CF910C942E0AE8
:1006B000DF91CF910895DF92EF92FF920F931F93F6
:1006C000CF93DF93CDB7DEB7A0970FB6F894DEBF18
:1006D0000FBECDBF8C017B01D42E8FEF840F8230F3
:1006E00020F4C8010E94450303C0C8010E942F03E3
:1006F000D801ED91FC910190F081E02DB701C80186
:100700000995C8010E942F03B2E0DB122FC0D80167
:10071000ED91FC910190F081E02DBE016F5F7F4F64
:10072000C801099540E0F80184854817F8F4842F42
:1007300090E0880F991FF701E80FF91F21E030E0E2
:100740002C0F3D1F820F931FD8011E962D913C91B7
:100750001F97DC018D919C91281B390B8081918121
:10076000820F931F918380834F5FDDCFA0960FB6DA
:10077000F894DEBF0FBECDBFDF91CF911F910F91D7
:10078000FF90EF90DF900895BF92CF92DF92EF92AB
:10079000FF920F931F93CF93DF93EC018B01B42E45
:1007A000842F8D7F51F48E819F81892B09F497C00E
:1007B00088859985892B09F492C08FEF8B0D823043
:1007C00050F48A819B81892B09F489C08C819D8199
:1007D000892B09F484C04B2DB801CE010E945B0324
:1007E000780100E010E0C12CD12C8C8590E0C81677
:1007F000D9060CF074C081E0B8120AC0EC81FD810A
:10080000E00FF11F0190F081E02DAA81BB810DC0A6
:100810008E819F8128853985B1100CC0F901E00FC8
:10082000F11F0190F081E02DDC01A00FB11F8D912F
:100830009C9128C0FC01E00FF11F40815181EA81A9
:10084000FB81E00FF11F80819181EE85FF854817C4
:10085000590710F4CF0104C08E0F9F1F841B950B06
:10086000D901A00FB11F2D913C91AC81BD81A00F8A
:10087000B11F4D915C912417350720F0E40FF51F4F
:10088000E21BF30BE81BF90BA9F0D7012D913C916A
:1008900040E050E0281B390B41095109A8EEB3E0B4
:1008A0000E9479129F0140E050E00E94DE1237FD65
:1008B0000AC002C020E030E0293EB3E03B072CF044
:1008C00028EE33E002C020E030E0F70121933193BD
:1008D0007F01FFEFCF1ADF0A0E5F1F4F86CFDF9138
:1008E000CF911F910F91FF90EF90DF90CF90BF902D
:1008F00008952F923F924F925F926F927F928F92C4
:100900009F92AF92BF92CF92DF92EF92FF920F939E
:100910001F93CF93DF93EC018B01822E0E94C403BF
:100920002C84E801412C512C320100E010E0C12C54
:10093000D12C7601312C912CE8EEAE2EE3E0BE2EC8
:10094000921421F1E991F991882021F0C5018E1BC3
:100950009F0BFC01E93CF10524F4E333F10574F04D
:1009600002C033243394DF01A30192010E94841258
:10097000C60ED71EE81EF91E0E0F1F1F939498EE89
:10098000490E93E0591E611C711CDACF31101EC054
:10099000492D50E04150510924EF31E0429FC00100
:1009A000439F900D529F900D11242091B4013091DE
:1009B000B50128173907B4F088EE93E0489F9001FD
:1009C000499F300D589F300D11240EC0980140E012
:1009D00050E0C701B6010E94BC123093B5012093CC
:1009E000B40102C020E030E0C901DF91CF911F9136
:1009F0000F91FF90EF90DF90CF90BF90AF909F90BE
:100A00008F907F906F905F904F903F902F900895C0
:100A1000FC018CE491E09183808313821282158221
:100A20001482178216821186108613861286089504
:100A3000EF92FF920F93CF93DF93EC017901202F78
:100A40000E94D602FF86EE86DF91CF910F91FF9034
:100A5000EF900895CF93DF93EC0186E491E09983C2
:100A600088838A859B85009711F00E94270B8C81D3
:100A70009D81009711F00E94270B8885998500972A
:100A800011F00E94270B8A819B81009711F00E9430
:100A9000270B8E819F81009721F0DF91CF910C94DD
:100AA000270BDF91CF910895FC011282158282E518
:100AB00091E0918380831086618781E0411101C0BC
:100AC00080E0828781E0211101C080E08387089562
:100AD000FC018285882311F062E001C060E081851D
:100AE0000E94EF0B85E090E00C942E0ACF93DF93E9
:100AF000EC018885811105C081E08887CE010E94C4
:100B0000680589850E945E0C2B8530E041E08217E4
:100B1000930709F440E0842FDF91CF9108952E9838
:100B2000269A2D98259A2A98229A2998219A80EA1D
:100B30008093800081E18093810080E991E090932F
:100B4000870080938600109289001092880010928E
:100B50008B0010928A0008958091B601811105C022
:100B600081E08093B6010C948F050895CF93DF93B5
:100B7000EC010E94AC05D7FF05C0D195C195D10904
:100B800081E001C080E0C13991E0D90714F0C0E9EB
:100B9000D1E0D0938B00C0938A009091B80189175F
:100BA00011F02A9A01C02A98229ADF91CF910895D4
:100BB000CF93DF93EC010E94AC05D7FF05C0D19520
:100BC000C195D10981E001C080E0C13991E0D90728
:100BD00014F0C0E9D1E0D0938900C09388009091CF
:100BE000B701891711F0299A01C02998219ADF913C
:100BF000CF910895CF93DF93EB010E94B605CE010C
:100C0000DF91CF910C94D8059091BB01E091BF0189
:100C1000F091C001992311F0849101C080812FEBE4
:100C2000280F2A3110F4805E0895803249F49F0124
:100C30002F5F3F4F3093C0012093BF01EF2B31F75F
:100C400008951F93CF93DF930E940406C0E0D0E085
:100C50001AE090ED980F9A30B8F49E01129FE001CF
:100C6000139FD00D1124C80FD11D87FDDA95E09791
:100C70008091BF019091C00101969093C001809333
:100C8000BF010E940406E5CFCE01DF91CF911F91F5
:100C90000895109272001092C00084E08093C10009
:100CA00089E08093C20081E08093C300EFEBF0E025
:100CB00083E0808388EE8093D10010821092D2006E
:100CC000579A789408952F923F924F925F926F9225
:100CD0007F928F929F92AF92BF92CF92DF92EF92CC
:100CE000FF920F931F93CF93DF93CDB7DEB7279774
:100CF0000FB6F894DEBF0FBECDBF7C011B014D8344
:100D00008091C101811105C081E08093C1010E94E1
:100D1000490610920901F7FE04C0E894F7F81AE0BA
:100D200001C011E088E2189F802D1124282F30E0A7
:100D30003F832E832E153F0510F4FF82EE82113083
:100D400049F44E815F814131574220F0E0E1F7E202
:100D5000FF83EE83812E912CA12CB12C8E819F815B
:100D6000969587959C0140E050E029833A834B8318
:100D70005C834E815F812A01612C712CA501940155
:100D800060E072E18AE790E00E948C1229813A814A
:100D90004B815C81620F731F841F951FA301920119
:100DA0000E94DE1269017A01EE24FF2400E00F5F49
:100DB000C11434E0D306E104F10408F120E032E18B
:100DC0004AE750E0002E04C0559547953795279582
:100DD0000A94D2F7C501B4010E948C1229813A818C
:100DE0004B815C81620F731F841F951FA3019201C9
:100DF0000E94DE1269017A01EE24FF24D8CF1A3056
:100E000049F48E819F8105966AE070E00E94A812E5
:100E10007F836E834E815F81483E83E0580759F09F
:100E20009101DA010E946A1228EE33E040E050E0BE
:100E30000E94DE121901109272008091C100807F21
:100E4000802B8093C100BB27AF2D9E2D8D2D8093CD
:100E5000BF00C092D1002D81203108F02FE080E149
:100E600090E0821B910904C0F694E794D794C7944C
:100E70008A95D2F78D2D99278093BF00C092D2001A
:100E80003092BE012092BD0189B38FEF89BB84E00F
:100E90008093720027960FB6F894DEBF0FBECDBFC9
:100EA000DF91CF911F910F91FF90EF90DF90CF9046
:100EB000BF90AF909F908F907F906F905F904F907A
:100EC0003F902F900895CF93DF93EB018F3F11F068
:100ED000411105C040E0BE0188EE93E043C081317E
:100EE00030F050EF580F503618F05FE501C050E079
:100EF000852F6CE00E949C12682F74EF760390019E
:100F00001124250F311D2C30310540F4F901EE0F6D
:100F1000FF1FEC5AFE4F2081318102C020E030E0FB
:100F2000873081F0082E02C0220F331F0A94E2F7A7
:100F3000823028F0C90105966AE070E00CC0C90152
:100F400090580CC0C90136E0880F991F3A95E1F717
:100F5000029665E070E00E94A812CB01403108F0D3
:100F60004FE0BE01DF91CF910C9463064F925F92E8
:100F70006F927F928F929F92AF92BF92CF92DF92A9
:100F8000EF92FF920F931F93CF93DF9300D0CDB7D3
:100F9000DEB7909008018091BA01882321F060911A
:100FA000B901611117C077247394B0ECAB2EBDE585
:100FB000BB2E1AE0612E04E0802E80EDC82E87E063
:100FC000D82E94E0E92EF12C04EF11E02FE0422E10
:100FD000512C15C070E040E088EE93E00E9463065B
:100FE0001092B90129C18636D4F5813609F4A9C019
:100FF0007CF58C3309F460C08E3381F493940E94A5
:1010000004062091BF013091C0012F5F3F4F309304
:10101000C0012093BF01853631F752C0813209F0FB
:101020008BC080920801D0920701C0920601F09215
:101030000501E09204011093030100930201509214
:101040000101409200011092BA01A4E09A2ED7CF7C
:101050008336A1F10CF478C010E082E077C08D36C1
:10106000C1F194F4873691F174F18C3609F064C0C3
:101070000E942106BC019093050180930401809198
:1010800006019091070151C08237C9F14CF48F36A7
:1010900009F052C00E942106982E80930801AFCF1C
:1010A000843781F1863709F047C00E94210690936A
:1010B000010180930001A3CF9A94A1CF10E020C03A
:1010C00010E084E043C010E085E040C010E087E01D
:1010D0003DC00E9404068C3619F41092BA0104C077
:1010E0007092BA011092B9012091BF013091C001F4
:1010F0002F5F3F4F3093C0012093BF0180CF11E09D
:1011000080E024C00E942106BC01C5010E94A812F3
:10111000669EC001679E900D1124909307018093F5
:10112000060160910401709105010E94A81270935C
:1011300003016093020163CF1092C0011092BF01BE
:101140007BC010E089E002C010E08BE0082F9CE03B
:10115000999E000D11240E940406982F977F9332C8
:1011600061F42091BF013091C0012F5F3F4F309358
:10117000C0012093BF010F5FEECF8D3271F420913B
:10118000BF013091C0012F5F3F4F3093C0012093CA
:10119000BF0101500E940406F0CF609102017091DE
:1011A00003018153883050F4E0900601F09007016C
:1011B0000E942106BC01C7010E94A8127B01F6947F
:1011C000E79469837A830E94040669817A818E326A
:1011D00069F42091BF013091C0012F5F3F4F3093E0
:1011E000C0012093BF016E0D7F1DE9CF8091BA0130
:1011F000882339F09B01369527952093B901621B0E
:10120000710940910001112311F08FEF01C0802F6F
:101210000F900F90DF91CF911F910F91FF90EF9062
:10122000DF90CF90BF90AF909F908F907F906F9006
:101230005F904F900C9463070F900F90DF91CF91C8
:101240001F910F91FF90EF90DF90CF90BF90AF90E4
:101250009F908F907F906F905F904F9008951F9216
:101260000F920FB60F9211242F933F934F935F93DA
:101270006F937F938F939F93AF93BF93EF93FF935E
:101280008091BD019091BE019C01215031093093A4
:10129000BE012093BD01892B11F510927200789444
:1012A0008091C100807F84608093C10083E080933F
:1012B000BF0088EE8093D1001092BF001092D20040
:1012C00081E0809309018091BF019091C001892B39
:1012D00031F08091BC01811102C00E94B607FF91DC
:1012E000EF91BF91AF919F918F917F916F915F919E
:1012F0004F913F912F910F900FBE0F901F90189517
:1013000080910901882349F081E02091BF0130914B
:10131000C001232B19F480E0089581E00895109214
:1013200072009093C0018093BF011092BB01109294
:10133000B9010C94B6071F920F920FB60F921124A9
:101340002F933F938F939F93AF93BF938091C3014C
:101350009091C401A091C501B091C6013091C20124
:1013600023E0230F2D3720F40196A11DB11D05C0E8
:1013700026E8230F0296A11DB11D2093C201809380
:10138000C3019093C401A093C501B093C60180919D
:10139000C7019091C801A091C901B091CA010196FD
:1013A000A11DB11D8093C7019093C801A093C901ED
:1013B000B093CA01BF91AF919F918F913F912F91AF
:1013C0000F900FBE0F901F9018953FB7F894809123
:1013D000C7019091C801A091C901B091CA0126B579
:1013E000A89B05C02F3F19F00196A11DB11D3FBF5D
:1013F0006627782F892F9A2F620F711D811D911DED
:1014000042E0660F771F881F991F4A95D1F708950C
:10141000CF92DF92EF92FF92CF93DF936B017C012B
:101420000E94E509EB01C114D104E104F10479F053
:101430000E94E5096C1B7D0B683E7340A0F381E0C0
:10144000C81AD108E108F108C851DC4FECCFDF9190
:10145000CF91FF90EF90DF90CF9008950197009784
:1014600039F0880F991F880F991F02970197F1F79C
:101470000895789484B5826084BD84B5816084BD0C
:1014800085B5826085BD85B5816085BDEEE6F0E0FD
:10149000808181608083E1E8F0E010828081826059
:1014A0008083808181608083E0E8F0E080818160DA
:1014B0008083E1E9F0E080818260808380818160C7
:1014C0008083E0E9F0E0808181608083E1ECF0E0FE
:1014D000808184608083808182608083808181605C
:1014E0008083E3ECF0E0808181608083E0ECF0E0D9
:1014F000808182608083E2ECF0E080818160808383
:10150000EAE7F0E08081846080838081826080836C
:101510008081816080838081806880830895CF93FB
:10152000DF938230910510F482E090E0E091350283
:10153000F091360220E030E0A0E0B0E0309739F1E1
:101540004081518148175907B8F04817590771F47D
:1015500082819381109729F013969C938E93129712
:101560002CC0909336028093350227C02115310597
:1015700031F04217530718F0A901DB0101C0EF0158
:101580009A01BD01DF010280F381E02DD7CF211543
:101590003105F9F0281B390B2430310580F48A819C
:1015A0009B816115710521F0FB019383828304C047
:1015B0009093360280933502FE01329644C0FE01BC
:1015C000E20FF31F819391932250310939832883CD
:1015D0003AC02091330230913402232B41F4209100
:1015E0000C0130910D01309334022093330220918D
:1015F0000A0130910B012115310541F42DB73EB799
:1016000040910E0150910F01241B350BE0913302E4
:10161000F0913402E217F307A0F42E1B3F0B2817BA
:10162000390778F0AC014E5F5F4F2417350748F05B
:101630004E0F5F1F50933402409333028193919376
:1016400002C0E0E0F0E0CF01DF91CF910895CF93A9
:10165000DF93009709F487C0FC013297138212824E
:10166000C0913502D0913602209781F420813181DA
:10167000280F391F8091330290913402821793070B
:1016800079F5F0933402E09333026DC0DE0120E07F
:1016900030E0AE17BF0750F412964D915C9113974E
:1016A0009D014115510509F1DA01F3CFB383A283FE
:1016B00040815181840F951F8A179B0771F48D918A
:1016C0009C911197840F951F0296918380831296A7
:1016D0008D919C911397938382832115310529F471
:1016E000F0933602E09335023EC0D9011396FC9385
:1016F000EE9312974D915D91A40FB51FEA17FB076A
:1017000079F480819181840F951F0296D9011196F9
:101710009C938E938281938113969C938E931297C0
:10172000E0E0F0E08A819B81009719F0FE01EC0176
:10173000F9CFCE01029628813981820F931F209123
:101740003302309134022817390769F4309729F4AD
:10175000109236021092350202C013821282D09388
:101760003402C0933302DF91CF91089590E0FC01E1
:101770003197EE30F10590F5EA5AFF4F0C94FD12C7
:10178000809180008F7703C0809180008F7D80934F
:101790008000089584B58F7702C084B58F7D84BDA5
:1017A0000895809190008F7707C0809190008F7D81
:1017B00003C080919000877F80939000089580916E
:1017C000C0008F7703C08091C0008F7D8093C000E0
:1017D00008958091C200877F8093C2000895CF93BF
:1017E000DF9390E0FC01EA51FF4F2491FC01EC5F94
:1017F000FE4F8491882349F190E0880F991FFC01E6
:10180000E25CFE4FA591B491805D9E4FFC01C591B5
:10181000D4919FB7611108C0F8948C9120958223D0
:101820008C93888182230AC0623051F4F8948C91A1
:10183000322F309583238C938881822B888304C038
:10184000F8948C91822B8C939FBFDF91CF91089558
:101850000F931F93CF93DF931F92CDB7DEB7282F3F
:1018600030E0F901E853FF4F8491F901EA51FF4F4D
:101870001491F901EC5FFE4F04910023C9F0882315
:1018800021F069830E94B60B6981E02FF0E0EE0F32
:10189000FF1FE05DFE4FA591B4919FB7F8948C9126
:1018A000611103C01095812301C0812B8C939FBFD0
:1018B0000F90DF91CF911F910F910895CF93DF93F8
:1018C000282F30E0F901E853FF4F8491F901EA51E4
:1018D000FF4FD491F901EC5FFE4FC491CC2391F0FE
:1018E00081110E94B60BEC2FF0E0EE0FFF1FEE5DB2
:1018F000FE4FA591B4912C912D2381E090E021F42D
:1019000080E002C080E090E0DF91CF9108950E94D6
:10191000390A8BEC91E00E94740F0E94A801C0E08C
:10192000D0E00E94D9012097E1F30E940000F9CF96
:101930000895615030F02091F100FC012083019660
:10194000F8CF289884E68093D20108952FB7FC0140
:101950002083F89467706093E9000895CF93DF9334
:101960001F92CDB7DEB7682FCE0101960E94A60C5C
:101970008091F20099819FBF0F90DF91CF910895E0
:10198000FF920F931F93CF93DF9300D0CDB7DEB7B5
:10199000F62E8A019091D101992311F057FF03C0CF
:1019A0008FEF9FEF2BC0682FCE0101967A830E94A4
:1019B000A60C8091F20090E0A8017A81801791072F
:1019C0000CF4AC01EF2DF72FF40E84E6FE1639F07F
:1019D00028988093D2019091F1009193F7CF41150F
:1019E000510521F08091F200882321F089818FBF79
:1019F000CA0104C08BE68093E800F8CF0F900F90E7
:101A0000DF91CF911F910F91FF900895CF93DF93B6
:101A10001F92CDB7DEB741E050E0BE016F5F7F4F50
:101A20000E94C00C019719F4898190E002C08FEFE9
:101A30009FEF0F90DF91CF910895CF93DF931F9287
:101A4000CDB7DEB7682FCE0101960E94A60C90910B
:101A5000E800892F807295FF04C09091F20080E425
:101A6000891B99819FBF0F90DF91CF9108954F926D
:101A70005F926F927F928F929F92AF92BF92CF921E
:101A8000DF92EF92FF920F931F93CF93DF931F92FA
:101A9000CDB7DEB7582E7B01A42E952E8091D101B3
:101AA000882369F0042F152F8AEFB82E852D8072B8
:101AB000782E9AE3892E852D8074682E11C08FEFC1
:101AC0009FEF53C0852D0E941D0D482E81110CC023
:101AD000BA94A9F361E070E080E090E00E94080A07
:101AE0000115110579F737C0282F30E002171307C9
:101AF0000CF4402EC42CD12C0C191D09652DCE01DF
:101B000001960E94A60C772039F04A948FEF481670
:101B1000B1F01092F100F9CFF701842D57FE07C004
:101B2000815058F094919093F1003196F9CF815003
:101B300020F091919093F100FACFEC0CFD1C809174
:101B4000E80085FF0FC00115110511F461100AC0EE
:101B500089818FBFC5CF5D9884E68093D3018A2D9C
:101B6000992D03C08092E800F3CF0F90DF91CF91C1
:101B70001F910F91FF90EF90DF90CF90BF90AF90AB
:101B80009F908F907F906F905F904F9008951092EC
:101B9000E9001092D0011092CF019093CE01809372
:101BA000CD010895CF93DF93FB0120E030E0DEEF1D
:101BB00024173507A1F187FF02C0C49101C0C0817D
:101BC000A091CF01B091D0016091CD017091CE0173
:101BD000A617B707B4F49091E8009570E1F39091DF
:101BE000E80092FD1EC0C093F1006091CF0170919A
:101BF000D0016F5F7F4F6F737727672B11F4D093FE
:101C0000E8006091CF017091D0016F5F7F4F7093BA
:101C1000D0016093CF012F5F3F4F3196C9CFC901EB
:101C200002C08FEF9FEFDF91CF9108951F93CF9365
:101C3000DF931F92CDB7DEB7162F2091E80022FF69
:101C4000FCCF612F79830E94990C8BEF8093E80081
:101C5000812F7981972F0F90DF91CF911F91089558
:101C6000CF93DF931F92CDB7DEB71982CE010196D5
:101C70000E94F111CE0101960E940F10898190E01F
:101C80000F90DF91CF9108951F920F920FB60F9290
:101C90001124EF92FF920F931F932F933F934F9333
:101CA0005F936F937F938F939F93AF93BF93EF93C4
:101CB000FF93CF93DF93CDB7DEB76297DEBFCDBF83
:101CC0001092E9008091E80083FFE7C068E0CE0150
:101CD0000A960E94990C82EF8093E8009A8597FFFC
:101CE00005C08091E80080FFFCCF03C08EEF809399
:101CF000E800892F807609F0B5C08B85811105C079
:101D00001092F1001092F100C1C0282F2D7F2130D8
:101D100009F4BCC0853049F48091E80080FFFCCF15
:101D20008C8580688093E300B1C0863009F072C072
:101D30002D85E888F988223071F580E090E02A8BC3
:101D40000E94C70D0E94300E99E08E010F5F1F4F59
:101D5000F801392F11923A95E9F799832A892A8354
:101D600091E09E8390E898879AEF99872091CF0120
:101D70003091D001275F3F4F3C832B838D83C70178
:101D80000E94C70D49E050E0B80180E00E94D20DEA
:101D90000E94300E7BC0C7012A8B0E94C70D2A8982
:101DA000223241F482E290E00E941A10892B09F05D
:101DB0006DC070C0213069F488899989089711F441
:101DC0002093CC018091CC01882389F061E571E0FA
:101DD00016C0233009F05EC08C85882359F082300C
:101DE00061F0813009F056C065E771E008C063E634
:101DF00071E005C06FEA71E002C06DE871E0611545
:101E0000710509F447C0FB01449150E080E80E944D
:101E1000D20D3CC0873009F43DC0883021F481E008
:101E20008093F10033C0893089F5937099F5EDE422
:101E3000F1E081E021E096E38093E9002093EB005C
:101E400034913093EC009093ED008F5F31968530A4
:101E500099F78EE78093EA001092EA008C858093D0
:101E6000D10114C0888999890E94C70D8E8581117E
:101E700005C0CE010A960E94FC1106C0823051F4C2
:101E8000CE010A960E944210882321F08EEF8093A3
:101E9000E80003C081E28093EB0062960FB6F894ED
:101EA000DEBF0FBECDBFDF91CF91FF91EF91BF910C
:101EB000AF919F918F917F916F915F914F913F91E2
:101EC0002F911F910F91FF90EF900F900FBE0F90E9
:101ED0001F9018958093E9008091F200882319F0F3
:101EE0008AE38093E80008951092D10181E0809305
:101EF000D70080EA8093D80082E189BD09B400FE52
:101F0000FDCF61E070E080E090E00E94080A80E987
:101F10008093D8008CE08093E2001092E000559A04
:101F2000209A08951F920F920FB60F9211242F93AB
:101F30003F934F935F936F937F938F939F93AF9351
:101F4000BF93EF93FF938091E1001092E10083FF34
:101F50000FC01092E90091E09093EB001092EC001A
:101F600092E39093ED001092D10198E09093F000ED
:101F700082FF26C083E00E946A0F82E00E94AE0CBE
:101F8000882321F081EE91E00E94A3118091D3017A
:101F9000882339F08091D30181508093D301882325
:101FA00069F08091D201882359F08091D20181504B
:101FB0008093D201811104C0289A02C05D9AF1CFAA
:101FC000FF91EF91BF91AF919F918F917F916F9111
:101FD0005F914F913F912F910F900FBE0F901F90E7
:101FE0001895FF920F931F93CF93DF93EC01F62E7A
:101FF000E881F9810480F581E02D09958C01E88163
:10200000F9810680F781E02D6F2DCE010995C80179
:102010009927DF91CF911F910F91FF900895FC01B7
:1020200020812F5F208349E150E063E372E080E884
:102030000C94D20D45E650E06CE472E080E80C941C
:10204000D20DEF92FF920F931F93CF93DF931F92C6
:10205000CDB7DEB789838B017A0141E050E0BE0144
:102060006F5F7F4F84E00E94370DA701B80184E4C1
:102070000E94370D0F90DF91CF911F910F91FF902C
:10208000EF900895FC0191818081813A31F481E0E3
:10209000913091F0933089F411C0813271F49B300A
:1020A00021F482818093110105C09A3031F482813C
:1020B0008093100181E00895089580E0089548E03C
:1020C00050E082E00C942110CF93DF93DC0168385C
:1020D00018F0E8E7E60F25C0E62FF0E067FF11C033
:1020E000E058F10981E090E001C0880FEA95EAF735
:1020F00014969C911497982B14969C931497E0E057
:1021000010C0ED54FE4FE491EE2309F440C0E7FF08
:1021100008C014968C911497826014968C9314972F
:10212000EF7716968C9116978E1741F117968C9132
:1021300017978E1719F118968C9118978E17F1F042
:1021400019968C9119978E17C9F01A968C911A9737
:102150008E17A1F01B968C911B978E1779F080E05B
:1021600090E0ED01C80FD91F2E81211102C0EE832E
:1021700005C0019686309105A1F709C0BD016C5FCD
:102180007F4FCD010E945F1081E090E008C081E0A8
:1021900090E013969C938E93129780E090E0DF91ED
:1021A000CF910895683818F0E8E7E60F25C0E62FCC
:1021B000F0E067FF12C0E058F10921E030E001C013
:1021C000220FEA95EAF72095DC0114963C911497CA
:1021D000322314963C93E0E00FC0ED54FE4FE4919F
:1021E000EE2329F1E7FF08C0DC0114962C91149727
:1021F0002D7F14962C93EF7720E030E0EE2351F002
:10220000DC01A20FB31F16964C9116974E1302C015
:1022100016961C922F5F3F4F2630310579F7BC018F
:102220006C5F7F4F0E945F1081E090E0089580E036
:1022300090E00895FC01168217821086118612869E
:1022400013861482BC016C5F7F4F0C945F10109258
:10225000E0011092D7011092D60180E791E09093AF
:10226000D5018093D4010895CF92DF92EF92FF922F
:102270000F931F93CF93DF936C017A01EB01E60E6E
:10228000F71E00E010E0CE15DF0561F06991D60180
:10229000ED91FC910190F081E02DC6010995080FA8
:1022A000191FF1CFC801DF91CF911F910F91FF90BE
:1022B000EF90DF90CF90089580912F02909130029F
:1022C0002091310230913202821B930B8F73992738
:1022D000089520912F023091300280913102909127
:1022E00032022817390749F0E0913102F0913202A9
:1022F000E151FE4F808190E008958FEF9FEF0895A8
:1023000020912F023091300280913102909132025F
:1023100028173907A9F0E0913102F0913202E1511A
:10232000FE4F808120913102309132022F5F3F4F6A
:102330002F733327309332022093310290E00895B7
:102340008FEF9FEF0895CF93DF93C0912F02D0912D
:1023500030022196CF73DD278091310290913202B5
:10236000C817D90799F082E00E94060D8F3F2FEF22
:10237000920761F0E0912F02F0913002E151FE4F9F
:102380008083D0933002C0932F02DFCFDF91CF91B3
:10239000089583E00C946A0F0F931F93CF93DF93FC
:1023A0001F92CDB7DEB78C01698380911901882314
:1023B00059F041E050E0BE016F5F7F4F83E00E9423
:1023C000370D181619063CF081E090E0F801938370
:1023D000828380E090E00F90DF91CF911F910F9169
:1023E0000895FC0120812E5F208342E450E061EBE0
:1023F00072E080E80C94D20DFC0181819081913AC9
:1024000059F4813209F04BC047E050E062E171E0DD
:1024100080E00E94D20D45C0913209F040C0803268
:1024200039F467E070E082E191E00E94160E39C055
:10243000823209F034C082818093190180911201A7
:1024400090911301A0911401B0911501803B94402B
:10245000A105B10531F58091190180FD12C087E712
:1024600097E790930108809300082BE088E190E0C3
:102470000FB6F894A895809360000FBE209360007B
:1024800010C088E10FB6F89480936000109260004D
:102490000FBEA895109201081092000802C080E0BB
:1024A000089581E008951092E4011092E30188EE0E
:1024B00093E0A0E0B0E08093E5019093E601A09363
:1024C000E701B093E8018EE791E09093E2018093F9
:1024D000E1010895A29FB001B39FC001A39F700DB9
:1024E000811D1124911DB29F700D811D1124911D1C
:1024F00008950E946A12A59F900DB49F900DA49F0D
:10250000800D911D11240895B7FF0C9479120E943B
:102510007912821B930B0895DB018F939F930E9486
:102520007912BF91AF91A29F800D911DA39F900D35
:10253000B29F900D11240895991B79E004C0991F52
:10254000961708F0961B881F7A95C9F7809508950D
:10255000AA1BBB1B51E107C0AA1FBB1FA617B707C9
:1025600010F0A61BB70B881F991F5A95A9F78095E5
:102570009095BC01CD010895A1E21A2EAA1BBB1BA8
:10258000FD010DC0AA1FBB1FEE1FFF1FA217B3073F
:10259000E407F50720F0A21BB30BE40BF50B661F55
:1025A000771F881F991F1A9469F760957095809519
:1025B00090959B01AC01BD01CF010895052E97FBBD
:1025C0001EF400940E94F51257FD07D00E94BC1221
:1025D00007FC03D04EF40C94F512509540953095BD
:1025E00021953F4F4F4F5F4F08959095809570957F
:1025F00061957F4F8F4F9F4F0895EE0FFF1F0590FE
:10260000F491E02D099412E0CAEFD2E004C0FE017B
:102610000E94FF122296CC3FD107C9F7F894FFCF52
:102620000F00F4010400D00704010000370280000D
:10263000010100E1000000000000121415040C3E2E
:102640006733323E3E633332004C3136206364657B
:102650006772656734000000000076050000000026
:102660003E0200000000980C000000003E02000046
:10267000000076059C01B501CF01EA0107022602A0
:10268000470269028E02B502DE020A030000000062
:10269000F10F34116410D2101A1100000000CC1197
:0C26A00034115C1180116911C911A311E3
:00000001FF
