:100000000C947D010C94A5010C94A5010C94A50100
:100010000C94A5010C94A5010C94A5010C94A501C8
:100020000C94A5010C94A5010C94EC090C949E0869
:100030000C94A5010C94A5010C94A5010C94A501A8
:100040000C94A5010C94A5010C94A5010C94A50198
:100050000C94A5010C94A5010C94A5010C943404F6
:100060000C94A5010C94A5010C94A5010C94A50178
:100070000C94A5010C94A5010C94A5010C94A50168
:100080000C94A5010C94A5010C94A5010C94A50158
:100090000C94A5010C94A5010C94A5010C94A50148
:1000A0000C94A5010C94A5010C94A5012506280625
:1000B0001B061F064906490649062C06300634066B
:1000C0003A063E06490644060000000200080E00FB
:1000D00000030401000B000000000000000000000D
:1000E00000000000000004080201104080401020C1
:1000F00040804080080204018040201002011080EE
:100100001020404004040404040304050202020217
:1001100004030202020206060606060604040202A0
:100120000204000000002300260029002C002F00FC
:1001300000000000250028002B002E0031000000E8
:100140000000240027002A002D00300000C180811B
:10015000C11201000202000040412336800001016B
:10016000020001120100020000004041233680001D
:10017000010102000118034100720064007500696A
:10018000006E006F0020004C004C00430022034131
:100190000072006400750069006E006F0020004C62
:1001A0000065006F006E006100720064006F000463
:1001B00003090400000000000000002A2B280000B2
:1001C000000000000000000000000000000000002F
:1001D0000000002C9EB4A0A1A2A434A6A7A5AE3610
:1001E0002D3738271E1F20212223242526B333B67E
:1001F0002EB7B89F8485868788898A8B8C8D8E8F51
:10020000909192939495969798999A9B9C9D2F3153
:1002100030A3AD350405060708090A0B0C0D0E0FB7
:10022000101112131415161718191A1B1C1DAFB133
:10023000B0B500090402000103000000092101011A
:100240000001226500070584034000010501090241
:10025000A1010901A1008501050919012903150062
:10026000250195037501810295017505810305013D
:100270000930093109381581257F750895038106F4
:10028000C0C005010906A1018502050719E029E79B
:1002900015002501750195088102950175088103F6
:1002A0009506750815002565050719002965810063
:1002B000C0080B0002020201000904000001020252
:1002C0000000052400100105240101010424020698
:1002D0000524060001070581031000400904010000
:1002E000020A000000070502024000000705830221
:1002F00040000000DB01810BD40D11241FBECFEFA5
:10030000DAE0DEBFCDBF11E0A0E0B1E0E8EFFBE155
:1003100002C005900D92AC33B107D9F711E0ACE300
:10032000B1E001C01D92A13CB107E1F712E0CAEFB4
:10033000D2E004C02297FE010E94ED0DC43FD10718
:10034000C9F70E94E2060C94FA0D0C940000CF93BA
:10035000DF9300D01F92CDB7DEB784E1898386E1B9
:100360008A8384E08B832BE043E0BE016F5F7F4F85
:100370008CE391E00E946A020F900F900F90DF9142
:10038000CF9108958CE391E00E94330366E18CE302
:1003900091E00E94D703682F8CE391E00E94C6038E
:1003A00060E971E0863018F080E79EEF02C080E9D6
:1003B00091E00C944A028CE391E00C9454022E9844
:1003C000269A2D98259A2A98229A2998219A80EA85
:1003D0008093800081E18093810080E991E0909397
:1003E00087008093860010928900109288001092F6
:1003F0008B0010928A00089580914901811105C0F7
:1004000081E0809349010C94DF010895CF93DF933D
:10041000EC010E94FC01D7FF05C0D195C195D1091F
:1004200081E001C080E0C13991E0D90714F0C0E952
:10043000D1E0D0938B00C0938A0090914B01891733
:1004400011F02A9A01C02A98229ADF91CF9108953B
:10045000CF93DF93EC010E94FC01D7FF05C0D1953B
:10046000C195D10981E001C080E0C13991E0D9078F
:1004700014F0C0E9D1E0D0938900C0938800909136
:100480004A01891711F0299A01C02998219ADF9110
:10049000CF910895CF93DF93EB010E940602CE0126
:1004A000DF91CF910C942802FC01118210821282FC
:1004B0008FEF838315821482168285EA91E09287FA
:1004C000818782E492E09487838784EA91E0908731
:1004D00087830895EF92FF920F931F93CF93DF933B
:1004E0001F92CDB7DEB77C01162F072FFC012383A7
:1004F000F3E04F9FB0011124FC0180819181498379
:100500000E94280549810097C1F0F70191838083FB
:100510004283312F612F702F80E090E0262F231B24
:10052000241758F4FB012191BF01F701A081B1818B
:10053000A80FB91F2C930396F1CF0F90DF91CF91A5
:100540001F910F91FF90EF900895BF92CF92DF928D
:10055000EF92FF920F931F93CF93DF938C016B0168
:10056000B42EC42FD0E0CC0FDD1FBE01F801848172
:1005700095810E9428057C01009741F0AE01B601EB
:100580000E94F10DF801F582E482B682DF91CF91ED
:100590001F910F91FF90EF90DF90CF90BF90089543
:1005A0001F93CF93DF93EC0110E08A81181778F442
:1005B000E881F98183E0189FE00DF11D112480810D
:1005C0008E3118F462E00E944A061F5FEECFDF9181
:1005D000CF911F910895CF93DF93EC018B818E31E2
:1005E00068F460E00E94830661E08B810E944A0605
:1005F0008B859C85DF91CF910C94C704DF91CF91BF
:1006000008950F931F93CF93DF93CDB7DEB72C9749
:100610000FB6F894DEBF0FBECDBF8C010E94D00292
:10062000C8010E94EB02F80184819581892B81F435
:100630008CE0E0E1F1E0DE01119601900D928A95E7
:10064000E1F746E0BE016F5F7F4FC8010E94A5023F
:100650002C960FB6F894DEBF0FBECDBFDF91CF91C1
:100660001F910F910895CF92DF92EF92FF920F9317
:100670001F93CF93DF93EC010E94010320E08A8156
:10068000281780F433E0239FC0011124E881F98109
:10069000E80FF91F1282E881F981E80FF91F118232
:1006A0002F5FEDCFF12C8E81F81608F066C09C818B
:1006B0008D81E92FF82FEF0DF11DEF0DF11D008158
:1006C00011814F815885B80180E090E00E94EE03CF
:1006D00089859A850E94C704E12C8A81E816C0F4B6
:1006E00083E0E89E60011124E881F981EC0DFD1D95
:1006F00080818E3158F40E94B906892B39F4E88143
:10070000F981EC0DFD1D81818F5F8183E394E5CF3D
:100710000E941A048B859C850E94C7044F815885CE
:10072000B80181E090E00E94EE0389859A850E94DD
:10073000C704D12C8A81D816C0F433E0D39E80013F
:100740001124E881F981E00FF11F80818E3158F486
:100750000E94B906892B39F4E881F981E00FF11F75
:1007600082818F5F8283D394E5CF0E941A048B85A8
:100770009C850E94C704F39496CFDF91CF911F917F
:100780000F91FF90EF90DF90CF900895DC011296CB
:100790002C911297621748F4ED91FC91B3E06B9F96
:1007A000E00DF11D11248281089580E00895DC019F
:1007B00012969C91129720E030E080E0891761F05A
:1007C000ED91FC911197E20FF31F40812D5F3F4F98
:1007D000461719F08F5FF2CF8FEF089510927100D6
:1007E0009B014617570708F49A0146983E9860E81F
:1007F0006093900010929100609392003E9A892B32
:1008000011F08E9A01C08E98869A5093970040936B
:1008100096004150510950939500409394003093B5
:1008200099002093980082E88093900089E180935A
:100830009100089546983E9AE0E9F0E082E08083D6
:1008400010929100109271001082109299001092F3
:1008500098001092970010929600109295001092B6
:10086000940086988E9808951F920F920FB60F925B
:1008700011242F933F938F939F93AF93BF938091B6
:100880004D0190914E01A0914F01B09150013091D6
:100890004C0123E0230F2D3720F40196A11DB11D3B
:1008A00005C026E8230F0296A11DB11D20934C011F
:1008B00080934D0190934E01A0934F01B09350014E
:1008C0008091510190915201A0915301B091540136
:1008D0000196A11DB11D8093510190935201A093E7
:1008E0005301B0935401BF91AF919F918F913F916C
:1008F0002F910F900FBE0F901F9018953FB7F8944F
:100900008091510190915201A0915301B0915401F5
:1009100026B5A89B05C02F3F19F00196A11DB11D5A
:100920003FBF6627782F892F9A2F620F711D811D77
:10093000911D42E0660F771F881F991F4A95D1F7D6
:100940000895CF92DF92EF92FF92CF93DF936B01E6
:100950007C010E947E04EB01C114D104E104F10486
:1009600079F00E947E046C1B7D0B683E7340A0F3FF
:1009700081E0C81AD108E108F108C851DC4FECCF7A
:10098000DF91CF91FF90EF90DF90CF900895019786
:10099000009739F0880F991F880F991F02970197C8
:1009A000F1F70895789484B5826084BD84B5816040
:1009B00084BD85B5826085BD85B5816085BDEEE667
:1009C000F0E0808181608083E1E8F0E01082808146
:1009D00082608083808181608083E0E8F0E08081B4
:1009E00081608083E1E9F0E08081826080838081A2
:1009F00081608083E0E9F0E0808181608083E1ECC8
:100A0000F0E0808184608083808182608083808147
:100A100081608083E3ECF0E0808181608083E0ECA2
:100A2000F0E0808182608083E2ECF0E08081816090
:100A30008083EAE7F0E08081846080838081826047
:100A40008083808181608083808180688083089535
:100A50006F927F928F929F92AF92BF92CF92DF92CE
:100A6000EF92FF920F931F93CF93DF93EC01CB0193
:100A7000209781F4DF91CF911F910F91FF90EF901C
:100A8000DF90CF90BF90AF909F908F907F906F90AE
:100A90000C948E0BFE01E60FF71F9E0122503109C8
:100AA000E217F30708F4ACC0D9010D911C9111971E
:100AB00006171707B8F00530110508F49FC0A80104
:100AC000445051094617570708F498C002501109BD
:100AD000061B170B019311936D937C93CF010E941A
:100AE000260C8CC05B01A01AB10A4E01800E911E2B
:100AF000A091BF01B091C001612C712C60E070E049
:100B0000109709F449C0A815B905C9F5ED90FC90F6
:100B10001197670142E0C40ED11CCA14DB0478F1BE
:100B200047018A189B08640142E0C40ED11C12964A
:100B3000BC9012971396AC91B5E0CB16D10440F05F
:100B4000B282A38391828082D9018D939C9309C044
:100B50000E5F1F4F0E0D1F1DF90111830083EB2D3A
:100B6000FA2F6115710531F0DB011396FC93EE93BA
:100B7000129744C0F093C001E093BF013FC06D9154
:100B80007C9111976616770608F43B01BD01129619
:100B90000D90BC91A02DB4CF6091BD017091BE01AC
:100BA00068157905E9F468167906D0F440910201D8
:100BB000509103014115510541F44DB75EB7609165
:100BC000060170910701461B570BE417F507C0F4A7
:100BD000F093BE01E093BD01F901918380830EC0C3
:100BE0000E948E0B7C01009759F0A801BE010E9463
:100BF000F10DCE010E94260CC70104C0CE0102C037
:100C000080E090E0DF91CF911F910F91FF90EF90E6
:100C1000DF90CF90BF90AF909F908F907F906F901C
:100C2000089590E0FC013197EE30F10590F5EA5A15
:100C3000FF4F0C94EB0D809180008F7703C0809163
:100C400080008F7D80938000089584B58F7702C0E7
:100C500084B58F7D84BD0895809190008F7707C003
:100C6000809190008F7D03C080919000877F80935A
:100C7000900008958091C0008F7703C08091C000DC
:100C80008F7D8093C00008958091C200877F8093FC
:100C9000C2000895CF93DF9390E0FC01EA51FF4F2B
:100CA0002491FC01EC5FFE4F8491882349F190E090
:100CB000880F991FFC01E25CFE4FA591B491805D05
:100CC0009E4FFC01C591D4919FB7611108C0F89463
:100CD0008C91209582238C93888182230AC0623074
:100CE00051F4F8948C91322F309583238C93888122
:100CF000822B888304C0F8948C91822B8C939FBFA5
:100D0000DF91CF9108950F931F93CF93DF931F929D
:100D1000CDB7DEB7282F30E0F901E853FF4F8491BB
:100D2000F901EA51FF4F1491F901EC5FFE4F049174
:100D30000023C9F0882321F069830E94110669818C
:100D4000E02FF0E0EE0FFF1FE05DFE4FA591B491A4
:100D50009FB7F8948C91611103C01095812301C055
:100D6000812B8C939FBF0F90DF91CF911F910F919B
:100D70000895CF93DF93282F30E0F901E853FF4F18
:100D80008491F901EA51FF4FD491F901EC5FFE4FD4
:100D9000C491CC2391F081110E941106EC2FF0E058
:100DA000EE0FFF1FEE5DFE4FA591B4912C912D2308
:100DB00081E090E021F480E002C080E090E0DF91EB
:100DC000CF9108950E94D20485E591E00E94CE095A
:100DD0000E94A701C0E0D0E00E94C2012097E1F389
:100DE0000E940000F9CF615030F02091F100FC0129
:100DF00020830196F8CF289884E680935C010895BB
:100E00002FB7FC012083F89467706093E900089580
:100E1000CF93DF931F92CDB7DEB7682FCE01019637
:100E20000E9400078091F20099819FBF0F90DF918F
:100E3000CF910895FF920F931F93CF93DF9300D02C
:100E4000CDB7DEB7F62E8A0190915B01992311F0A0
:100E500057FF03C08FEF9FEF2BC0682FCE01019685
:100E60007A830E9400078091F20090E0A8017A81C5
:100E7000801791070CF4AC01EF2DF72FF40E84E6E8
:100E8000FE1639F0289880935C019091F1009193BF
:100E9000F7CF4115510521F08091F200882321F010
:100EA00089818FBFCA0104C08BE68093E800F8CF28
:100EB0000F900F90DF91CF911F910F91FF900895A8
:100EC000CF93DF931F92CDB7DEB741E050E0BE0174
:100ED0006F5F7F4F0E941A07019719F4898190E094
:100EE00002C08FEF9FEF0F90DF91CF910895CF93C6
:100EF000DF931F92CDB7DEB7682FCE0101960E9417
:100F000000079091E800892F807295FF04C09091AE
:100F1000F20080E4891B99819FBF0F90DF91CF91F0
:100F200008954F925F926F927F928F929F92AF92AD
:100F3000BF92CF92DF92EF92FF920F931F93CF93C6
:100F4000DF931F92CDB7DEB7582E7B01A42E952ECE
:100F500080915B01882369F0042F152F8AEFB82E4A
:100F6000852D8072782E9AE3892E852D8074682EC7
:100F700011C08FEF9FEF53C0852D0E947707482E39
:100F800081110CC0BA94A9F361E070E080E090E0B8
:100F90000E94A1040115110579F737C0282F30E010
:100FA000021713070CF4402EC42CD12C0C191D0968
:100FB000652DCE0101960E940007772039F04A94F2
:100FC0008FEF4816B1F01092F100F9CFF701842DA0
:100FD00057FE07C0815058F094919093F1003196DC
:100FE000F9CF815020F091919093F100FACFEC0C61
:100FF000FD1C8091E80085FF0FC00115110511F45B
:1010000061100AC089818FBFC5CF5D9884E6809347
:101010005D018A2D992D03C08092E800F3CF0F90D7
:10102000DF91CF911F910F91FF90EF90DF90CF90C4
:10103000BF90AF909F908F907F906F905F904F90F8
:1010400008951092E90010925A011092590190935C
:101050005801809357010895CF93DF93FB0120E05F
:1010600030E0DEEF24173507A1F187FF02C0C491FD
:1010700001C0C081A0915901B0915A0160915701FE
:1010800070915801A617B707B4F49091E8009570D5
:10109000E1F39091E80092FD1EC0C093F1006091D1
:1010A000590170915A016F5F7F4F6F737727672BDC
:1010B00011F4D093E8006091590170915A016F5F6B
:1010C0007F4F70935A01609359012F5F3F4F3196C4
:1010D000C9CFC90102C08FEF9FEFDF91CF91089573
:1010E0001F93CF93DF931F92CDB7DEB7162F2091BA
:1010F000E80022FFFCCF612F79830E94F3068BEF7B
:101100008093E800812F7981972F0F90DF91CF9105
:101110001F910895CF93DF931F92CDB7DEB7198249
:10112000CE0101960E94720DCE0101960E94690ABD
:10113000898190E00F90DF91CF9108951F920F92D7
:101140000FB60F921124EF92FF920F931F932F93DC
:101150003F934F935F936F937F938F939F93AF933F
:10116000BF93EF93FF93CF93DF93CDB7DEB7629733
:10117000DEBFCDBF1092E9008091E80083FFE7C099
:1011800068E0CE010A960E94F30682EF8093E800A1
:101190009A8597FF05C08091E80080FFFCCF03C0CF
:1011A0008EEF8093E800892F807609F0B5C08B859B
:1011B000811105C01092F1001092F100C1C0282FDA
:1011C0002D7F213009F4BCC0853049F48091E800BE
:1011D00080FFFCCF8C8580688093E300B1C08630AF
:1011E00009F072C02D85E888F988223071F580E019
:1011F00090E02A8B0E9421080E948A0899E08E01C3
:101200000F5F1F4FF801392F11923A95E9F7998333
:101210002A892A8391E09E8390E898879AEF99879C
:101220002091590130915A01275F3F4F3C832B8316
:101230008D83C7010E94210849E050E0B80180E099
:101240000E942C080E948A087BC0C7012A8B0E943A
:1012500021082A89223241F482E290E00E94740A35
:10126000892B09F06DC070C0213069F48889998993
:10127000089711F42093560180915601882389F034
:1012800061E571E016C0233009F05EC08C858823CB
:1012900059F0823061F0813009F056C065E771E0A5
:1012A00008C063E671E005C06FEA71E002C06DE856
:1012B00071E06115710509F447C0FB01449150E0EC
:1012C00080E80E942C083CC0873009F43DC088307B
:1012D00021F481E08093F10033C0893089F5937067
:1012E00099F5EDE4F1E081E021E096E38093E900F7
:1012F0002093EB0034913093EC009093ED008F5FDE
:101300003196853099F78EE78093EA001092EA00D3
:101310008C8580935B0114C0888999890E9421087B
:101320008E85811105C0CE010A960E947D0D06C0F2
:10133000823051F4CE010A960E949C0A882321F043
:101340008EEF8093E80003C081E28093EB00629609
:101350000FB6F894DEBF0FBECDBFDF91CF91FF91E6
:10136000EF91BF91AF919F918F917F916F915F911D
:101370004F913F912F911F910F91FF90EF900F9000
:101380000FBE0F901F9018958093E9008091F20096
:10139000882319F08AE38093E800089510925B0196
:1013A00081E08093D70080EA8093D80082E189BDF4
:1013B00009B400FEFDCF61E070E080E090E00E94A3
:1013C000A10480E98093D8008CE08093E200109221
:1013D000E000559A209A08951F920F920FB60F922F
:1013E00011242F933F934F935F936F937F938F932A
:1013F0009F93AF93BF93EF93FF938091E10010927F
:10140000E10083FF0FC01092E90091E09093EB00A0
:101410001092EC0092E39093ED0010925B0198E043
:101420009093F00082FF26C083E00E94C40982E00E
:101430000E940807882321F08BE691E00E94240D8A
:1014400080915D01882339F080915D018150809306
:101450005D01882369F080915C01882359F08091B7
:101460005C01815080935C01811104C0289A02C004
:101470005D9AF1CFFF91EF91BF91AF919F918F91C5
:101480007F916F915F914F913F912F910F900FBE80
:101490000F901F901895FF920F931F93CF93DF9398
:1014A000EC01F62EE881F9810480F581E02D0995A3
:1014B0008C01E881F9810680F781E02D6F2DCE0146
:1014C0000995C8019927DF91CF911F910F91FF9046
:1014D0000895FC0120812F5F208349E150E063E300
:1014E00072E080E80C942C0845E650E06CE472E071
:1014F00080E80C942C08EF92FF920F931F93CF93E8
:10150000DF931F92CDB7DEB789838B017A0141E06B
:1015100050E0BE016F5F7F4F84E00E949107A701FA
:10152000B80184E40E9491070F90DF91CF911F9141
:101530000F91FF90EF900895FC0191818081813A95
:1015400031F481E0913091F0933089F411C081320F
:1015500071F49B3021F482818093010105C09A309F
:1015600031F482818093000181E00895089580E044
:10157000089548E050E082E00C947B0ACF93DF931B
:10158000DC01683818F0E8E7E60F25C0E62FF0E048
:1015900067FF11C0E058F10981E090E001C0880FB9
:1015A000EA95EAF714969C911497982B14969C93BD
:1015B0001497E0E010C0ED54FE4FE491EE2309F4DF
:1015C00040C0E7FF08C014968C911497826014966F
:1015D0008C931497EF7716968C9116978E1741F18E
:1015E00017968C9117978E1719F118968C9118975A
:1015F0008E17F1F019968C9119978E17C9F01A96DB
:101600008C911A978E17A1F01B968C911B978E17B1
:1016100079F080E090E0ED01C80FD91F2E812111F3
:1016200002C0EE8305C0019686309105A1F709C07E
:10163000BD016C5F7F4FCD010E94B90A81E090E04F
:1016400008C081E090E013969C938E93129780E0FF
:1016500090E0DF91CF910895683818F0E8E7E60F41
:1016600025C0E62FF0E067FF12C0E058F10921E045
:1016700030E001C0220FEA95EAF72095DC011496CC
:101680003C911497322314963C93E0E00FC0ED5444
:10169000FE4FE491EE2329F1E7FF08C0DC01149628
:1016A0002C9114972D7F14962C93EF7720E030E047
:1016B000EE2351F0DC01A20FB31F16964C91169742
:1016C0004E1302C016961C922F5F3F4F26303105F5
:1016D00079F7BC016C5F7F4F0E94B90A81E090E00E
:1016E000089580E090E00895FC011682178210862C
:1016F0001186128613861482BC016C5F7F4F0C9496
:10170000B90A10926A01109261011092600180E2A0
:1017100091E090935F0180935E010895CF93DF93F2
:101720008230910510F482E090E0E091BF01F091E9
:10173000C00120E030E0A0E0B0E0309739F1408116
:10174000518148175907B8F04817590771F4828139
:101750009381109729F013969C938E9312972CC027
:101760009093C0018093BF0127C02115310531F04E
:101770004217530718F0A901DB0101C0EF019A01DC
:10178000BD01DF010280F381E02DD7CF21153105A6
:10179000F9F0281B390B2430310580F48A819B81B4
:1017A0006115710521F0FB019383828304C090933E
:1017B000C0018093BF01FE01329644C0FE01E20FDA
:1017C000F31F8193919322503109398328833AC0C2
:1017D0002091BD013091BE01232B41F420910401E1
:1017E000309105013093BE012093BD01209102018B
:1017F000309103012115310541F42DB73EB74091D9
:10180000060150910701241B350BE091BD01F091B9
:10181000BE01E217F307A0F42E1B3F0B2817390770
:1018200078F0AC014E5F5F4F2417350748F04E0F3C
:101830005F1F5093BE014093BD018193919302C0FD
:10184000E0E0F0E0CF01DF91CF910895CF93DF93F7
:10185000009709F487C0FC01329713821282C0916D
:10186000BF01D091C001209781F420813181280FE0
:10187000391F8091BD019091BE018217930779F5C0
:10188000F093BE01E093BD016DC0DE0120E030E0C9
:10189000AE17BF0750F412964D915C9113979D01BE
:1018A0004115510509F1DA01F3CFB383A2834081D9
:1018B0005181840F951F8A179B0771F48D919C911C
:1018C0001197840F951F02969183808312968D91B4
:1018D0009C911397938382832115310529F4F0930A
:1018E000C001E093BF013EC0D9011396FC93EE9373
:1018F00012974D915D91A40FB51FEA17FB0779F47C
:1019000080819181840F951F0296D90111969C9335
:101910008E938281938113969C938E931297E0E02D
:10192000F0E08A819B81009719F0FE01EC01F9CF6C
:10193000CE01029628813981820F931F2091BD012B
:101940003091BE012817390769F4309729F41092B5
:10195000C0011092BF0102C013821282D093BE0157
:10196000C093BD01DF91CF910895CF92DF92EF92A6
:10197000FF920F931F93CF93DF936C017A01EB01DA
:10198000E60EF71E00E010E0CE15DF0561F069916C
:10199000D601ED91FC910190F081E02DC6010995F1
:1019A000080F191FF1CFC801DF91CF911F910F913F
:1019B000FF90EF90DF90CF9008958091B9019091C2
:1019C000BA012091BB013091BC01821B930B8F7334
:1019D000992708952091B9013091BA018091BB01F6
:1019E0009091BC012817390749F0E091BB01F091B3
:1019F000BC01E758FE4F808190E008958FEF9FEF84
:101A000008952091B9013091BA018091BB01909164
:101A1000BC0128173907A9F0E091BB01F091BC0186
:101A2000E758FE4F80812091BB013091BC012F5FB0
:101A30003F4F2F7333273093BC012093BB0190E0BD
:101A400008958FEF9FEF0895CF93DF93C091B90171
:101A5000D091BA012196CF73DD278091BB0190917F
:101A6000BC01C817D90799F082E00E9460078F3F38
:101A70002FEF920761F0E091B901F091BA01E758B8
:101A8000FE4F8083D093BA01C093B901DFCFDF91BD
:101A9000CF91089583E00C94C4090F931F93CF93C3
:101AA000DF931F92CDB7DEB78C01698380910F0160
:101AB000882359F041E050E0BE016F5F7F4F83E023
:101AC0000E949107181619063CF081E090E0F80199
:101AD0009383828380E090E00F90DF91CF911F91FC
:101AE0000F910895FC0120812E5F208342E450E095
:101AF00061EB72E080E80C942C08FC0181819081FC
:101B0000913A59F4813209F04BC047E050E068E067
:101B100071E080E00E942C0845C0913209F040C07D
:101B2000803239F467E070E088E091E00E9470084C
:101B300039C0823209F034C0828180930F018091D4
:101B4000080190910901A0910A01B0910B01803B1D
:101B50009440A105B10531F580910F0180FD12C0BF
:101B600087E797E790930108809300082BE088E1CE
:101B700090E00FB6F894A895809360000FBE209374
:101B8000600010C088E10FB6F89480936000109256
:101B900060000FBEA895109201081092000802C0C4
:101BA00080E0089581E0089510926E0110926D0119
:101BB00088EE93E0A0E0B0E080936F019093700115
:101BC000A0937101B09372018EE291E090936C0149
:101BD00080936B010895EE0FFF1F0590F491E02DA7
:101BE0000994FB01DC0102C001900D92415050406C
:081BF000D8F70895F894FFCF27
:101BF80001010000C101800000E1000000000000B8
:101C080004000F0020003700550078000000000095
:101C18004B0AB50CBE0A2C0B740B000000004D0DCE
:0C1C2800B50CDD0C010DEA0C4A0D240D7A
:00000001FF
