:100000000C942C010C9454010C9454010C94540144
:100010000C9454010C9454010C9454010C9454010C
:100020000C9454010C9454010C9487050C943904DD
:100030000C9454010C9454010C9454010C945401EC
:100040000C9454010C9454010C9454010C945401DC
:100050000C9454010C9454010C9454010C942907F1
:100060000C9454010C9454010C9454010C945401BC
:100070000C9454010C9454010C9454010C945401AC
:100080000C9454010C9454010C9454010C9454019C
:100090000C9454010C9454010C9454010C9454018C
:1000A0000C9454010C9454010C945401080B00025C
:1000B0000202010009040000010202000005240000
:1000C0001001052401010104240206052406000193
:1000D0000705810310004009040100020A00000026
:1000E000070502024000000705830240000000C12E
:1000F0008081C112010002020000404123368000CD
:1001000001010200011201000200000040412336FB
:1001100080000101020001180341007200640075B3
:100120000069006E006F0020004C004C004300226C
:1001300003410072006400750069006E006F0020CA
:10014000004C0065006F006E006100720064006F7B
:10015000000403090400000000000000002A2B280E
:10016000000000000000000000000000000000008F
:1001700000000000002C9EB4A0A1A2A434A6A7A554
:10018000AE362D3738271E1F20212223242526B3E3
:1001900033B62EB7B89F8485868788898A8B8C8DE5
:1001A0008E8F909192939495969798999A9B9C9DF7
:1001B0002F3130A3AD350405060708090A0B0C0DD5
:1001C0000E0F101112131415161718191A1B1C1DD7
:1001D000AFB1B0B50009040200010300000009211D
:1001E00001010001226500070584034000010501AB
:1001F0000902A1010901A1008501050919012903CD
:10020000150025019503750181029501750581038E
:1002100005010930093109381581257F75089503D5
:100220008106C0C005010906A1018502050719E084
:1002300029E71500250175019508810295017508CA
:1002400081039506750815002565050719002965C0
:100250008100C00077021C0711241FBECFEFDAE037
:10026000DEBFCDBF11E0A0E0B1E0E4E8F0E102C004
:1002700005900D92AA32B107D9F711E0AAE2B1E0D8
:1002800001C01D92AC39B107E1F712E0C8E5D2E038
:1002900004C02297FE010E943C08C435D107C9F76B
:1002A0000E946E010C9440080C94000060E875E216
:1002B0008BE291E00C9476028BE291E00E947F0148
:1002C000892B59F08BE291E00E94A30180932A01CF
:1002D000682F8BE291E00C94EF0108950E94BC0717
:1002E0008DE791E00E9469050E945601C0E0D0E0D0
:1002F0000E945C012097E1F30E940000F9CF8091F9
:10030000790190917A0120917B0130917C01821BCF
:10031000930B8F73992708952091790130917A0179
:1003200080917B0190917C012817390749F0E09179
:100330007B01F0917C01E75CFE4F808190E00895A5
:100340008FEF9FEF08952091790130917A0180918C
:100350007B0190917C0128173907A9F0E0917B017E
:10036000F0917C01E75CFE4F808120917B01309110
:100370007C012F5F3F4F2F73332730937C012093F5
:100380007B0190E008958FEF9FEF0895CF93DF9367
:10039000C0917901D0917A012196CF73DD278091A8
:1003A0007B0190917C01C817D90799F082E00E94E7
:1003B000FB028F3F2FEF920761F0E0917901F091FE
:1003C0007A01E75CFE4F8083D0937A01C093790174
:1003D000DFCFDF91CF91089583E00C945F050F93F9
:1003E0001F93CF93DF931F92CDB7DEB78C01698344
:1003F00080910701882359F041E050E0BE016F5F12
:100400007F4F83E00E942C03181619063CF081E010
:1004100090E0F8019383828380E090E00F90DF9179
:10042000CF911F910F910895FC0120812E5F2083B1
:1004300042E450E06CEA70E080E80C94C703FC01F1
:1004400081819081913A59F4813209F04BC047E0A3
:1004500050E060E071E080E00E94C70345C0913247
:1004600009F040C0803239F467E070E080E091E04C
:100470000E940B0439C0823209F034C0828180931B
:1004800007018091000190910101A0910201B091BA
:100490000301803B9440A105B10531F5809107012E
:1004A00080FD12C087E797E79093010880930008CA
:1004B0002BE088E190E00FB6F894A8958093600057
:1004C0000FBE2093600010C088E10FB6F8948093AF
:1004D0006000109260000FBEA89510920108109263
:1004E000000802C080E0089581E008950895109208
:1004F0002E0110922D0188EE93E0A0E0B0E08093F1
:100500002F0190933001A0933101B09332018EE01E
:1005100091E090932C0180932B010895615030F06D
:100520002091F100FC0120830196F8CF289884E601
:100530008093840108952FB7FC012083F89467709D
:100540006093E9000895CF93DF931F92CDB7DEB794
:10055000682FCE0101960E949B028091F200998142
:100560009FBF0F90DF91CF910895FF920F931F933C
:10057000CF93DF9300D0CDB7DEB7F62E8A019091EE
:100580008301992311F057FF03C08FEF9FEF2BC01A
:10059000682FCE0101967A830E949B028091F2001F
:1005A00090E0A8017A81801791070CF4AC01EF2D3F
:1005B000F72FF40E84E6FE1639F028988093840114
:1005C0009091F1009193F7CF4115510521F0809161
:1005D000F200882321F089818FBFCA0104C08BE615
:1005E0008093E800F8CF0F900F90DF91CF911F918B
:1005F0000F91FF900895CF93DF931F92CDB7DEB791
:1006000041E050E0BE016F5F7F4F0E94B50201974D
:1006100019F4898190E002C08FEF9FEF0F90DF9176
:10062000CF910895CF93DF931F92CDB7DEB7682F98
:10063000CE0101960E949B029091E800892F807262
:1006400095FF04C09091F20080E4891B99819FBFBF
:100650000F90DF91CF9108954F925F926F927F92AA
:100660008F929F92AF92BF92CF92DF92EF92FF92C2
:100670000F931F93CF93DF931F92CDB7DEB7582E02
:100680007B01A42E952E80918301882369F0042F8D
:10069000152F8AEFB82E852D8072782E9AE3892E39
:1006A000852D8074682E11C08FEF9FEF53C0852D6C
:1006B0000E941203482E81110CC0BA94A9F361E084
:1006C00070E080E090E00E9496070115110579F72F
:1006D00037C0282F30E0021713070CF4402EC42C2B
:1006E000D12C0C191D09652DCE0101960E949B028B
:1006F000772039F04A948FEF4816B1F01092F1004C
:10070000F9CFF701842D57FE07C0815058F094911E
:100710009093F1003196F9CF815020F09191909310
:10072000F100FACFEC0CFD1C8091E80085FF0FC0B2
:100730000115110511F461100AC089818FBFC5CF61
:100740005D9884E6809385018A2D992D03C080925F
:10075000E800F3CF0F90DF91CF911F910F91FF90A1
:10076000EF90DF90CF90BF90AF909F908F907F9051
:100770006F905F904F9008951092E900109282015F
:10078000109281019093800180937F010895CF930F
:10079000DF93FB0120E030E0DEEF24173507A1F105
:1007A00087FF02C0C49101C0C081A0918101B091B6
:1007B000820160917F0170918001A617B707B4F4A0
:1007C0009091E8009570E1F39091E80092FD1EC0D1
:1007D000C093F10060918101709182016F5F7F4F42
:1007E0006F737727672B11F4D093E8006091810134
:1007F000709182016F5F7F4F7093820160938101DE
:100800002F5F3F4F3196C9CFC90102C08FEF9FEFD5
:10081000DF91CF9108951F93CF93DF931F92CDB7B0
:10082000DEB7162F2091E80022FFFCCF612F7983DD
:100830000E948E028BEF8093E800812F7981972FA1
:100840000F90DF91CF911F910895CF93DF931F9267
:10085000CDB7DEB71982CE0101960E941402CE01F7
:1008600001960E940406898190E00F90DF91CF915C
:1008700008951F920F920FB60F921124EF92FF92DC
:100880000F931F932F933F934F935F936F937F9398
:100890008F939F93AF93BF93EF93FF93CF93DF9388
:1008A000CDB7DEB76297DEBFCDBF1092E900809171
:1008B000E80083FFE7C068E0CE010A960E948E023E
:1008C00082EF8093E8009A8597FF05C08091E80049
:1008D00080FFFCCF03C08EEF8093E800892F8076E5
:1008E00009F0B5C08B85811105C01092F1001092FE
:1008F000F100C1C0282F2D7F213009F4BCC0853004
:1009000049F48091E80080FFFCCF8C85806880935B
:10091000E300B1C0863009F072C02D85E888F988FF
:10092000223071F580E090E02A8B0E94BC030E9487
:10093000250499E08E010F5F1F4FF801392F1192A6
:100940003A95E9F799832A892A8391E09E8390E872
:1009500098879AEF99872091810130918201275FD2
:100960003F4F3C832B838D83C7010E94BC0349E02A
:1009700050E0B80180E00E94C7030E9425047BC0BC
:10098000C7012A8B0E94BC032A89223241F482E2E9
:1009900090E00E940F06892B09F06DC070C02130D5
:1009A00069F488899989089711F420937E018091D0
:1009B0007E01882389F063EF70E016C0233009F0D0
:1009C0005EC08C85882359F0823061F0813009F057
:1009D00056C067E171E008C065E071E005C061E5FF
:1009E00071E002C06FE271E06115710509F447C062
:1009F000FB01449150E080E80E94C7033CC087306F
:100A000009F43DC0883021F481E08093F10033C0C7
:100A1000893089F5937099F5EFEEF0E081E021E0FF
:100A200096E38093E9002093EB0034913093EC003F
:100A30009093ED008F5F3196853099F78EE7809324
:100A4000EA001092EA008C858093830114C08889A3
:100A500099890E94BC038E85811105C0CE010A963A
:100A60000E941F0206C0823051F4CE010A960E94F5
:100A70003706882321F08EEF8093E80003C081E2DF
:100A80008093EB0062960FB6F894DEBF0FBECDBF29
:100A9000DF91CF91FF91EF91BF91AF919F918F9196
:100AA0007F916F915F914F913F912F911F910F9186
:100AB000FF90EF900F900FBE0F901F9018958093AE
:100AC000E9008091F200882319F08AE38093E8001E
:100AD00008951092830181E08093D70080EA80938B
:100AE000D80082E189BD09B400FEFDCF61E070E06D
:100AF00080E090E00E94960780E98093D8008CE027
:100B00008093E2001092E000559A209A08951F9277
:100B10000F920FB60F9211242F933F934F935F9331
:100B20006F937F938F939F93AF93BF93EF93FF93B5
:100B30008091E1001092E10083FF0FC01092E90064
:100B400091E09093EB001092EC0092E39093ED0013
:100B50001092830198E09093F00082FF26C083E01A
:100B60000E945F0582E00E94A302882321F08BE2AD
:100B700091E00E94C60180918501882339F080911F
:100B80008501815080938501882369F080918401DB
:100B9000882359F0809184018150809384018111D0
:100BA00004C0289A02C05D9AF1CFFF91EF91BF91E6
:100BB000AF919F918F917F916F915F914F913F91F5
:100BC0002F910F900FBE0F901F901895FF920F93CB
:100BD0001F93CF93DF93EC01F62EE881F981048017
:100BE000F581E02D09958C01E881F9810680F78176
:100BF000E02D6F2DCE010995C8019927DF91CF9186
:100C00001F910F91FF900895FC0120812F5F208399
:100C100049E150E065ED71E080E80C94C70345E6DA
:100C200050E06EEE71E080E80C94C703EF92FF9203
:100C30000F931F93CF93DF931F92CDB7DEB78983B6
:100C40008B017A0141E050E0BE016F5F7F4F84E08D
:100C50000E942C03A701B80184E40E942C030F908A
:100C6000DF91CF911F910F91FF90EF900895FC01BC
:100C700091818081813A31F481E0913091F093301B
:100C800089F411C0813271F49B3021F48281809308
:100C9000090105C09A3031F482818093080181E016
:100CA0000895089580E0089548E050E082E00C94B3
:100CB0001606CF93DF93DC01683818F0E8E7E60FFB
:100CC00025C0E62FF0E067FF11C0E058F10981E090
:100CD00090E001C0880FEA95EAF714969C9114976A
:100CE000982B14969C931497E0E010C0EB5AFE4F9B
:100CF000E491EE2309F440C0E7FF08C014968C91FC
:100D00001497826014968C931497EF7716968C91B3
:100D100016978E1741F117968C9117978E1719F128
:100D200018968C9118978E17F1F019968C91199747
:100D30008E17C9F01A968C911A978E17A1F01B96F0
:100D40008C911B978E1779F080E090E0ED01C80F31
:100D5000D91F2E81211102C0EE8305C00196863075
:100D60009105A1F709C0BD016C5F7F4FCD010E94C5
:100D7000540681E090E008C081E090E013969C93D7
:100D80008E93129780E090E0DF91CF9108956838BC
:100D900018F0E8E7E60F25C0E62FF0E067FF12C085
:100DA000E058F10921E030E001C0220FEA95EAF7AE
:100DB0002095DC0114963C911497322314963C93B1
:100DC000E0E00FC0EB5AFE4FE491EE2329F1E7FF7C
:100DD00008C0DC0114962C9114972D7F14962C9347
:100DE000EF7720E030E0EE2351F0DC01A20FB31FDB
:100DF00016964C9116974E1302C016961C922F5FB2
:100E00003F4F2630310579F7BC016C5F7F4F0E9460
:100E1000540681E090E0089580E090E00895FC01A0
:100E20001682178210861186128613861482BC01E0
:100E30006C5F7F4F0C9454061092920110928901BE
:100E40001092880180E291E090938701809386015F
:100E500008951F920F920FB60F9211242F933F9374
:100E60008F939F93AF93BF9380919401909195013D
:100E7000A0919601B09197013091930123E0230F47
:100E80002D3720F40196A11DB11D05C026E8230FC2
:100E90000296A11DB11D209393018093940190931C
:100EA0009501A0939601B09397018091980190913C
:100EB0009901A0919A01B0919B010196A11DB11DCC
:100EC0008093980190939901A0939A01B0939B010C
:100ED000BF91AF919F918F913F912F910F900FBE36
:100EE0000F901F9018953FB7F894809198019091BA
:100EF0009901A0919A01B0919B0126B5A89B05C0CC
:100F00002F3F19F00196A11DB11D3FBF6627782F15
:100F1000892F9A2F620F711D811D911D42E0660F6E
:100F2000771F881F991F4A95D1F70895CF92DF92B6
:100F3000EF92FF92CF93DF936B017C010E947307C6
:100F4000EB01C114D104E104F10479F00E947307AC
:100F50006C1B7D0B683E7340A0F381E0C81AD1087A
:100F6000E108F108C851DC4FECCFDF91CF91FF9041
:100F7000EF90DF90CF900895789484B5826084BD1F
:100F800084B5816084BD85B5826085BD85B581608D
:100F900085BDEEE6F0E0808181608083E1E8F0E0ED
:100FA0001082808182608083808181608083E0E81C
:100FB000F0E0808181608083E1E9F0E080818260FF
:100FC0008083808181608083E0E9F0E080818160BE
:100FD0008083E1ECF0E080818460808380818260A6
:100FE0008083808181608083E3ECF0E08081816098
:100FF0008083E0ECF0E0808182608083E2ECF0E0CE
:10100000808181608083EAE7F0E080818460808372
:10101000808182608083808181608083808180681C
:1010200080830895CF92DF92EF92FF920F931F93E8
:10103000CF93DF936C017A01EB01E60EF71E00E01F
:1010400010E0CE15DF0561F06991D601ED91FC91BC
:101050000190F081E02DC6010995080F191FF1CF0D
:10106000C801DF91CF911F910F91FF90EF90DF901A
:10107000CF900895EE0FFF1F0590F491E02D099495
:04108000F894FFCF12
:1010840000E1000000000000010100000000EF0189
:1010940012087F01A3018C01EC01C60100000000CD
:0A10A400E60512085906C7060F07FB
:00000001FF