:100000000C94AA010C94D2010C94D2010C94D2014C
:100010000C94D2010C94D2010C94D2010C94D20114
:100020000C94D2010C94D2010C94970A0C944909B7
:100030000C94D2010C94D2010C94D2010C94D201F4
:100040000C94D2010C94D2010C94D2010C94D201E4
:100050000C94D2010C94D2010C94D2010C94A703FD
:100060000C94D2010C94D2010C94D2010C94D201C4
:100070000C94D2010C94D2010C94D2010C94D201B4
:100080000C94D2010C94D2010C94D2010C94D201A4
:100090000C94D2010C94D2010C94D2010C94D20194
:1000A0000C94D2010C94D2010C94D201BB04BE0476
:1000B000B104B504DF04DF04DF04C204C604CA04CB
:1000C000D004D404DF04DA042074696D65732E0053
:1000D000427574746F6E2042207761732070726570
:1000E0007373656420002074696D65732E0042751A
:1000F00074746F6E20432077617320707265737320
:10010000656420002074696D65732E0042757474F7
:100110006F6E204120776173207072657373656420
:1001200020000000000200080E0000030401000B84
:1001300000000000000000000000000000000000BF
:1001400004080201104080401020408040800802D6
:10015000040180402010020110801020404004045F
:100160000404040304050202020204030202020260
:100170000606060606060404020202040000000049
:100180002300260029002C002F000000000025007D
:1001900028002B002E003100000000002400270062
:1001A0002A002D003000080B0002020201000904A1
:1001B00000000102020000052400100105240101D5
:1001C000010424020605240600010705810310002E
:1001D0004009040100020A00000007050202400075
:1001E000000705830240000000C18081C1120100A8
:1001F000020200004041233680000101020001128A
:10020000010002000000404123368000010102008D
:10021000011803410072006400750069006E006FF0
:100220000020004C004C0043002203410072006497
:1002300000750069006E006F0020004C0065006FC3
:10024000006E006100720064006F00040309040086
:10025000000000000000002A2B2800000000000021
:100260000000000000000000000000000000002C62
:100270009EB4A0A1A2A434A6A7A5AE362D373827D8
:100280001E1F20212223242526B333B62EB7B89F64
:100290008485868788898A8B8C8D8E8F90919293A6
:1002A0009495969798999A9B9C9D2F3130A3AD3544
:1002B0000405060708090A0B0C0D0E0F1011121386
:1002C0001415161718191A1B1C1DAFB1B0B500096B
:1002D0000402000103000000092101010001226560
:1002E000000705840340000105010902A10109017D
:1002F000A1008501050919012903150025019503B0
:1003000075018102950175058103050109300931E7
:1003100009381581257F750895038106C0C0050140
:100320000906A1018502050719E029E71500250145
:100330007501950881029501750881039506750878
:10034000150025650507190029658100C000E60232
:1003500087072C0C11241FBECFEFDAE0DEBFCDBF24
:1003600011E0A0E0B1E0E6ECF8E102C005900D92EA
:10037000A834B107D9F711E0A8E4B1E001C01D929B
:10038000AB3DB107E1F713E0C4E5D3E004C0229729
:10039000FE010E945D0CCE34D107C9F70E947D0694
:1003A0000C94610C0C940000FC01A2EEB0E08C9166
:1003B00080831C92A9EEB0E08C9181831C92A0EF07
:1003C000B0E08C9182831C920895FC01A9EEB0E00C
:1003D0001C9282818093F00081818C938081809334
:1003E000E200089560E875E283E791E00C948607E7
:1003F0008EE591E00E945C038823F9F080914C0126
:1004000090914D01019690934D0180934C016CE0C9
:1004100071E083E791E00E94800560914C0170914A
:100420004D014AE050E083E791E00E94750664E0E8
:1004300071E083E791E00E94C0058EE491E00E94A4
:100440005C038823F9F080914A0190914B01019659
:1004500090934B0180934A016EEE70E083E791E048
:100460000E94800560914A0170914B014AE050E082
:1004700083E791E00E94750666EE70E083E791E005
:100480000E94C00586E591E00E945C038823F9F094
:100490008091480190914901019690934901809380
:1004A000480160ED70E083E791E00E948005609173
:1004B0004801709149014AE050E083E791E00E94D1
:1004C000750668EC70E083E791E00E94C00561E08A
:1004D00070E080E090E00C942004FC01208121FB7E
:1004E0000EF0559820FB0EF05D980EF45D9A21FBFE
:1004F0000EF4559A0895FF920F931F93CF93DF93B5
:1005000000D000D0CDB7DEB7CE0101960E94D40155
:1005100020E05D992160559922602C8355985D9A61
:1005200080E18A95F1F7F9B0CE0104960E946D0240
:10053000CE0101960E94E501F5FA002700F910E0CE
:1005400081E00827802F81700F900F900F900F90FF
:10055000DF91CF911F910F91FF900895FC012081B1
:1005600021FB0EF0209820FB0EF028980EF4289A1C
:1005700021FB0EF4209A08951F93CF93DF9300D0B0
:1005800000D0CDB7DEB7CE0101960E94D40120E0A5
:1005900028992160209922602C832098289A80E154
:1005A0008A95F1F713B1CE0104960E94AE02CE01F6
:1005B00001960E94E501812F809581700F900F9028
:1005C0000F900F90DF91CF911F9108950F931F937C
:1005D000CF93DF9321E041E06EE08EE591E00E9451
:1005E0006C0384E191E090935F0180935E01C6E526
:1005F000D1E00EE011E01983088388E591E00E94C4
:100600001E038BE591E00E941E038AE191E099832D
:100610008883CEE4D1E01983088380E591E00E94CD
:100620001E0383E591E00E941E0380E291E099831E
:100630008883DF91CF911F910F910895FC01108263
:1006400008951F93CF93DF93EC01162F0E94F103BF
:100650002881213061F028F02230B1F02330D9F028
:1006600026C0111124C07A83698381E012C011234E
:1006700011F018821CC029813A81621B730B6F3004
:100680007105A8F082E005C0112389F07A8369839F
:1006900083E088830CC01123A9F329813A81621B6E
:1006A000730B6F30710518F0188281E001C080E093
:1006B000DF91CF911F910895CF93DF93EC01E881F3
:1006C000F9810190F081E02D0995682FCE01029605
:1006D000DF91CF910C942103FC011282158286E2F6
:1006E00091E0918380831086618781E0411101C090
:1006F00080E0828781E0211101C080E08387089536
:10070000FC018285882311F062E001C060E08185F0
:100710000E94E00485E090E00C944604CF93DF93C0
:10072000EC018885811105C081E08887CE010E9497
:10073000800389850E9419052B8530E041E08217EE
:10074000930709F440E0842FDF91CF9108951F9221
:100750000F920FB60F9211242F933F938F939F9375
:10076000AF93BF9380916B0190916C01A0916D014B
:10077000B0916E0130916A0123E0230F2D3720F4F0
:100780000196A11DB11D05C026E8230F0296A11DEB
:10079000B11D20936A0180936B0190936C01A0932B
:1007A0006D01B0936E0180916F0190917001A091E5
:1007B0007101B09172010196A11DB11D80936F016D
:1007C00090937001A0937101B0937201BF91AF91AA
:1007D0009F918F913F912F910F900FBE0F901F907F
:1007E00018952FB7F89460916B0170916C0180910E
:1007F0006D0190916E012FBF08953FB7F8948091DD
:100800006F0190917001A0917101B091720126B5B4
:10081000A89B05C02F3F19F00196A11DB11D3FBF38
:100820006627782F892F9A2F620F711D811D911DC8
:1008300042E0660F771F881F991F4A95D1F70895E8
:10084000CF92DF92EF92FF92CF93DF936B017C0107
:100850000E94FD03EB01C114D104E104F10479F01D
:100860000E94FD036C1B7D0B683E7340A0F381E08A
:10087000C81AD108E108F108C851DC4FECCFDF916C
:10088000CF91FF90EF90DF90CF9008950197009760
:1008900039F0880F991F880F991F02970197F1F778
:1008A0000895789484B5826084BD84B5816084BDE8
:1008B00085B5826085BD85B5816085BDEEE6F0E0D9
:1008C000808181608083E1E8F0E010828081826035
:1008D0008083808181608083E0E8F0E080818160B6
:1008E0008083E1E9F0E080818260808380818160A3
:1008F0008083E0E9F0E0808181608083E1ECF0E0DA
:100900008081846080838081826080838081816037
:100910008083E3ECF0E0808181608083E0ECF0E0B4
:10092000808182608083E2ECF0E08081816080835E
:10093000EAE7F0E080818460808380818260808348
:10094000808181608083808180688083089590E0C9
:10095000FC013197EE30F10590F5EA5AFF4F0C9407
:100960005B0C809180008F7703C0809180008F7D29
:1009700080938000089584B58F7702C084B58F7D01
:1009800084BD0895809190008F7707C0809190007A
:100990008F7D03C080919000877F809390000895A1
:1009A0008091C0008F7703C08091C0008F7D8093BD
:1009B000C00008958091C200877F8093C20008958F
:1009C000CF93DF9390E0FC01E05CFE4F2491FC01AB
:1009D000E25AFE4F8491882349F190E0880F991FD5
:1009E000FC01E856FE4FA591B49186579E4FFC013D
:1009F000C591D4919FB7611108C0F8948C9120954E
:100A000082238C93888182230AC0623051F4F89447
:100A10008C91322F309583238C938881822B88830D
:100A200004C0F8948C91822B8C939FBFDF91CF915F
:100A30000895CF93DF93282F30E0F901EE5DFE4F4C
:100A40008491F901E05CFE4FD491F901E25AFE4F26
:100A5000C491CC2391F081110E94A704EC2FF0E007
:100A6000EE0FFF1FE458FE4FA591B4912C912D235A
:100A700081E090E021F480E002C080E090E0DF912E
:100A8000CF910895CF92DF92EF92FF920F931F9331
:100A9000CF93DF936C017A01EB01E60EF71E00E0C5
:100AA00010E0CE15DF0561F06991D601ED91FC9162
:100AB0000190F081E02DC6010995080F191FF1CFB3
:100AC000C801DF91CF911F910F91FF90EF90DF90C0
:100AD000CF9008956115710581F0DB010D90002024
:100AE000E9F7AD0141505109461B570BDC01ED916F
:100AF000FC910280F381E02D099480E090E008955C
:100B0000EF92FF920F931F93CF93DF938C01FB0122
:100B1000C0E0D0E064917F018FEFE81AF80A662305
:100B200061F0D801ED91FC910190F081E02DC801B8
:100B30000995C80FD91FF701EDCFCE01DF91CF91F5
:100B40001F910F91FF90EF900895DC01ED91FC91C2
:100B50000190F081E02D09940F931F93CF93DF93C1
:100B6000EC016DE00E94A5058C016AE0CE010E94B7
:100B7000A505800F911FDF91CF911F910F910895CF
:100B80000F931F93CF93DF93EC010E9480058C019C
:100B9000CE010E94AC05800F911FDF91CF911F9174
:100BA0000F9108958F929F92AF92BF92CF92DF9252
:100BB000EF92FF920F931F93CF93DF93CDB7DEB7E2
:100BC000A1970FB6F894DEBF0FBECDBF7C01C42E37
:100BD000E52FCB01D22E19A221E02D1510F02AE02D
:100BE000D22E8E010F5D1F4F8D2C912CA12CB12C7C
:100BF0006C2D7E2FA50194010E94390C8C2DD29E64
:100C000080191124015011098A3014F4805D01C04B
:100C1000895CF8018083211531054105510521F0DA
:100C2000C22EE32FCA01E4CFB801C7010E946A05B2
:100C3000A1960FB6F894DEBF0FBECDBFDF91CF9166
:100C40001F910F91FF90EF90DF90CF90BF90AF90EA
:100C50009F908F900895CF92DF92EF92FF920F9323
:100C60001F93CF93DF93EC016A017B0121153105BE
:100C700079F4E881F9810190F081E02D642FDF9112
:100C8000CF911F910F91FF90EF90DF90CF9009943B
:100C90002A303105E9F477FF1AC06DE20E94A505FC
:100CA0008C0144275527BA014C195D096E097F094B
:100CB0002AE0CE010E94D205800F911FDF91CF91D3
:100CC0001F910F91FF90EF90DF90CF9008952AE051
:100CD000B701A601CE01DF91CF911F910F91FF9037
:100CE000EF90DF90CF900C94D2059A01AB0166276C
:100CF00057FD6095762F0C942B060E94510485ECCD
:100D000091E00E94790A0E94F201C0E0D0E00E94C6
:100D1000F8012097E1F30E940000F9CF0895809137
:100D2000C1019091C2012091C3013091C401821B85
:100D3000930B8F73992708952091C1013091C201BF
:100D40008091C3019091C4012817390749F0E091BF
:100D5000C301F091C401EF57FE4F808190E00895E8
:100D60008FEF9FEF08952091C1013091C2018091D2
:100D7000C3019091C40128173907A9F0E091C3017C
:100D8000F091C401EF57FE4F80812091C301309153
:100D9000C4012F5F3F4F2F7333273093C40120933B
:100DA000C30190E008958FEF9FEF0895CF93DF93F5
:100DB000C091C101D091C2012196CF73DD278091EE
:100DC000C3019091C401C817D90799F082E00E942D
:100DD0000B088F3F2FEF920761F0E091C101F09176
:100DE000C201EF57FE4F8083D093C201C093C1016F
:100DF000DFCFDF91CF91089583E00C946F0A0F93BA
:100E00001F93CF93DF931F92CDB7DEB78C01698319
:100E100080910701882359F041E050E0BE016F5FE7
:100E20007F4F83E00E943C08181619063CF081E0D1
:100E300090E0F8019383828380E090E00F90DF914F
:100E4000CF911F910F910895FC0120812E5F208387
:100E500042E450E066EA71E080E80C94D708FC01B7
:100E600081819081913A59F4813209F04BC047E079
:100E700050E060E071E080E00E94D70845C0913208
:100E800009F040C0803239F467E070E080E091E022
:100E90000E941B0939C0823209F034C082818093DC
:100EA00007018091000190910101A0910201B09190
:100EB0000301803B9440A105B10531F58091070104
:100EC00080FD12C087E797E79093010880930008A0
:100ED0002BE088E190E00FB6F894A895809360002D
:100EE0000FBE2093600010C088E10FB6F894809385
:100EF0006000109260000FBEA89510920108109239
:100F0000000802C080E0089581E0089508951092DD
:100F100076011092750188EE93E0A0E0B0E0809336
:100F2000770190937801A0937901B0937A018CE2D4
:100F300091E090937401809373010895615030F0B3
:100F40002091F100FC0120830196F8CF289884E6D7
:100F50008093CC0108952FB7FC012083F89467702B
:100F60006093E9000895CF93DF931F92CDB7DEB76A
:100F7000682FCE0101960E94AB078091F200998103
:100F80009FBF0F90DF91CF910895FF920F931F9312
:100F9000CF93DF9300D0CDB7DEB7F62E8A019091C4
:100FA000CB01992311F057FF03C08FEF9FEF2BC0A8
:100FB000682FCE0101967A830E94AB078091F200E0
:100FC00090E0A8017A81801791070CF4AC01EF2D15
:100FD000F72FF40E84E6FE1639F028988093CC01A2
:100FE0009091F1009193F7CF4115510521F0809137
:100FF000F200882321F089818FBFCA0104C08BE6EB
:101000008093E800F8CF0F900F90DF91CF911F9160
:101010000F91FF900895CF93DF931F92CDB7DEB766
:1010200041E050E0BE016F5F7F4F0E94C50701970E
:1010300019F4898190E002C08FEF9FEF0F90DF914C
:10104000CF910895CF93DF931F92CDB7DEB7682F6E
:10105000CE0101960E94AB079091E800892F807223
:1010600095FF04C09091F20080E4891B99819FBF95
:101070000F90DF91CF9108954F925F926F927F9280
:101080008F929F92AF92BF92CF92DF92EF92FF9298
:101090000F931F93CF93DF931F92CDB7DEB7582ED8
:1010A0007B01A42E952E8091CB01882369F0042F1B
:1010B000152F8AEFB82E852D8072782E9AE3892E0F
:1010C000852D8074682E11C08FEF9FEF53C0852D42
:1010D0000E942208482E81110CC0BA94A9F361E045
:1010E00070E080E090E00E9420040115110579F77E
:1010F00037C0282F30E0021713070CF4402EC42C01
:10110000D12C0C191D09652DCE0101960E94AB074B
:10111000772039F04A948FEF4816B1F01092F10021
:10112000F9CFF701842D57FE07C0815058F09491F4
:101130009093F1003196F9CF815020F091919093E6
:10114000F100FACFEC0CFD1C8091E80085FF0FC088
:101150000115110511F461100AC089818FBFC5CF37
:101160005D9884E68093CD018A2D992D03C08092ED
:10117000E800F3CF0F90DF91CF911F910F91FF9077
:10118000EF90DF90CF90BF90AF909F908F907F9027
:101190006F905F904F9008951092E9001092CA01ED
:1011A0001092C9019093C8018093C7010895CF930D
:1011B000DF93FB0120E030E0DEEF24173507A1F1DB
:1011C00087FF02C0C49101C0C081A091C901B09144
:1011D000CA016091C7017091C801A617B707B4F49E
:1011E0009091E8009570E1F39091E80092FD1EC0A7
:1011F000C093F1006091C9017091CA016F5F7F4F88
:101200006F737727672B11F4D093E8006091C901C1
:101210007091CA016F5F7F4F7093CA016093C901DB
:101220002F5F3F4F3196C9CFC90102C08FEF9FEFAB
:10123000DF91CF9108951F93CF93DF931F92CDB786
:10124000DEB7162F2091E80022FFFCCF612F7983B3
:101250000E949E078BEF8093E800812F7981972F62
:101260000F90DF91CF911F910895CF93DF931F923D
:10127000CDB7DEB71982CE0101960E942407CE01B8
:1012800001960E94140B898190E00F90DF91CF911D
:1012900008951F920F920FB60F921124EF92FF92B2
:1012A0000F931F932F933F934F935F936F937F936E
:1012B0008F939F93AF93BF93EF93FF93CF93DF935E
:1012C000CDB7DEB76297DEBFCDBF1092E900809147
:1012D000E80083FFE7C068E0CE010A960E949E07FF
:1012E00082EF8093E8009A8597FF05C08091E8001F
:1012F00080FFFCCF03C08EEF8093E800892F8076BB
:1013000009F0B5C08B85811105C01092F1001092D3
:10131000F100C1C0282F2D7F213009F4BCC08530D9
:1013200049F48091E80080FFFCCF8C858068809331
:10133000E300B1C0863009F072C02D85E888F988D5
:10134000223071F580E090E02A8B0E94CC080E9448
:10135000350999E08E010F5F1F4FF801392F119267
:101360003A95E9F799832A892A8391E09E8390E848
:1013700098879AEF99872091C9013091CA01275F18
:101380003F4F3C832B838D83C7010E94CC0849E0EB
:1013900050E0B80180E00E94D7080E9435097BC068
:1013A000C7012A8B0E94CC082A89223241F482E2AA
:1013B00090E00E941F0B892B09F06DC070C0213096
:1013C00069F488899989089711F42093C60180915E
:1013D000C601882389F06DEE71E016C0233009F054
:1013E0005EC08C85882359F0823061F0813009F02D
:1013F00056C061E172E008C06FEF71E005C06BE4B8
:1014000072E002C069E272E06115710509F447C03B
:10141000FB01449150E080E80E94D7083CC087302F
:1014200009F43DC0883021F481E08093F10033C09D
:10143000893089F5937099F5E9EEF1E081E021E0DA
:1014400096E38093E9002093EB0034913093EC0015
:101450009093ED008F5F3196853099F78EE78093FA
:10146000EA001092EA008C858093CB0114C0888931
:1014700099890E94CC088E85811105C0CE010A96FB
:101480000E942F0706C0823051F4CE010A960E94B6
:10149000470B882321F08EEF8093E80003C081E2A0
:1014A0008093EB0062960FB6F894DEBF0FBECDBFFF
:1014B000DF91CF91FF91EF91BF91AF919F918F916C
:1014C0007F916F915F914F913F912F911F910F915C
:1014D000FF90EF900F900FBE0F901F901895809384
:1014E000E9008091F200882319F08AE38093E800F4
:1014F00008951092CB0181E08093D70080EA809319
:10150000D80082E189BD09B400FEFDCF61E070E042
:1015100080E090E00E94200480E98093D8008CE075
:101520008093E2001092E000559A209A08951F924D
:101530000F920FB60F9211242F933F934F935F9307
:101540006F937F938F939F93AF93BF93EF93FF938B
:101550008091E1001092E10083FF0FC01092E9003A
:1015600091E09093EB001092EC0092E39093ED00E9
:101570001092CB0198E09093F00082FF26C083E0A8
:101580000E946F0A82E00E94B307882321F083E75C
:1015900091E00E94D6068091CD01882339F0809198
:1015A000CD0181508093CD01882369F08091CC01D9
:1015B000882359F08091CC0181508093CC01811116
:1015C00004C0289A02C05D9AF1CFFF91EF91BF91BC
:1015D000AF919F918F917F916F915F914F913F91CB
:1015E0002F910F900FBE0F901F901895FF920F93A1
:1015F0001F93CF93DF93EC01F62EE881F9810480ED
:10160000F581E02D09958C01E881F9810680F7814B
:10161000E02D6F2DCE010995C8019927DF91CF915B
:101620001F910F91FF900895FC0120812F5F20836F
:1016300049E150E06FEC72E080E80C94D70845E691
:1016400050E068EE72E080E80C94D708EF92FF92C9
:101650000F931F93CF93DF931F92CDB7DEB789838C
:101660008B017A0141E050E0BE016F5F7F4F84E063
:101670000E943C08A701B80184E40E943C080F9036
:10168000DF91CF911F910F91FF90EF900895FC0192
:1016900091818081813A31F481E0913091F09330F1
:1016A00089F411C0813271F49B3021F482818093DE
:1016B000090105C09A3031F482818093080181E0EC
:1016C0000895089580E0089548E050E082E00C9489
:1016D000260BCF93DF93DC01683818F0E8E7E60FBC
:1016E00025C0E62FF0E067FF11C0E058F10981E066
:1016F00090E001C0880FEA95EAF714969C91149740
:10170000982B14969C931497E0E010C0E15BFD4F7A
:10171000E491EE2309F440C0E7FF08C014968C91D1
:101720001497826014968C931497EF7716968C9189
:1017300016978E1741F117968C9117978E1719F1FE
:1017400018968C9118978E17F1F019968C9119971D
:101750008E17C9F01A968C911A978E17A1F01B96C6
:101760008C911B978E1779F080E090E0ED01C80F07
:10177000D91F2E81211102C0EE8305C0019686304B
:101780009105A1F709C0BD016C5F7F4FCD010E949B
:10179000640B81E090E008C081E090E013969C9398
:1017A0008E93129780E090E0DF91CF910895683892
:1017B00018F0E8E7E60F25C0E62FF0E067FF12C05B
:1017C000E058F10921E030E001C0220FEA95EAF784
:1017D0002095DC0114963C911497322314963C9387
:1017E000E0E00FC0E15BFD4FE491EE2329F1E7FF5C
:1017F00008C0DC0114962C9114972D7F14962C931D
:10180000EF7720E030E0EE2351F0DC01A20FB31FB0
:1018100016964C9116974E1302C016961C922F5F87
:101820003F4F2630310579F7BC016C5F7F4F0E9436
:10183000640B81E090E0089580E090E00895FC0161
:101840001682178210861186128613861482BC01B6
:101850006C5F7F4F0C94640B1092DA011092D101EF
:101860001092D0018EE391E09093CF018093CE014E
:101870000895A1E21A2EAA1BBB1BFD010DC0AA1FD1
:10188000BB1FEE1FFF1FA217B307E407F50720F0E9
:10189000A21BB30BE40BF50B661F771F881F991F64
:1018A0001A9469F760957095809590959B01AC01AD
:1018B000BD01CF010895EE0FFF1F0590F491E02DBB
:0618C0000994F894FFCF2B
:1018C60000E10000000000000101000000008E069B
:1018D600000000008E03000000007B0200000000F4
:1018E600BC02000000008E0300000000FF06420557
:1018F6008F06B3069C06FC06D60600000000F60A14
:081906004205690BD70B1F0C11
:00000001FF
