:100000000C948C010C94B4010C94B4010C94B401C4
:100010000C94B4010C94B4010C94B4010C94B4018C
:100020000C94B4010C94B4010C9483100C94350F0F
:100030000C94B4010C94B4010C94B4010C94B4016C
:100040000C94B4010C94B4010C94B4010C94B4015C
:100050000C94B4010C94B4010C94B4010C946B0B8B
:100060000C94B4010C94B4010C94B4010C94B4013C
:100070000C94B4010C94B4010C94B4010C94B4012C
:100080000C94B4010C94B4010C94B4010C94B4011C
:100090000C946D090C94B4010C94B4010C94B4014B
:1000A0000C94B4010C94B4010C94B401AE0AB10ADE
:1000B000A40AA80AD20AD20AD20AB50AB90ABD0A03
:1000C000C30AC70AD20ACD0A202020004779726FDE
:1000D0002063616C007475726E206D65210054722E
:1000E0007920746F000000000200080E0000030475
:1000F00001000B00000000000000000000000000F4
:1001000000000004080201104080401020408040A0
:10011000800802040180402010020110801020405D
:10012000400404040404030405020202020403025E
:100130000202020606060606060404020202040083
:100140000000002300260029002C002F00000000E2
:1001500000250028002B002E0031000000000024A4
:100160000027002A002D00300000C18081C112014B
:10017000000202000040412336800001010200011C
:1001800012010002000000404123368000010102FC
:1001900000011803410072006400750069006E00E0
:1001A0006F0020004C004C0043002203410072000D
:1001B0006400750069006E006F0020004C0065004F
:1001C0006F006E006100720064006F000403090498
:1001D00000000000000000002A2B280000000000A2
:1001E000000000000000000000000000000000000F
:1001F0002C9EB4A0A1A2A434A6A7A5AE362D373854
:10020000271E1F20212223242526B333B62EB7B85C
:100210009F8485868788898A8B8C8D8E8F9091921A
:10022000939495969798999A9B9C9D2F3130A3AD66
:10023000350405060708090A0B0C0D0E0F101112E4
:10024000131415161718191A1B1C1DAFB1B0B500E1
:10025000090402000103000000092101010001223C
:1002600065000705840340000105010902A1010999
:1002700001A1008501050919012903150025019532
:100280000375018102950175058103050109300996
:100290003109381581257F750895038106C0C00591
:1002A000010906A1018502050719E029E7150025C6
:1002B0000175019508810295017508810395067500
:1002C00008150025650507190029658100C0080B80
:1002D0000002020201000904000001020200000500
:1002E000240010010524010101042402060524064E
:1002F00000010705810310004009040100020A0003
:1003000000000705020240000007058302400000CC
:1003100027048B0818121C1311241FBECFEFDAE03C
:10032000DEBFCDBF11E0A0E0B1E0EEEBF9E202C02C
:1003300005900D92AE35B107D9F712E0AEE5B1E008
:1003400001C01D92AC3BB107E1F713E0C8E1D3E077
:1003500004C02297FE010E94AD14C031D107C9F735
:100360000E946C0C0C94DD140C9400000E94C10BD4
:1003700070935F0160935E011092640110926501B9
:10038000109266011092670108958F929F92AF922A
:10039000BF92CF92DF92EF92FF920F931F9388E666
:1003A00091E00E94980580916C0190916D012091DF
:1003B000600130916101821B930B909363018093E4
:1003C00062010E94C10B20915E0130915F01AB017F
:1003D000421B530B9A0170935F0160935E01A091E1
:1003E0006201B09163010E94331320E030E040EEDF
:1003F00050E00E94D113EDE8AE2EF8E3BF2EACE042
:10040000CA2EDD24D394E12CF12C00E010E00E94F0
:10041000941349015A018091640190916501A09162
:100420006601B0916701880D991DAA1DBB1D8093BF
:10043000640190936501A0936601B09367011F91D9
:100440000F91FF90EF90DF90CF90BF90AF909F9073
:100450008F900895CF92DF92EF92FF92CF93DF9328
:100460008BE891E00E94510842E050E063E070E0C8
:1004700088E691E00E9442064FEF60E288E691E054
:100480000E94470540E263E288E691E00E9447054A
:1004900040E064E288E691E00E94470581E891E04F
:1004A0000E9456076CEC70E081E891E00E94BB0C62
:1004B000479A3F9A64EF71E080E090E00E94E40B7D
:1004C000C0E0D4E0C12CD12C760167E288E691E04F
:1004D0000E94700588E691E00E94980580916C0169
:1004E00090916D01AA2797FDA095BA2FC80ED91E2D
:1004F000EA1EFB1E2197209741F747983F9AC701B4
:10050000B60120E034E040E050E00E947B133093DD
:1005100061012093600181E891E00E9456070E94EA
:10052000B60185E791E00E94F20481112BC00E9480
:10053000C50140E060E081E891E00E9460078091A1
:10054000640190916501A0916601B09167019D01E0
:10055000552737FD5095452FA8E6B1E00E943A1384
:10056000AC01772757FD7095672F2AE030E081E8CE
:1005700091E00E94400D68EC70E081E891E00E94FB
:10058000BB0CCFCF81E891E0DF91CF91FF90EF904E
:10059000DF90CF900C9456075B98539A0895FC0116
:1005A000A2EEB0E08C9180831C92A9EEB0E08C9119
:1005B00081831C92A0EFB0E08C9182831C920895FD
:1005C000FC01A9EEB0E01C9282818093F000818151
:1005D0008C9380818093E200089560FF02C02B9A83
:1005E00001C02B98239A61FF02C0289A01C0289865
:1005F000209A62FF02C0479A01C047983F9A63FF62
:1006000002C05D9A01C05D98559A5B9A539A85E045
:100610008A95F1F700005B98539A85E08A95F1F787
:10062000000008950E942A0264EF71E080E090E0EB
:100630000E94E40B0E94B60181E891E00E945607F7
:100640006EED70E081E891E00E94BB0C41E060E05B
:1006500081E891E00E94600765ED70E081E891E03B
:100660000C94BB0C0F931F930E94C5016091640111
:100670007091650180916601909167012CEC3FEBD0
:100680004CEF5FEF0E947B1389019A018091620118
:100690009091630164E170E00E944513CB01AA27A9
:1006A00097FDA095BA2F081B190B2A0B3B0B01399C
:1006B00081E018072105310524F000E911E020E070
:1006C00030E0C901B80160372EEF72072FEF8207C3
:1006D000920724F460E77EEF8FEF9FEF2227332706
:1006E000261B370BC9011F910F910C94AD0420E01C
:1006F0005D99216055992260FC0120830895FC01D9
:10070000208121FB0EF0559820FB0EF05D980EF431
:100710005D9A21FB0EF4559A089520E028992160F6
:1007200020992260FC0120830895FC01208121FB97
:100730000EF0209820FB0EF028980EF4289A21FB4A
:100740000EF4209A0895FF920F931F93CF93DF9397
:10075000CDB7DEB72A970FB6F894DEBF0FBECDBF78
:100760008C01F62ECE0101962A8749870E94CF027E
:1007700030E05A993160529932603E8330E02B99D3
:100780003160239932603F83CE0105960E948D032C
:1007900030E0479931603F9932603887CE01049646
:1007A0000E94770349852A85442311F05A9A01C093
:1007B0005A98529A21110AC06F2D70E084E0759505
:1007C00067958A95E1F7C8010E94ED026F2D6F7061
:1007D000C8010E94ED02CE0104960E947F03288585
:1007E00021FB0EF03F9820FB0EF047980EF4479A3D
:1007F00021FB0EF43F9ACE0105960E9495033F819E
:1008000031FB0EF0239830FB0EF02B980EF42B9A50
:1008100031FB0EF4239A2E8121FB0EF0529820FB1F
:100820000EF05A980EF45A9A21FB0EF4529ACE0109
:1008300001960E94E0022A960FB6F894DEBF0FBE22
:10084000CDBFDF91CF911F910F91FF90089581E867
:1008500091E00E94CF0684E191E090938201809321
:10086000810121E041E06EE085E791E00E9403050F
:100870008EE091E0909376018093750188E691E097
:100880000C943E052E98269A2D98259A2A98229AFD
:100890002998219A80EA8093800081E180938100E9
:1008A00080E991E090938700809386001092890000
:1008B0001092880010928B0010928A000895809107
:1008C0008801811105C081E0809388010C94420465
:1008D0000895CF93DF93EC010E945F04D7FF05C01A
:1008E000D195C195D10981E001C080E0C13991E085
:1008F000D90714F0C0E9D1E0D0938B00C0938A00EF
:1009000090918A01891711F02A9A01C02A98229A97
:10091000DF91CF910895CF93DF93EC010E945F04A4
:10092000D7FF05C0D195C195D10981E001C080E014
:10093000C13991E0D90714F0C0E9D1E0D093890022
:10094000C093880090918901891711F0299A01C0FC
:100950002998219ADF91CF910895CF93DF93EB01EE
:100960000E946904CE01DF91CF910C948B041F93F8
:10097000CF93DF93EC01162F0E94B50B2881213015
:1009800061F028F02230B1F02330D9F026C01111E7
:1009900024C07A83698381E012C0112311F0188288
:1009A0001CC029813A81621B730B6F307105A8F05E
:1009B00082E005C0112389F07A83698383E088830C
:1009C0000CC01123A9F329813A81621B730B6F308C
:1009D000710518F0188281E001C080E0DF91CF91AD
:1009E0001F910895CF93DF93EC01E881F981019085
:1009F000F081E02D099561E06827CE010596DF9131
:100A0000CF910C94B704FC011282158280E291E030
:100A1000918380831086618781E0411101C080E06D
:100A2000828781E0211101C080E083870895FC0165
:100A30008285882311F062E001C060E081850E9418
:100A4000D30A85E090E00C940A0CCF93DF93EC017D
:100A50008885811105C081E08887CE010E94170535
:100A600089850E94420B2B8530E041E08217930775
:100A700009F440E0842FDF91CF910895FC0183E0D9
:100A800090E0908787831386128614860895EF92EC
:100A9000FF921F93CF93DF931F92CDB7DEB77C01F8
:100AA000162FFC0161858BE891E049830E946B0859
:100AB000612F8BE891E00E9412084981642F8BE836
:100AC00091E00E9412088BE891E00E948808F701EB
:100AD00086830F90DF91CF911F91FF90EF90089543
:100AE0001F93CF93DF93EC01162F69858BE891E07C
:100AF0000E946B08612F8BE891E00E9412088BE83E
:100B000091E00E9488088E8341E069858BE891E03E
:100B10000E9468088BE891E00E94C207C82F8BE80A
:100B200091E00E9488088C2FDF91CF911F9108954A
:100B30009F92AF92BF92CF92DF92EF92FF920F936C
:100B40001F93CF93DF93EC0169858BE891E00E94BE
:100B50006B08E0918B01F0918C010190F081E02D08
:100B600068EA8BE891E009958BE891E00E9488089B
:100B700046E069858BE891E00E9468080E94B50B09
:100B80007B018BE891E00E94BA07069784F48A857E
:100B90009B85892BB1F30E94B50B6E197F098A855D
:100BA0009B858617970768F781E08C872CC08BE8B8
:100BB00091E00E94C207A82E8BE891E00E94C20734
:100BC000982E8BE891E00E94C207E82E8BE891E016
:100BD0000E94C207B82E8BE891E00E94C207F82E4F
:100BE0008BE891E00E94C207D92CC12CCA28D98277
:100BF000C8821B2D00E00E291B830A83982F8827AB
:100C00008F299D838C83DF91CF911F910F91FF904E
:100C1000EF90DF90CF90BF90AF909F9008951F937B
:100C2000CF93DF931F92CDB7DEB7162F8BE891E0FD
:100C300049830E946B084981642F8BE891E00E94F0
:100C400012088BE891E00E948808811114C041E0ED
:100C5000612F8BE891E00E9468088BE891E00E9488
:100C6000BA07892B41F08BE891E00F90DF91CF918B
:100C70001F910C94C2078FEF9FEF0F90DF91CF91E0
:100C80001F910895EF92FF920F931F93CF93DF93DD
:100C90007C01EB018A016330710521F0423051057E
:100CA00009F051C0CE010197039758F501151105C0
:100CB00081F04FE050E06BE6C7010E940F068F3FC6
:100CC0002FEF920719F001E010E013C00130110579
:100CD00051F04FE050E06AE6C7010E940F068F3FD7
:100CE000EFEF9E0721F4C330D10569F027C000E083
:100CF00010E0C330D10529F4873D9105F1F5C2E03C
:100D0000D0E02097D9F40115110561F04FE050E0D3
:100D100069E6C7010E940F06833D910589F1013004
:100D2000110549F04FE050E068E6C7010E940F0648
:100D3000833D910541F1C330D10519F00230110511
:100D400011F480E025C0F701D087C783209759F0C0
:100D5000D7FD11C023977CF40130110511F48BE607
:100D600008C08AE606C00130110511F489E601C009
:100D700088E6F701818781E00BC0C1E0D0E0C1CFF8
:100D800001E010E002C000E010E0C0E0D0E0D6CF0B
:100D9000DF91CF911F910F91FF90EF900895FC018B
:100DA0001382128286E291E09183808314820895F7
:100DB0001F93CF93DF93EC01162F64600E945207BC
:100DC0001E83DF91CF911F910895CF93DF93EC01A4
:100DD000E881F9810480F581E02D099563E0CE0179
:100DE0000E944E078FE991E40197F1F700C00000DF
:100DF00063E0CE010E944E0787E592E00197F1F78C
:100E000000C0000063E0CE010E944E0762E0CE0108
:100E10000E944E0768E2CE010E94520760E0CE01B8
:100E20000E948407CE010E94560762E0CE010E9414
:100E3000D80664E0CE01DF91CF910C9484070F9324
:100E40001F93CF93DF9300D01F92CDB7DEB78C01F5
:100E5000DC0114968C91149781110CC081E01496DA
:100E60008C93C8012B834A8369830E94E5066981BC
:100E70004A812B81D801ED91FC910680F781E02D0C
:100E8000C8010995B5ECBA95F1F700000F900F90E5
:100E90000F90DF91CF911F910F91089521E040E0D5
:100EA0000C941F0720E040E00C941F0761E00E94B3
:100EB00052078FE39FE10197F1F700C0000008950A
:100EC000CF93DF9300D000D0CDB7DEB720E82983E1
:100ED00020EC2A8324E92B8324ED2C83443008F072
:100EE00043E0FE01E40FF11D2181260F622F0E94D5
:100EF000520785EC8A95F1F700000F900F900F9044
:100F00000F90DF91CF9108951F93CF93DF93EC0162
:100F1000162F68600E9452071D83DF91CF911F91A9
:100F2000089520E041E00C941F070E94910781E0A2
:100F300090E00895CF92DF92EF92FF920F931F936C
:100F4000CF93DF937C018A01EB016B01C40ED51EA8
:100F5000CC15DD0529F06991C7010E949107F8CFF2
:100F6000C801DF91CF911F910F91FF90EF90DF901B
:100F7000CF9008958091BB0190E02091BC01821B2D
:100F8000910908952091BC018091BB01281750F46C
:100F9000E22FF0E0E354FE4F808190E02F5F20933A
:100FA000BC0108958FEF9FEF0895E091BC018091FF
:100FB000BB01E81730F4F0E0E354FE4F808190E08D
:100FC00008958FEF9FEF08950895CF92DF92EF92EB
:100FD000FF920F931F93CF93DF937C01CB018A0184
:100FE00020919701222389F0EB016B01C40ED51EDD
:100FF000CC15DD0569F06991D701ED91FC91019067
:10100000F081E02DC7010995F3CF642F0E944409B8
:10101000C801DF91CF911F910F91FF90EF90DF906A
:10102000CF900895CF93DF931F92CDB7DEB769833A
:10103000209197012223D1F020919801203240F095
:1010400021E030E0FC013383228380E090E015C092
:1010500080919901E82FF0E0E656FE4F9981908348
:101060008F5F809399018093980105C061E0CE0164
:1010700001960E94440981E090E00F90DF91CF91AA
:101080000895FC011382128248EE53E060E070E0A4
:10109000448355836683778382E391E091838083E1
:1010A00008951092BC011092BB0110929901109208
:1010B00098010C948F08862F413208F040E26DEBC6
:1010C00071E00E94AD081092BC018093BB010895AD
:1010D00021E00C945B0881E0809397016093BA0152
:1010E000109299011092980108950F93062F21E014
:1010F000409198016AE971E08091BA010E94F1087B
:101100001092990110929801109297010F910895F1
:1011100061E00C9475088BE891E00C944108109202
:101120004A0281E0809348021092470261E082E027
:101130000E940C0B61E083E00E940C0BE9EBF0E0F5
:1011400080818E7F808380818D7F808388E48093FF
:10115000B80085E48093BC000895413208F03FC098
:1011600090914A029111FCCF91E090934A02209312
:1011700048022FEF2093DD0110922202240F2093CA
:1011800021029093490290914902880F892B809304
:10119000490280914702813041F4109247028091C8
:1011A00049028093BB0085EC01C085EE8093BC00B2
:1011B00080914A028130E1F380912202841710F479
:1011C0004091220223E232E0FB01D9018A2F821BE7
:1011D000841718F48D918193F9CF842F089580E0BE
:1011E00008950F93413208F046C090914A02911140
:1011F000FCCF92E090934A02009348029FEF9093B5
:10120000DD011092220240932102FB0163E272E0B1
:10121000DB019A2F961B941718F491919D93F9CFA7
:101220001092490290914902880F892B80934902BC
:1012300080914702813041F4109247028091490227
:101240008093BB0085EC01C085EE8093BC00222317
:1012500021F080914A028230E1F38091DD018F3FDD
:1012600061F08091DD01803251F08091DD018033A9
:1012700041F483E007C081E005C080E003C082E064
:1012800001C084E00F910895613298F420914A02E0
:10129000243089F46093FF01FC0181E092E0DC01DD
:1012A0002A2F281B261718F421912D93F9CF80E0BF
:1012B000089581E0089582E0089585ED8093BC0053
:1012C0008091BC0084FDFCCF10924A02089585EC09
:1012D0008093BC0010924A0208951F920F920FB69D
:1012E0000F9211242F933F934F935F936F937F93AC
:1012F0008F939F93AF93BF93EF93FF938091B90028
:10130000887F803609F49CC068F5883209F45BC098
:1013100090F4803109F454C038F4882309F4F5C0FE
:10132000883009F44DC0F5C0883109F44CC08032D2
:1013300009F45DC0EEC0803409F468C048F480331D
:1013400009F455C0883309F0E4C08093DD01A8C0DA
:10135000803509F44FC0883509F45DC0883409F040
:10136000D8C0D5C0883909F4C6C0A8F4883709F4B4
:1013700067C038F4883609F463C0803709F460C068
:10138000C8C0883809F4B7C0803909F45FC0803814
:1013900009F0BFC05BC0803B09F485C038F4803AD7
:1013A00009F466C0883A09F47EC0B3C0803C09F4F1
:1013B000A6C0883C09F4A3C0883B09F489C0A9C031
:1013C0008091490210C090912202809121029817C9
:1013D00070F5E091220281E08E0F80932202F0E00E
:1013E000ED5DFD4F80818093BB0085EC85C08093CF
:1013F000DD018DC0E091220281E08E0F80932202F8
:101400008091BB00F0E0ED5DFD4F80839091220262
:10141000809121026DC0E091220281E08E0F8093C5
:1014200022028091BB00F0E0ED5DFD4F8083809152
:10143000480281116CC081E08093470284EA60C059
:1014400083E080934A021092DE01CFCF8091DE01CB
:10145000803208F050C0E091DE0181E08E0F809371
:10146000DE018091BB00F0E0E152FE4F8083BDCFF2
:101470008091DE01803230F4E091DE01F0E0E15253
:10148000FE4F10820E945D096091DE0170E0E091E4
:101490004302F09144028FED91E009951092DE0134
:1014A0000E94670936C084E080934A0210920002CD
:1014B0001092FF01E0914502F0914602099580915A
:1014C000FF01811105C081E08093FF0110920102AC
:1014D000E091000281E08E0F80930002F0E0EF5F68
:1014E000FD4F80818093BB00909100028091FF01AD
:1014F000981708F47ACF85E88093BC000AC085EC81
:101500008093BC0010924A0204C01092DD010E9438
:101510005D09FF91EF91BF91AF919F918F917F9165
:101520006F915F914F913F912F910F900FBE0F9050
:101530001F90189590E0FC013197EE30F10590F581
:10154000EA5AFF4F0C94AB14809180008F7703C050
:10155000809180008F7D80938000089584B58F777F
:1015600002C084B58F7D84BD0895809190008F77EF
:1015700007C0809190008F7D03C080919000877F8D
:101580008093900008958091C0008F7703C0809170
:10159000C0008F7D8093C00008958091C200877F36
:1015A0008093C2000895CF93DF9390E0FC01ED5F3C
:1015B000FE4F2491FC01EF5DFE4F8491882349F199
:1015C00090E0880F991FFC01E55AFE4FA591B49158
:1015D000835B9E4FFC01C591D4919FB7611108C0F8
:1015E000F8948C91209582238C93888182230AC061
:1015F000623051F4F8948C91322F309583238C9380
:101600008881822B888304C0F8948C91822B8C93E0
:101610009FBFDF91CF9108950F931F93CF93DF93D7
:101620001F92CDB7DEB7282F30E0F901EB51FF4F05
:101630008491F901ED5FFE4F1491F901EF5DFE4FCA
:1016400004910023C9F0882321F069830E949A0A3B
:101650006981E02FF0E0EE0FFF1FE35BFE4FA591E5
:10166000B4919FB7F8948C91611103C010958123B8
:1016700001C0812B8C939FBF0F90DF91CF911F9161
:101680000F910895CF93DF93282F30E0F901EB51AC
:10169000FF4F8491F901ED5FFE4FD491F901EF5DA9
:1016A000FE4FC491CC2391F081110E949A0AEC2F35
:1016B000F0E0EE0FFF1FE15CFE4FA591B4912C917D
:1016C0002D2381E090E021F480E002C080E090E0F2
:1016D000DF91CF9108951F920F920FB60F921124B0
:1016E0002F933F938F939F93AF93BF9380914C021F
:1016F00090914D02A0914E02B0914F0230914B0259
:1017000023E0230F2D3720F40196A11DB11D05C044
:1017100026E8230F0296A11DB11D20934B02809352
:101720004C0290934D02A0934E02B0934F028091D1
:10173000500290915102A0915202B0915302019631
:10174000A11DB11D8093500290935102A0935202AB
:10175000B0935302BF91AF919F918F913F912F9181
:101760000F900FBE0F901F9018952FB7F8946091AF
:101770004C0270914D0280914E0290914F022FBF0A
:1017800008953FB7F8948091500290915102A09132
:101790005202B091530226B5A89B05C02F3F19F005
:1017A0000196A11DB11D3FBF6627782F892F9A2F63
:1017B000620F711D811D911D42E0660F771F881F0A
:1017C000991F4A95D1F70895CF92DF92EF92FF9239
:1017D000CF93DF936B017C010E94C10BEB01C1141D
:1017E000D104E104F10479F00E94C10B6C1B7D0B64
:1017F000683E7340A0F381E0C81AD108E108F108FF
:10180000C851DC4FECCFDF91CF91FF90EF90DF908C
:10181000CF9008950197009739F0880F991F880F8E
:10182000991F02970197F1F70895789484B5826023
:1018300084BD84B5816084BD85B5826085BD85B574
:10184000816085BDEEE6F0E0808181608083E1E823
:10185000F0E010828081826080838081816080835B
:10186000E0E8F0E0808181608083E1E9F0E0808160
:1018700082608083808181608083E0E9F0E0808104
:1018800081608083E1ECF0E08081846080838081EE
:1018900082608083808181608083E3ECF0E08081DE
:1018A00081608083E0ECF0E0808182608083E2EC04
:1018B000F0E0808181608083EAE7F0E080818460ED
:1018C0008083808182608083808181608083808149
:1018D00080688083089508950E94150C84E592E045
:1018E0000E9465100E941203C0E0D0E00E94320303
:1018F0002097E1F30E940000F9CFCF92DF92EF92A0
:10190000FF920F931F93CF93DF936C017A01EB014A
:10191000E60EF71E00E010E0CE15DF0561F06991DC
:10192000D601ED91FC910190F081E02DC601099561
:10193000080F191FF1CFC801DF91CF911F910F91AF
:10194000FF90EF90DF90CF9008956115710581F0C1
:10195000DB010D900020E9F7AD0141505109461B14
:10196000570BDC01ED91FC910280F381E02D09948D
:1019700080E090E00895EF92FF920F931F93CF9332
:10198000DF938C01FB01C0E0D0E064917F018FEF19
:10199000E81AF80A662361F0D801ED91FC910190F4
:1019A000F081E02DC8010995C80FD91FF701EDCFCF
:1019B000CE01DF91CF911F910F91FF90EF9008958D
:1019C000DC01ED91FC910190F081E02D09948F9262
:1019D0009F92AF92BF92CF92DF92EF92FF920F93BE
:1019E0001F93CF93DF93CDB7DEB7A1970FB6F894CF
:1019F000DEBF0FBECDBF7C01C42EE52FCB01D22EA2
:101A000019A221E02D1510F02AE0D22E8E010F5DD3
:101A10001F4F8D2C912CA12CB12C6C2D7E2FA5014C
:101A200094010E9459138C2DD29E801911240150CB
:101A300011098A3014F4805D01C0895CF80180834B
:101A4000211531054105510521F0C22EE32FCA01B0
:101A5000E4CFB801C7010E94A50CA1960FB6F89477
:101A6000DEBF0FBECDBFDF91CF911F910F91FF90D1
:101A7000EF90DF90CF90BF90AF909F908F900895A0
:101A8000CF92DF92EF92FF920F931F93CF93DF934A
:101A9000EC016A017B012115310579F4E881F981B6
:101AA0000190F081E02D642FDF91CF911F910F9174
:101AB000FF90EF90DF90CF9009942A303105E9F440
:101AC00077FF1AC06DE20E94E00C8C014427552775
:101AD000BA014C195D096E097F092AE0CE010E9406
:101AE000E70C800F911FDF91CF911F910F91FF9015
:101AF000EF90DF90CF9008952AE0B701A601CE01C4
:101B0000DF91CF911F910F91FF90EF90DF90CF90D9
:101B10000C94E70C615030F02091F100FC0120831F
:101B20000196F8CF289884E680935B0208952FB73A
:101B3000FC012083F89467706093E9000895CF93C7
:101B4000DF931F92CDB7DEB7682FCE0101960E94BA
:101B5000970D8091F20099819FBF0F90DF91CF91F7
:101B60000895FF920F931F93CF93DF9300D0CDB7CB
:101B7000DEB7F62E8A0190915A02992311F057FF91
:101B800003C08FEF9FEF2BC0682FCE0101967A83A1
:101B90000E94970D8091F20090E0A8017A81801751
:101BA00091070CF4AC01EF2DF72FF40E84E6FE162E
:101BB00039F0289880935B029091F1009193F7CFD0
:101BC0004115510521F08091F200882321F089818F
:101BD0008FBFCA0104C08BE68093E800F8CF0F9056
:101BE0000F90DF91CF911F910F91FF900895CF93A8
:101BF000DF931F92CDB7DEB741E050E0BE016F5FCB
:101C00007F4F0E94B10D019719F4898190E002C0C5
:101C10008FEF9FEF0F90DF91CF910895CF93DF93D8
:101C20001F92CDB7DEB7682FCE0101960E94970DA7
:101C30009091E800892F807295FF04C09091F20086
:101C400080E4891B99819FBF0F90DF91CF91089508
:101C50004F925F926F927F928F929F92AF92BF92BC
:101C6000CF92DF92EF92FF920F931F93CF93DF9368
:101C70001F92CDB7DEB7582E7B01A42E952E8091F2
:101C80005A02882369F0042F152F8AEFB82E852D6C
:101C90008072782E9AE3892E852D8074682E11C06B
:101CA0008FEF9FEF53C0852D0E940E0E482E81119D
:101CB0000CC0BA94A9F361E070E080E090E00E946B
:101CC000E40B0115110579F737C0282F30E0021712
:101CD00013070CF4402EC42CD12C0C191D09652DB2
:101CE000CE0101960E94970D772039F04A948FEF2C
:101CF0004816B1F01092F100F9CFF701842D57FE8C
:101D000007C0815058F094919093F1003196F9CF2B
:101D1000815020F091919093F100FACFEC0CFD1CD2
:101D20008091E80085FF0FC00115110511F46110C5
:101D30000AC089818FBFC5CF5D9884E680935C021D
:101D40008A2D992D03C08092E800F3CF0F90DF9188
:101D5000CF911F910F91FF90EF90DF90CF90BF90A8
:101D6000AF909F908F907F906F905F904F9008956D
:101D70001092E90010925902109258029093570263
:101D8000809356020895CF93DF93FB0120E030E06B
:101D9000DEEF24173507A1F187FF02C0C49101C00F
:101DA000C081A0915802B091590260915602709181
:101DB0005702A617B707B4F49091E8009570E1F3C5
:101DC0009091E80092FD1EC0C093F100609158020E
:101DD000709159026F5F7F4F6F737727672B11F4F4
:101DE000D093E80060915802709159026F5F7F4F65
:101DF00070935902609358022F5F3F4F3196C9CFBD
:101E0000C90102C08FEF9FEFDF91CF9108951F931B
:101E1000CF93DF931F92CDB7DEB7162F2091E80046
:101E200022FFFCCF612F79830E948A0D8BEF809374
:101E3000E800812F7981972F0F90DF91CF911F912B
:101E40000895CF93DF931F92CDB7DEB71982CE01ED
:101E500001960E94BA12CE0101960E94001189815A
:101E600090E00F90DF91CF9108951F920F920FB6DF
:101E70000F921124EF92FF920F931F932F933F9392
:101E80004F935F936F937F938F939F93AF93BF9382
:101E9000EF93FF93CF93DF93CDB7DEB76297DEBFAB
:101EA000CDBF1092E9008091E80083FFE7C068E0B1
:101EB000CE010A960E948A0D82EF8093E8009A85EF
:101EC00097FF05C08091E80080FFFCCF03C08EEF34
:101ED0008093E800892F807609F0B5C08B85811149
:101EE00005C01092F1001092F100C1C0282F2D7F83
:101EF000213009F4BCC0853049F48091E80080FFAE
:101F0000FCCF8C8580688093E300B1C0863009F0F7
:101F100072C02D85E888F988223071F580E090E064
:101F20002A8B0E94B80E0E94210F99E08E010F5F4C
:101F30001F4FF801392F11923A95E9F799832A89B1
:101F40002A8391E09E8390E898879AEF9987209161
:101F5000580230915902275F3F4F3C832B838D837A
:101F6000C7010E94B80E49E050E0B80180E00E942D
:101F7000C30E0E94210F7BC0C7012A8B0E94B80E9E
:101F80002A89223241F482E290E00E940B11892BCF
:101F900009F06DC070C0213069F48889998908976B
:101FA00011F42093550280915502882389F06EE642
:101FB00071E016C0233009F05EC08C85882359F08B
:101FC000823061F0813009F056C062E971E008C0EA
:101FD00060E871E005C06CEC71E002C06AEA71E093
:101FE0006115710509F447C0FB01449150E080E898
:101FF0000E94C30E3CC0873009F43DC0883021F4F4
:1020000081E08093F10033C0893089F5937099F5B0
:10201000EAE6F1E081E021E096E38093E900209395
:10202000EB0034913093EC009093ED008F5F31968C
:10203000853099F78EE78093EA001092EA008C854C
:1020400080935A0214C0888999890E94B80E8E859F
:10205000811105C0CE010A960E94C51206C08230C9
:1020600051F4CE010A960E943311882321F08EEF9D
:102070008093E80003C081E28093EB0062960FB684
:10208000F894DEBF0FBECDBFDF91CF91FF91EF91EE
:10209000BF91AF919F918F917F916F915F914F9180
:1020A0003F912F911F910F91FF90EF900F900FBED6
:1020B0000F901F9018958093E9008091F20088237B
:1020C00019F08AE38093E800089510925A0281E0A3
:1020D0008093D70080EA8093D80082E189BD09B45B
:1020E00000FEFDCF61E070E080E090E00E94E40B34
:1020F00080E98093D8008CE08093E2001092E000A9
:10210000559A209A08951F920F920FB60F9211249C
:102110002F933F934F935F936F937F938F939F93EF
:10212000AF93BF93EF93FF938091E1001092E10092
:1021300083FF0FC01092E90091E09093EB001092A2
:10214000EC0092E39093ED0010925A0298E0909385
:10215000F00082FF26C083E00E945B1082E00E94B4
:102160009F0D882321F08AE692E00E946C128091F4
:102170005C02882339F080915C02815080935C027C
:10218000882369F080915B02882359F080915B027B
:10219000815080935B02811104C0289A02C05D9A2D
:1021A000F1CFFF91EF91BF91AF919F918F917F916F
:1021B0006F915F914F913F912F910F900FBE0F90B4
:1021C0001F901895FF920F931F93CF93DF93EC010D
:1021D000F62EE881F9810480F581E02D09958C01C6
:1021E000E881F9810680F781E02D6F2DCE010995F8
:1021F000C8019927DF91CF911F910F91FF9008950A
:10220000FC0120812F5F208349E150E060E572E00E
:1022100080E80C94C30E45E650E069E672E080E881
:102220000C94C30EEF92FF920F931F93CF93DF9303
:102230001F92CDB7DEB789838B017A0141E050E070
:10224000BE016F5F7F4F84E00E94280EA701B80196
:1022500084E40E94280E0F90DF91CF911F910F917F
:10226000FF90EF900895FC0191818081813A31F4D3
:1022700081E0913091F0933089F411C0813271F492
:102280009B3021F482818093010105C09A3031F4A2
:1022900082818093000181E00895089580E008958F
:1022A00048E050E082E00C941211CF93DF93DC0100
:1022B000683818F0E8E7E60F25C0E62FF0E067FF82
:1022C00011C0E058F10981E090E001C0880FEA9563
:1022D000EAF714969C911497982B14969C93149754
:1022E000E0E010C0E053FE4FE491EE2309F440C05B
:1022F000E7FF08C014968C911497826014968C9313
:102300001497EF7716968C9116978E1741F11796C2
:102310008C9117978E1719F118968C9118978E1724
:10232000F1F019968C9119978E17C9F01A968C9125
:102330001A978E17A1F01B968C911B978E1779F028
:1023400080E090E0ED01C80FD91F2E81211102C05D
:10235000EE8305C0019686309105A1F709C0BD0145
:102360006C5F7F4FCD010E94501181E090E008C06A
:1023700081E090E013969C938E93129780E090E01A
:10238000DF91CF910895683818F0E8E7E60F25C08F
:10239000E62FF0E067FF12C0E058F10921E030E0DD
:1023A00001C0220FEA95EAF72095DC0114963C91D2
:1023B0001497322314963C93E0E00FC0E053FE4F95
:1023C000E491EE2329F1E7FF08C0DC0114962C917B
:1023D00014972D7F14962C93EF7720E030E0EE23B6
:1023E00051F0DC01A20FB31F16964C9116974E13B5
:1023F00002C016961C922F5F3F4F2630310579F7A9
:10240000BC016C5F7F4F0E94501181E090E0089505
:1024100080E090E00895FC011682178210861186F4
:10242000128613861482BC016C5F7F4F0C9450118E
:10243000109269021092600210925F0282E491E0B1
:1024400090935E0280935D0208958091B80290910E
:10245000B9022091BA023091BB02821B930B8F7399
:10246000992708952091B8023091B9028091BA025B
:102470009091BB022817390749F0E091BA02F09118
:10248000BB02E858FD4F808190E008958FEF9FEFE9
:1024900008952091B8023091B9028091BA029091CA
:1024A000BB0228173907A9F0E091BA02F091BB02EC
:1024B000E858FD4F80812091BA023091BB022F5F16
:1024C0003F4F2F7333273093BB022093BA0290E023
:1024D00008958FEF9FEF0895CF93DF93C091B802D7
:1024E000D091B9022196CF73DD278091BA029091E5
:1024F000BB02C817D90799F082E00E94F70D8F3F01
:102500002FEF920761F0E091B802F091B902E8581C
:10251000FD4F8083D093B902C093B802DFCFDF9123
:10252000CF91089583E00C945B100F931F93CF938A
:10253000DF931F92CDB7DEB78C01698380910901CB
:10254000882359F041E050E0BE016F5F7F4F83E088
:102550000E94280E181619063CF081E090E0F80160
:102560009383828380E090E00F90DF91CF911F9161
:102570000F910895FC0120812E5F208342E450E0FA
:102580006EEC72E080E80C94C30EFC0181819081B6
:10259000913A59F4813209F04BC047E050E062E0D3
:1025A00071E080E00E94C30E45C0913209F040C046
:1025B000803239F467E070E082E091E00E94070F1A
:1025C00039C0823209F034C0828180930901809140
:1025D000020190910301A0910401B0910501803B9B
:1025E0009440A105B10531F58091090180FD12C02B
:1025F00087E797E790930108809300082BE088E134
:1026000090E00FB6F894A895809360000FBE2093D9
:10261000600010C088E10FB6F894809360001092BB
:1026200060000FBEA895109201081092000802C029
:1026300080E0089581E0089510926D0210926C027E
:1026400088EE93E0A0E0B0E080936E0290936F027A
:10265000A0937002B093710280E591E090936B02B9
:1026600080936A0208950E94B114B7FF0895821BF7
:10267000930B08950E94B114A59F900DB49F900DE7
:10268000A49F800D911D1124089597FB072E16F429
:10269000009407D077FD09D00E94C01407FC05D034
:1026A0003EF4909581959F4F0895709561957F4F69
:1026B0000895A1E21A2EAA1BBB1BFD010DC0AA1F83
:1026C000BB1FEE1FFF1FA217B307E407F50720F09B
:1026D000A21BB30BE40BF50B661F771F881F991F16
:1026E0001A9469F760957095809590959B01AC015F
:1026F000BD01CF010895052E97FB1EF400940E94A2
:102700005C1457FD07D00E94591307FC03D04EF408
:102710000C945C1450954095309521953F4F4F4F48
:102720005F4F0895689401C0E894F92FF12B12F0DF
:102730000C94C613A0E0B0E0E0EAF3E10C947A1444
:10274000092E059422F40E946414112392F4F0E8F7
:102750000F26FFEFE094F09400951095B094C0948C
:10276000D094A194BF0ACF0ADF0AEF0AFF0A0F0B29
:102770001F0B0E940B1407FC0E946414CDB7DEB738
:10278000ECE00C949614689401C0E8948F929F92A8
:10279000CF93DF930E940B14DF91CF919F908F9086
:1027A000089597FB57FF0C94E1139F938F930E941A
:1027B000E1136E1B7F0BAF91BF918A0B9B0B0895AA
:1027C000E894DF93CF93FC01DB010E94B1147F9367
:1027D0006F93E9019A01AC01BF93AF933F932F939D
:1027E000DF010E94B11426F46C1B7D0B820B930B4E
:1027F0009E01EB01FC010E94D414AF91BF912F9177
:102800003F910E94D414BE01CF01F9012F913F9155
:10281000CF91DF91089588249924F401E401B0E474
:102820009F93AA279A158B049C04ED05FE05CF05FE
:10283000D007A10798F4AD2FDC2FCF2FFE2FE92D65
:10284000982C892E982F872F762F652F542F432F62
:10285000322F2227B85031F7BF9127C01B2EBF91CE
:10286000BB27220F331F441F551F661F771F881F6A
:10287000991F881C991CEE1FFF1FCC1FDD1FAA1F6C
:10288000BB1F8A149B04EC05FD05CE05DF05A007E0
:10289000B10748F08A189B08EC09FD09CE09DF0949
:1028A000A00BB10B21601A94E1F62EF49401AF0154
:1028B000BE01CD01000C08959095809570956195AD
:1028C0007F4F8F4F9F4F089560957095809590959D
:1028D00030954095509521953F4F4F4F5F4F6F4F2B
:1028E0007F4F8F4F9F4F08952F923F924F925F924D
:1028F0006F927F928F929F92AF92BF92CF92DF9210
:10290000EF92FF920F931F93CF93DF93CDB7DEB774
:10291000CA1BDB0B0FB6F894DEBF0FBECDBF099408
:102920002A88398848885F846E847D848C849B845F
:10293000AA84B984C884DF80EE80FD800C811B816D
:10294000AA81B981CE0FD11D0FB6F894DEBF0FBE9C
:10295000CDBFED010895EE0FFF1F0590F491E02D1E
:102960000994A29FB001B39FC001A39F700D811D68
:102970001124911DB29F700D811D1124911D089588
:10298000AA1BBB1B51E107C0AA1FBB1FA617B70795
:1029900010F0A61BB70B881F991F5A95A9F78095B1
:1029A0009095BC01CD0108950E94B114460F571FA8
:0E29B000C81FD91F08F431960895F894FFCF80
:1029BE00010100E1000000000000000000002505FC
:1029CE000000000095079A07CC02A3030000000048
:1029DE0025050000000095079A076B0C6B0C000094
:1029EE0000001208E507BA07C207D507E407000082
:1029FE000000E2107D0C5511C3110B1200000000F7
:0E2A0E0095127D0C25124912321292126C1292
:00000001FF
