:100000000C9477010C949F010C949F010C949F0118
:100010000C949F010C949F010C949F010C949F01E0
:100020000C949F010C949F010C9417090C949E0949
:100030000C949F010C949F010C949F010C949F01C0
:100040000C949F010C949F010C949F010C949F01B0
:100050000C949F010C949F010C949F010C947505C6
:100060000C949F010C949F010C949F010C949F0190
:100070000C949F010C949F010C949F010C949F0180
:100080000C949F010C949F010C949F010C949F0170
:100090000C949F010C949F010C949F010C949F0160
:1000A0000C949F010C949F010C949F010000000090
:1000B000240027002A002D00300000000000250049
:1000C00028002B002E003100000000002300260035
:1000D00029002C002F000404040404030405020278
:1000E00002020403020202020606060606060404D1
:1000F00002020204040802011040804010204080E7
:10010000408008020401804020100201108010206D
:1001100040400000000200080E0000030401000B34
:1001200000000000000000000000000000000000CF
:10013000070605040100080A0B0C0D090403090455
:100140002203410072006400750069006E006F00B8
:1001500020004C0065006F006E00610072006400BA
:100160006F001803410072006400750069006E00A2
:100170006F0020004C004C00430012010002000000
:1001800000404123368000010102000112010002FB
:10019000020000404123368000010102000100C13D
:1001A0008081C105010902A1010901A100850105A4
:1001B000091901290315002501950375018102958F
:1001C00001750581030501093009310938158125BB
:1001D0007F750895038106C0C005010906A1018548
:1001E00002050719E029E715002501750195088129
:1001F00002950175088103950675081500256505AA
:1002000007190029658100C00904020001030000EC
:100210000009210101000122650007058403400057
:100220000100000000000000002A2B280000000050
:1002300000000000000000000000000000000000BE
:10024000002C9EB4A0A1A2A434A6A7A5AE362D373B
:1002500038271E1F20212223242526B333B62EB78C
:10026000B89F8485868788898A8B8C8D8E8F9091A4
:1002700092939495969798999A9B9C9D2F3130A331
:10028000AD350405060708090A0B0C0D0E0F1011F9
:1002900012131415161718191A1B1C1DAFB1B0B57F
:1002A00000080B0002020201000904000001020222
:1002B00000000524001001052401010104240206A8
:1002C0000524060001070581031000400904010010
:1002D000020A000000070502024000000705830231
:1002E00040000000C9015308210B740CC201112405
:1002F0001FBECFEFDAE0DEBFCDBF11E0A0E0B1E07E
:10030000E8EFFAE102C005900D92A834B107D9F7E1
:1003100011E0A8E4B1E001C01D92AA3DB107E1F7E8
:1003200012E0CCEED2E004C02297FE010E946B0DD9
:10033000C43ED107C9F70E948C070C946F0D0C9432
:1003400000008130910571F46F5F7F4FD1F488E434
:1003500091E00E941D0284E191E090934901809315
:1003600048010895892B69F46F5F7F4F51F48FE145
:1003700091E0909349018093480188E491E00E94C4
:100380002D02089580E090E06FEF7FEF0E94A101C1
:10039000089581E090E06FEF7FEF0E94A101089542
:1003A00088E491E068E571E041E00E947D0280917F
:1003B0005A0190915B01893C910528F486E990E00F
:1003C00060E070E00EC080915E0190915F01893C19
:1003D000910518F480E090E002C086E990E066E9BB
:1003E00070E00E94350408950F93DF93CF9300D0FF
:1003F00000D00F92CDB7DEB7062FDE011196E6E1F1
:10040000F1E025E001900D922150E1F7BE016F5F10
:100410007F4F45E020ED37E00E94B5030F900F902D
:100420000F900F900F90CF91DF910F91089588E476
:1004300091E06BE00E94F4010895FC018FE191E0EE
:10044000918380831382128215821482178216820E
:1004500011861086138612860895CF93DF93EC01E0
:1004600085E291E0998388838A859B85009711F0C6
:100470000E94DD048C819D81009711F00E94DD04B3
:1004800088859985009711F00E94DD048A819B81FF
:10049000009711F00E94DD048E819F81009711F07A
:1004A0000E94DD04DF91CF910895CF93DF93EC019B
:1004B0008D858F3F59F061E00E949C068D8561E03B
:1004C0000E94290788EC90E00E943C06DF91CF91C2
:1004D0000895CF93DF93EC018D858F3F59F061E054
:1004E0000E949C068D8560E00E94290788EC90E0C0
:1004F0000E943C06DF91CF910895CF92DF92EF9258
:10050000FF920F931F93DF93CF93CDB7DEB7A097E2
:100510000FB6F894DEBF0FBECDBF7C016B01042F78
:10052000842F8150823020F4C7010E94550203C0FD
:10053000C7010E946902D701ED91FC910190F08101
:10054000E02DC701B6010995C7010E94690202307A
:1005500071F5D701ED91FC910190F081E02DC7017B
:100560008E010F5F1F4FB801099540E0B8011AC016
:10057000E42FF0E0EE0FFF1F86010E0F1F1FE60FA6
:10058000F71FD7011E962D913C911F978081918175
:10059000281B390BF80180819181820F931F918371
:1005A00080834F5FD7011C968C91481708F3A09663
:1005B0000FB6F894DEBF0FBECDBFCF91DF911F9174
:1005C0000F91FF90EF90DF90CF9008956F927F9200
:1005D0008F929F92AF92BF92CF92DF92FF920F9332
:1005E0001F93CF93DF93EC013B018A859B85892B79
:1005F00009F473C0FF241CC00F2D10E0F801EE0FAA
:10060000FF1FE60DF71D8E859F8591838083EA8508
:10061000FB85E00FF11F808161E00E942907EA85D8
:10062000FB85E00FF11F808161E00E949C06F3943E
:100630008C85F81608F38AE090E00E943C06FF24BF
:1006400013C00F2D10E0EA85FB85E00FF11F8081BC
:1006500060E00E949C06EA85FB85E00FF11F808127
:1006600060E00E942907F3948C85F81650F30E94ED
:10067000BD055B016C0122C00E94BD054B018A18BB
:100680009B08FF2418C00F2D10E0EA85FB85E00FC2
:10069000F11F80810E945C07892B61F4F801EE0F45
:1006A000FF1FE60DF71D808191818816990610F4D1
:1006B00091828082F3948C85F81628F30E94BD0500
:1006C0006A197B098C099D092E853F8540E050E021
:1006D000621773078407950778F2DF91CF911F9116
:1006E0000F91FF90DF90CF90BF90AF909F908F9031
:1006F0007F906F900895FF920F931F93CF93DF9396
:10070000EC018B01F22E1B821A821D821C821F8239
:100710001E8219861886413118F080E18C8701C04D
:100720004C878A859B85892B11F090E014C08C85BD
:1007300090E00E9440049B878A870097B1F70FC022
:10074000E92FF0E0AA85BB85AE0FBF1FE00FF11FB8
:1007500080818C939F5F8C85981790F3FD86DF9145
:10076000CF911F910F91FF900895CF92DF92EF925A
:10077000FF920F937C016901202F0E947B03F701F8
:10078000D786C6860F91FF90EF90DF90CF900895A7
:100790002E98269A2D98259A2A98229A2998219A55
:1007A00080EA8093800081E18093810080E991E07C
:1007B00090938700809386001092890010928800A1
:1007C00010928B0010928A00089580916301882313
:1007D00029F481E0809363010E94C8030895CF93B8
:1007E000DF93EC010E94E503D7FD02C020E004C0C6
:1007F000D095C195DF4F21E0CE0131E0C139D3075B
:1008000014F080E991E090938B0080938A008091AE
:100810006401281711F02A9A01C02A98229ADF91C0
:10082000CF910895CF93DF93EC010E94E503D7FDAC
:1008300002C020E004C0D095C195DF4F21E0CE0179
:1008400031E0C139D30714F080E991E09093890039
:100850008093880080916201281711F0299A01C0C5
:100860002998219ADF91CF9108950F931F938B01BF
:100870000E94EF03C8010E9412041F910F91089576
:100880000F931F93CF93DF93BC018230910510F437
:1008900062E070E0E091D801F091D901A0E0B0E011
:1008A00040E050E024C08081918186179707D0F006
:1008B0008617970771F482819381109729F0139618
:1008C0009C938E9312972CC09093D9018093D8015A
:1008D00027C04115510519F08417950718F4EF0149
:1008E0008D01AC01DF01828193819C01F901309778
:1008F000D1F641155105F9F0CA01861B970B8430DA
:10090000910580F48A819B810115110521F0F80180
:100910009383828304C09093D9018093D801FE0110
:10092000329645C0FE01E80FF91F6193719302975B
:10093000998388833CC08091D6019091D701892BFF
:1009400041F480910201909103019093D70180932B
:10095000D60140910401509105014115510541F422
:100960004DB75EB78091000190910101481B590B72
:100970002091D6013091D70124173507B0F4CA0170
:10098000821B930B8617970780F0AB014E5F5F4F7A
:100990008417950750F0420F531F5093D70140938F
:1009A000D601F9016193719302C0E0E0F0E0CF015C
:1009B000DF91CF911F910F910895CF93DF939C0109
:1009C000009709F48FC0EC0122971B821A82609174
:1009D000D8017091D9016115710581F488819981DF
:1009E000820F931F2091D6013091D7012817390724
:1009F00039F5D093D701C093D60174C0DB0140E034
:100A000050E0AC17BD0708F1BB83AA83FE0121911A
:100A10003191E20FF31FAE17BF0779F48D919C91CE
:100A20001197280F391F2E5F3F4F39832883129665
:100A30008D919C9113979B838A834115510571F485
:100A4000D093D901C093D8014DC012968D919C913D
:100A50001397AD01009711F0DC01D3CFDA011396A3
:100A6000DC93CE931297FA0121913191E20FF31F9B
:100A7000CE17DF0769F488819981280F391F2E5F0F
:100A80003F4FFA01318320838A819B819383828344
:100A9000E0E0F0E0DB0112968D919C9113970097B6
:100AA00019F0BC01FD01F6CFAB014E5F5F4FDB01DA
:100AB0008D919C91840F951F2091D6013091D70183
:100AC0002817390779F4309729F41092D901109238
:100AD000D80102C013821282425050405093D70175
:100AE0004093D601DF91CF9108951F920F920FB6D8
:100AF0000F9211242F933F938F939F93AF93BF93A4
:100B00008091690190916A01A0916B01B0916C0193
:100B100030916D010196A11DB11D232F2D5F2D3741
:100B200020F02D570196A11DB11D20936D018093DA
:100B3000690190936A01A0936B01B0936C0180915D
:100B4000650190916601A0916701B09168010196DD
:100B5000A11DB11D8093650190936601A09367016B
:100B6000B0936801BF91AF919F918F913F912F9169
:100B70000F900FBE0F901F9018959FB7F89420917B
:100B8000650130916601409167015091680186B519
:100B9000A89B06C08F3F21F02F5F3F4F4F4F5F4F05
:100BA0009FBF542F432F322F2227280F311D411D65
:100BB000511D82E0220F331F441F551F8A95D1F724
:100BC000B901CA0108959B01AC017FB7F8948091E7
:100BD000650190916601A0916701B091680166B5C9
:100BE000A89B05C06F3F19F00196A11DB11D7FBFE5
:100BF000BA2FA92F982F8827860F911DA11DB11DEF
:100C000062E0880F991FAA1FBB1F6A95D1F7BC012C
:100C10002DC0FFB7F8948091650190916601A09175
:100C20006701B0916801E6B5A89B05C0EF3F19F0D8
:100C30000196A11DB11DFFBFBA2FA92F982F88279C
:100C40008E0F911DA11DB11DE2E0880F991FAA1FF3
:100C5000BB1FEA95D1F7861B970B885E9340C8F2BD
:100C6000215030404040504068517C4F21153105A3
:100C70004105510571F60895019739F0880F991FC4
:100C8000880F991F02970197F1F70895789484B51A
:100C9000826084BD84B5816084BD85B5826085BD78
:100CA00085B5816085BDEEE6F0E08081816080835E
:100CB000E1E8F0E010828081826080838081816041
:100CC0008083E0E8F0E0808181608083E1E9F0E00A
:100CD000808182608083808181608083E0E9F0E0B0
:100CE000808181608083E1ECF0E08081846080839A
:100CF000808182608083808181608083E3ECF0E08A
:100D0000808181608083E0ECF0E08081826080837C
:100D1000E2ECF0E0808181608083EAE7F0E08081AE
:100D20008460808380818260808380818160808311
:100D30008081806880830895CF93DF93482F50E0AF
:100D4000CA018C509F4FFC0134914A525F4FFA0107
:100D50008491882369F190E0880F991FFC01E45584
:100D6000FF4FA591B491FC01E654FF4FC591D4917A
:100D7000662351F42FB7F8948C91932F9095892383
:100D80008C93888189230BC0623061F42FB7F8946B
:100D90008C91932F909589238C938881832B8883C2
:100DA0002FBF06C09FB7F8948C91832B8C939FBF65
:100DB000DF91CF910895883071F1893068F48230E5
:100DC00031F1833020F4813009F042C01DC08330FE
:100DD00089F08430E9F512C08B3059F18C3028F459
:100DE0008930E9F08A30A1F51EC08C3031F18E30A7
:100DF00079F529C0809180008F7703C080918000B1
:100E00008F7D80938000089584B58F7702C084B56C
:100E10008F7D84BD0895809190008F7707C0809169
:100E200090008F7D03C080919000877F8093900019
:100E300008958091C0008F7703C08091C0008F7D9E
:100E40008093C00008958091C200877F8093C20084
:100E50000895FF920F931F93F62E482F50E0CA017A
:100E60008E5E9E4FFC012491CA018C509F4FFC0165
:100E700014914A525F4FFA0104910023C9F02223D2
:100E800019F0822F0E94DB06E02FF0E0EE0FFF1F2B
:100E9000E654FF4FA591B4919FB7F894FF2021F439
:100EA0008C911095812302C08C91812B8C939FBFD4
:100EB0001F910F91FF9008950F931F93482F50E0BB
:100EC000CA018E5E9E4FFC012491CA018C509F4F37
:100ED000FC0104914A525F4FFA011491112319F455
:100EE00020E030E015C0222319F0822F0E94DB069B
:100EF000812F90E0880F991F88539F4FFC01A59187
:100F0000B4918C9120E030E0802311F021E030E0BA
:100F1000C9011F910F910895CF93DF930E94460658
:100F200086E791E00E9454080E941702C0E0D0E0DA
:100F30000E94D0012097E1F30E940000F9CF0895AC
:100F4000282F809170018823C1F057FF1AC015C067
:100F5000289890936F018091F1008193E217F30735
:100F6000B9F74115510539F08091F200882319F441
:100F70008BE68093E800AFBF02C04FEF5FEFCA017E
:100F80000895AFB7F89427702093E9008091F2009C
:100F9000282F30E0241735070CF4A901FB019B0131
:100FA000240F311D94E6DACFDF93CF930F92CDB7A4
:100FB000DEB7BE016F5F7F4F41E050E00E94A007A7
:100FC000019719F02FEF3FEF03C08981282F30E000
:100FD000C9010F90CF91DF910895FF920F931F9356
:100FE000F82E142F052F4091730150917401212F79
:100FF000302FC901DC01FB016EEF29C0F7FE02C0F2
:10100000949101C090812091710130917201241757
:101010003507ACF48091E8008570E1F38091E80039
:1010200082FF03C02FEF3FEF17C09093F100C9017B
:1010300001968F739070892B11F46093E8002F5FF5
:101040003F4F3093720120937101119731961097A1
:10105000A9F6812F902F9C01C9011F910F91FF903C
:1010600008959C018091E80082FFFCCFF901260FD2
:10107000311D03C08091F1008193E217F307D1F78E
:10108000289884E680936F018BEF8093E800CB0172
:1010900008958093E9008091F200882319F08AE393
:1010A0008093E800089508951092700181E0809384
:1010B000D70080EA8093D80082E189BD09B400FEA0
:1010C000FDCF61E070E080E090E00E94E30580E900
:1010D0008093D8008CE08093E2001092E000559A53
:1010E000209A08955F926F927F928F929F92AF9213
:1010F000BF92CF92DF92EF92FF920F931F93CF9305
:10110000DF93E82E842E752E80917001882371F173
:101110008B01242F352FC901EC017AEFF72E67E000
:10112000962E9E2050E4552E8E2D90E040E2A42E67
:10113000B12CA822B9223AE3632E20E4C22ED12C8E
:10114000C822D92258C09FB7F8949092E9008091A4
:10115000E80085FD02C020E004C08091F200252D4A
:10116000281B9FBF222361F4FA9419F42FEF3FEF5D
:101170004DC061E070E080E090E00E94E3053BC07C
:10118000822F90E0C817D9070CF42C2FC21BD1096D
:101190004FB7F8949092E900A114B10421F406C06D
:1011A0001092F10021502223D9F719C0E7FC03C0A7
:1011B000F801922F10C0C801322F06C0FC01019621
:1011C000E491E093F10031503323C1F706C08191DF
:1011D0008093F10091509923D1F7020F111D809156
:1011E000E80085FF05C0209729F4C114D10411F04F
:1011F0006092E8004FBF209709F0A5CF5D9884E684
:1012000080936E01282D372DC9019C01C901DF9102
:10121000CF911F910F91FF90EF90DF90CF90BF90F3
:10122000AF909F908F907F906F905F9008951F92E6
:101230000F920FB60F9211242F933F934F935F930A
:101240006F937F938F939F93AF93BF93EF93FF938E
:101250008091E1001092E100982F83FF0FC010925F
:10126000E90081E08093EB001092EC0082E3809330
:10127000ED001092700188E08093F00092FF34C07E
:1012800083E08093E9008091F200882319F08AE3DB
:101290008093E8008FB7F89492E09093E9009091E2
:1012A000F2008FBF992321F088EC91E00E94B70CE7
:1012B00080916E01882351F080916E01815080935E
:1012C0006E0180916E01882309F45D9A80916F010F
:1012D000882351F080916F01815080936F0180913C
:1012E0006F01882309F4289AFF91EF91BF91AF9184
:1012F0009F918F917F916F915F914F913F912F912E
:101300000F900FBE0F901F9018950F931F93DF93B0
:10131000CF930F92CDB7DEB719828E010F5F1F4FAB
:10132000C8010E94DD0CC8010E941E0C898190E05A
:101330000F90CF91DF911F910F9108951F920F92FF
:101340000FB60F921124EF92FF921F932F933F93AA
:101350004F935F936F937F938F939F93AF93BF93BD
:10136000EF93FF93DF93CF93CDB7DEB76197DEBFE7
:10137000CDBF1092E9008091E80083FF0FC1FE010C
:1013800031969E01275F3F4F03C08091F10081930A
:10139000E217F307D1F7289884E680936F0182EF74
:1013A0008093E800998197FF05C08091E80080FF55
:1013B000FCCF03C08EEF8093E800292F30E0C901F5
:1013C00080769070892B09F0C2C08A81882329F425
:1013D0001092F1001092F100D6C0813009F4D3C010
:1013E000833009F4D0C0853049F48091E80080FF53
:1013F000FCCF8B8180688093E300C5C0863009F004
:101400007CC01C81EF80F8841230C1F51092E90095
:101410001092720110927101109274011092730176
:101420000E94850999E0FE013996DF01292F1D925E
:101430002A95E9F799871A8791E09E8790E8988B1B
:101440009AEF998B2091710130917201275F3F4F84
:101450003C872B878D871092E900109272011092C1
:101460007101F0927401E092730180E0BF0149E0E4
:1014700050E00E94ED070E94850985C01092E900A6
:101480001092720110927101F0927401E092730156
:10149000123241F482E290E00E94160C892B09F48A
:1014A00076C071C0113079F488E0E816F10419F4BF
:1014B00081E08093750180917501882309F06BC0EC
:1014C000EAE7F1E013C0133009F061C08B81882393
:1014D00019F4ECE3F1E00AC0823019F4E0E4F1E041
:1014E00005C0813009F053C0E2E6F1E0449180E8A4
:1014F000BF0150E00E94ED0746C0873009F447C0A5
:10150000883021F481E08093F1003DC08930D9F525
:1015100023703070232BD9F5EFE9F1E091E031E051
:1015200026E39093E9003093EB0084918093EC00E4
:101530002093ED009F5F3196953099F78EE7809369
:10154000EA001092EA008B81809370011CC08F81A9
:1015500098851092E9001092720110927101909397
:101560007401809373018D81882329F4CE01019643
:101570000E94E90C06C0823051F4CE0101960E940F
:10158000E70A882321F08EEF8093E80007C081E20C
:101590008093EB0003C0ECE8F1E0A8CF6196DEBFDA
:1015A000CDBFCF91DF91FF91EF91BF91AF919F910F
:1015B0008F917F916F915F914F913F912F911F91EB
:1015C000FF90EF900F900FBE0F901F901895FC01A9
:1015D00091818081813A31F4913089F080E09330BB
:1015E00089F40DC0813269F49B3021F482818093AB
:1015F000060105C09A3029F482818093070181E0B9
:10160000089580E00895EF92FF920F931F938C014D
:10161000E62EDC01ED91FC910480F581E02D099529
:10162000F82ED801ED91FC910680F781E02DC801DC
:101630006E2D09958F2D90E01F910F91FF90EF90E7
:1016400008951092770110927B0110927A018BE23B
:1016500091E090937901809378010895EF92FF9241
:101660000F931F93DF93CF930F92CDB7DEB789838C
:101670008B017A0184E0BE016F5F7F4F41E050E053
:101680000E94720884E4B801A7010E9472080F90BA
:10169000CF91DF911F910F91FF90EF90089582E01D
:1016A00048E050E00E942E0B0895FC01168217823C
:1016B000108611861286138614823496BF010E940A
:1016C0004F0B0895DC01683810F0685829C0E62FE8
:1016D000F0E067FF13C0E058F04081E090E002C006
:1016E000880F991FEA95E2F7809514962C9114972C
:1016F000282314962C93149760E012C0EF5DFD4FE1
:101700006491662319F420E030E01DC067FF08C033
:1017100014968C9114978D7F14968C9314976F77F1
:10172000FD0190E0662321F08681861709F4168278
:101730009F5F31969630B1F7CD011496BD010E949E
:101740004F0B21E030E0C9010895CF93DF93DC0116
:10175000683810F0685825C0E62FF0E067FF12C027
:10176000E058F04081E090E002C0880F991FEA95B0
:10177000E2F714962C911497282B14962C93149717
:1017800060E00FC0EF5DFD4F64916623D9F167FF04
:1017900008C014968C911497826014968C931497B9
:1017A0006F7716968C9116978617A9F117968C91DC
:1017B0001797861781F118968C911897861759F10B
:1017C00019968C911997861731F11A968C911A9760
:1017D000861709F11B968C911B978617E1F0ED0196
:1017E000E0E0F0E09E2F8E81882321F4EA0FFB1FBA
:1017F000668306C09F5F31962196E630F10591F72A
:10180000963049F481E090E013969C938E93129762
:1018100020E030E007C0CD011496BD010E944F0BBF
:1018200021E030E0C901DF91CF91089580E863EABB
:1018300071E045E650E00E94ED070895FC018081CB
:101840008F5F808380E868E072E049E150E00E94A9
:10185000ED0708952091C4013091C5018091C60122
:101860009091C701281B390B2F733070C90108955F
:101870002091C4013091C5018091C6019091C701AA
:101880002817390719F42FEF3FEF09C0E091C6017F
:10189000F091C701EC57FE4F8081282F30E0C9013D
:1018A00008952091C4013091C5018091C6019091A5
:1018B000C7012817390719F42FEF3FEF13C0E09144
:1018C000C601F091C701EC57FE4F20818091C601FF
:1018D0009091C70101968F7390709093C701809388
:1018E000C60130E0C90108951092CB011092CA01DF
:1018F00088EE93E0A0E0B0E08093CC019093CD011E
:10190000A093CE01B093CF0189E391E09093C901F8
:101910008093C80108950F931F93DF93CF930F9285
:10192000CDB7DEB78C01698380910F01882369F000
:1019300083E0BE016F5F7F4F41E050E00E9472087C
:101940001816190614F49C0107C081E090E0F80114
:101950009383828320E030E0C9010F90CF91DF9123
:101960001F910F91089583E00E9449080895CF9335
:10197000DF9312C082E00E94D4072FEF8F3F9207BF
:10198000C9F0E091C401F091C501EC57FE4F80838E
:10199000D093C501C093C401C091C401D091C501C9
:1019A0002196CF73D0708091C6019091C701C8175E
:1019B000D90701F7DF91CF910895FC0180818E5FF7
:1019C000808380E861EA72E042E450E00E94ED0723
:1019D0000895FC0181819081913A59F4813209F096
:1019E0004CC080E068E071E047E050E00E94ED0705
:1019F00042C0913209F041C0803239F488E091E070
:101A000067E070E00E94310836C0823209F035C0CC
:101A1000828180930F018091080190910901A0912A
:101A20000A01B0910B01805B9440A040B04019F5D1
:101A300080910F0180FD12C087E797E7909301081E
:101A4000809300082BE088E190E00FB6F894A89509
:101A5000809360000FBE209360000DC088E10FB638
:101A6000F89480936000109260000FBEA8951092C9
:101A700001081092000881E0089580E00895CF9257
:101A8000DF92EF92FF920F931F93CF93DF937C012E
:101A90006B018A01C0E0D0E00FC0D6016D916D01ED
:101AA000D701ED91FC910190F081E02DC7010995DE
:101AB000C80FD91F015010400115110571F7CE0153
:101AC000DF91CF911F910F91FF90EF90DF90CF901A
:101AD0000895EE0FFF1F0590F491E02D099412E098
:101AE000CCEED2E004C0FE010E946B0D2296CE3EE9
:081AF000D107C9F7F894FFCFFC
:101AF8008000DA010000010100E1000000000000A0
:101B080000000000E602120115000C00000000E6CB
:101B180002000000009F0700000000030B3F0DA516
:101B28000B620B550B000000008B0C3F0D2A0C516B
:081B38000C380CB30CB70C00D3
:00000001FF
