:100000000C947E010C94A6010C94A6010C94A601FC
:100010000C94A6010C94A6010C94A6010C94A601C4
:100020000C94A6010C94A6010C948E0D0C94400C1B
:100030000C94A6010C94A6010C94A6010C94A601A4
:100040000C94A6010C94A6010C94A6010C94A60194
:100050000C94A6010C94A6010C94A6010C9497078D
:100060000C94A6010C94A6010C94A6010C94A60174
:100070000C94A6010C94A6010C94A6010C94A60164
:100080000C94A6010C94A6010C94A6010C94A60154
:100090000C94A6010C94A6010C94A6010C94A60144
:1000A0000C94A6010C94A6010C94A601C609C909DA
:1000B000BC09C009EA09EA09EA09CD09D109D5094B
:1000C000DB09DF09EA09E5090000000200080E006B
:1000D00000030401000B000000000000000000000D
:1000E00000000000000004080201104080401020C1
:1000F00040804080080204018040201002011080EE
:100100001020404004040404040304050202020217
:1001100004030202020206060606060604040202A0
:100120000204000000002300260029002C002F00FC
:1001300000000000250028002B002E0031000000E8
:100140000000240027002A002D00300000C180811B
:10015000C11201000202000040412336800001016B
:10016000020001120100020000004041233680001D
:10017000010102000118034100720064007500696A
:10018000006E006F0020004C004C00430022034131
:100190000072006400750069006E006F0020004C62
:1001A0000065006F006E006100720064006F000463
:1001B00003090400000000000000002A2B280000B2
:1001C000000000000000000000000000000000002F
:1001D0000000002C9EB4A0A1A2A434A6A7A5AE3610
:1001E0002D3738271E1F20212223242526B333B67E
:1001F0002EB7B89F8485868788898A8B8C8D8E8F51
:10020000909192939495969798999A9B9C9D2F3153
:1002100030A3AD350405060708090A0B0C0D0E0FB7
:10022000101112131415161718191A1B1C1DAFB133
:10023000B0B500090402000103000000092101011A
:100240000001226500070584034000010501090241
:10025000A1010901A1008501050919012903150062
:10026000250195037501810295017505810305013D
:100270000930093109381581257F750895038106F4
:10028000C0C005010906A1018502050719E029E79B
:1002900015002501750195088102950175088103F6
:1002A0009506750815002565050719002965810063
:1002B000C0080B0002020201000904000001020252
:1002C0000000052400100105240101010424020698
:1002D0000524060001070581031000400904010000
:1002E000020A000000070502024000000705830221
:1002F000400000003F02230F4F10570211241FBE81
:10030000CFEFDAE0DEBFCDBF11E0A0E0B1E0E8EB77
:10031000F1E202C005900D92A435B107D9F711E0C2
:10032000A4E5B1E001C01D92A63FB107E1F712E0DC
:10033000CAEFD2E004C02297FE010E94BC10C43F65
:10034000D107C9F70E94830A0C94CF100C940000C7
:10035000CF93DF9368EE73E080E090E00E940408A2
:10036000C1EEDFEFCC33D10528F468EC70E088E310
:100370009FEF04C068E37FEF88EC90E00E948D0758
:1003800061E08CE691E00E94E8042196C935D10530
:1003900049F760E070E080E090E0DF91CF910C944D
:1003A0008D070F93CF93DF9300D000D01F92CDB76E
:1003B000DEB785E0E0E1F1E0DE01119601900D92FB
:1003C0008A95E1F70BE020ED37E045E0BE016F5F75
:1003D0007F4F8CE691E00E94650680E691E00E94E6
:1003E000DD060E94A8010F900F900F900F900F90C4
:1003F000DF91CF910F91089520E041E064E571E035
:100400008CE691E00E94C605805D97409C0197FFB5
:1004100002C02D5F3F4F3595279535952795409123
:100420005E0150915F01BC01641B750BE6E0E69F25
:10043000A001E79F500D1124240F351F90935F01F9
:1004400080935E0160E971E0621B730B20573E4FA1
:10045000213981E0380714F020E931E0613981E089
:10046000780714F060E971E077FF02C060E070E0A7
:10047000C90137FF02C080E090E00C948D078CE644
:1004800091E00E9455068FE191E090936D01809379
:100490006C0121E041E06EE080E691E00E94E70619
:1004A00089E191E0909361018093600108958BE26E
:1004B00091E090936D0180936C018CE691E00C9437
:1004C00077066F927F928F929F92AF92BF92CF9258
:1004D000DF92EF92FF920F931F93CF93DF93EC0184
:1004E0008B018A859B85892B09F474C0D12C8C855E
:1004F000D816E8F4ED2CF12C8E859F85F701EE0FD0
:10050000FF1FE00FF11F91838083EA85FB85EE0DCD
:10051000FF1D61E080810E94240AEA85FB85EE0DC3
:10052000FF1D61E080810E94EB09D394E0CF8AE057
:1005300090E00E942A08D12C8C85D816A0F4ED2CCE
:10054000F12CEA85FB85EE0DFF1D60E080810E94A5
:10055000EB09EA85FB85EE0DFF1D60E080810E94BE
:10056000240AD394E9CF0E94E1076B017C010E9429
:10057000E1076C197D098E099F092E853F85490188
:10058000A12CB12C681579058A059B0518F50E94E8
:10059000E1073B016C187D08912C8C85981638F783
:1005A000A92CB12CAA85BB85AA0DBB1D8C910E94DC
:1005B0005A0A892B51F4F501EE0FFF1FE00FF11FCE
:1005C000808191816816790610F09394E6CF71824C
:1005D0006082FBCFDF91CF911F910F91FF90EF9041
:1005E000DF90CF90BF90AF909F908F907F906F9053
:1005F0000895EF92FF920F931F93CF93DF931F9273
:10060000CDB7DEB77C018B01DC0113961C921E92E4
:10061000129715961C921E92149717961C921E9272
:10062000169719961C921E921897413120F080E17E
:100630001C968C9302C0FC014487D7011A968D91B9
:100640009C911B97892B11F030E00FC0F701848536
:1006500090E029830E948B08D7011B969C938E9370
:100660001A972981892B81F715C0F70184853817DE
:1006700080F4832F90E0F801E80FF91F4081D70143
:100680001A96ED91FC911B97E80FF91F40833F5F8D
:10069000ECCF25870F90DF91CF911F910F91FF90A5
:1006A000EF900895CF93DF93EC018D858F3F69F034
:1006B00061E00E94EB0960E08D850E94240A88ECCD
:1006C00090E0DF91CF910C942A08DF91CF910895AB
:1006D000CF93DF93EC018D858F3F69F061E00E943D
:1006E000EB0961E08D850E94240A88EC90E0DF919F
:1006F000CF910C942A08DF91CF910895DF92EF9269
:10070000FF920F931F93CF93DF93CDB7DEB7A097E0
:100710000FB6F894DEBF0FBECDBF8C017B01D42E87
:100720008FEF840F823020F4C8010E94680303C059
:10073000C8010E945203D801ED91FC910190F08113
:10074000E02DB701C8010995C8010E945203B2E02B
:10075000DB122FC0D801ED91FC910190F081E02DCA
:10076000BE016F5F7F4FC801099540E0F8018485A5
:100770004817F8F4842F90E0880F991FF701E80FCD
:10078000F91F21E030E02C0F3D1F820F931FD8018D
:100790001E962D913C911F97DC018D919C91281BF9
:1007A000390B80819181820F931F918380834F5FEA
:1007B000DDCFA0960FB6F894DEBF0FBECDBFDF91A0
:1007C000CF911F910F91FF90EF90DF9008952F929E
:1007D0003F925F926F927F928F929F92AF92BF9261
:1007E000CF92DF92EF92FF920F931F93CF93DF93FD
:1007F000CDB7DEB7C056D1090FB6F894DEBF0FBE35
:10080000CDBF8C014B015A01522EDA018D919C9182
:10081000892B31F0F40180819181892BF1F424C07E
:10082000D8011C968C9190E0880F991F0E948B082C
:10083000F50191838083009709F4B1C0FC0120E0A9
:1008400030E0D8011C968C9190E02817390714F7F6
:10085000119211922F5F3F4FF4CFE12CF12C6E01DA
:10086000B1E2CB0ED11C21C0F801848590E0880F45
:10087000991F0E948B08D4018D939C93009709F4D3
:100880008EC0FC0120E030E0D8011C968C9190E0F5
:100890002817390714F7D8011E968D919C911F9740
:1008A000819391932F5F3F4FEFCF452DBE016F5B3B
:1008B0007F4FC8010E947E03F8016484712CFE0101
:1008C000EF5BFF4FC6019E012F5F3F4F190120E0F4
:1008D00030E0261537054CF5E114F10489F0DC0110
:1008E0006D917C91408151816417750748F0D10169
:1008F0006D917C91408151814617570748F00DC09A
:1009000040815181DC014D935C93E114F10479F74E
:1009100040815181D1014D935C932F5F3F4FB2E0F5
:100920002B0E311C32960296D4CFEFEFEE1AFE0A50
:10093000FAE0EF16F10409F0B8CF9E012F5F3F4FA8
:100940007901360180E090E0F801248530E08217DB
:1009500093072CF5D7012D913D917D01B3016C19C1
:100960007D09D501ED91FC91E60FF71F4081518182
:100970004217530710F431832083F3012191319101
:100980003F01D401ED91FC91E60FF71F40815181A9
:100990002417350710F4318320830196D5CFC05A30
:1009A000DF4F0FB6F894DEBF0FBECDBFDF91CF9102
:1009B0001F910F91FF90EF90DF90CF90BF90AF907D
:1009C0009F908F907F906F905F903F902F900895B1
:1009D0001F93CF93DF93EC01162F8FEF860F82309A
:1009E00018F0662369F019C021E0AE014C5F5F4F3B
:1009F000BE016E5F7F4FCE010E94E703123069F4A3
:100A0000AE01485F5F4FBE016A5F7F4F20E0CE01BD
:100A1000DF91CF911F910C94E703DF91CF911F914C
:100A20000895BF92CF92DF92EF92FF920F931F93A0
:100A3000CF93DF93EC018B01B42E842F8D7F51F483
:100A40008E819F81892B09F497C088859985892B90
:100A500009F492C08FEF8B0D823050F48A819B8114
:100A6000892B09F489C08C819D81892B09F484C06C
:100A70004B2DB801CE010E947E03780100E010E00A
:100A8000C12CD12C8C8590E0C816D9060CF074C00E
:100A900081E0B8120AC0EC81FD81E00FF11F0190E6
:100AA000F081E02DAA81BB810DC08E819F812885B8
:100AB0003985B1100CC0F901E00FF11F0190F081F0
:100AC000E02DDC01A00FB11F8D919C9128C0FC018D
:100AD000E00FF11F40815181EA81FB81E00FF11F9E
:100AE00080819181EE85FF854817590710F4CF0169
:100AF00004C08E0F9F1F841B950BD901A00FB11F3F
:100B00002D913C91AC81BD81A00FB11F4D915C91A5
:100B10002417350720F0E40FF51FE21BF30BE81B49
:100B2000F90BA9F0D7012D913C9140E050E0281B32
:100B3000390B41095109A8EEB3E00E9466109F01EC
:100B400040E050E00E949B1037FD0AC002C020E048
:100B500030E0293EB3E03B072CF028EE33E002C042
:100B600020E030E0F701219331937F01FFEFCF1AAE
:100B7000DF0A0E5F1F4F86CFDF91CF911F910F913C
:100B8000FF90EF90DF90CF90BF9008952F923F920B
:100B90004F925F926F927F928F929F92AF92BF928D
:100BA000CF92DF92EF92FF920F931F93CF93DF9339
:100BB000EC018B01822E0E9411052C84E801412C4E
:100BC000512C320100E010E0C12CD12C7601312CE7
:100BD000912CE8EEAE2EE3E0BE2E921421F1E991C5
:100BE000F991882021F0C5018E1B9F0BFC01E93C87
:100BF000F10524F4E536F10574F002C03324339492
:100C0000DF01A30192010E947110C60ED71EE81EDB
:100C1000F91E0E0F1F1F939498EE490E93E0591E74
:100C2000611C711CDACF31101EC0492D50E04150BB
:100C3000510924EF31E0429FC001439F900D529F24
:100C4000900D112420917C0130917D0128173907E6
:100C5000B4F088EE93E0489F9001499F300D589F73
:100C6000300D11240EC0980140E050E0C701B601DC
:100C70000E94791030937D0120937C0102C020E016
:100C800030E0C901DF91CF911F910F91FF90EF905C
:100C9000DF90CF90BF90AF909F908F907F906F909C
:100CA0005F904F903F902F900895FC018BE291E070
:100CB0009183808313821282158214821782168296
:100CC00011861086138612860895EF92FF920F9375
:100CD000CF93DF93EC017901202F0E94F902FF8668
:100CE000EE86DF91CF910F91FF90EF900895CF9313
:100CF000DF93EC0185E291E0998388838A859B8567
:100D0000009711F00E9423098C819D81009711F0BA
:100D10000E94230988859985009711F00E94230974
:100D20008A819B81009711F00E9423098E819F8107
:100D3000009721F0DF91CF910C942309DF91CF919F
:100D40000895CF93DF93EC01E881F9810190F08160
:100D5000E02DCE0109958823B9F36AE070E080E0C8
:100D600090E00E940408E881F9810190F081E02D73
:100D7000CE010995882341F3DF91CF910895CF9358
:100D8000DF93EC01E881F9810190F081E02DCE0143
:100D900009958111F7CF6AE070E080E090E00E9451
:100DA0000408E881F9810190F081E02DCE010995D8
:100DB0008111E8CFDF91CF910895CF93DF93EC01BC
:100DC0000E94A106CE01DF91CF910C94BF06FC01D9
:100DD0001282158281E391E091838083108661877E
:100DE00081E0411101C080E0828781E0211101C0D2
:100DF00080E083870895FC018285882311F062E0FA
:100E000001C060E081850E94EB0985E090E00C94D0
:100E10002A08CF93DF93EC018885811105C081E01A
:100E20008887CE010E94FB0689850E945A0A2B857D
:100E300030E041E08217930709F440E0842FDF910E
:100E4000CF9108952E98269A2D98259A2A98229A1D
:100E50002998219A80EA8093800081E18093810023
:100E600080E991E09093870080938600109289003A
:100E70001092880010928B0010928A000895809141
:100E80007E01811105C081E080937E010C942207D0
:100E90000895CF93DF93EC010E943F07D7FF05C071
:100EA000D195C195D10981E001C080E0C13991E0BF
:100EB000D90714F0C0E9D1E0D0938B00C0938A0029
:100EC00090918001891711F02A9A01C02A98229ADC
:100ED000DF91CF910895CF93DF93EC010E943F07FC
:100EE000D7FF05C0D195C195D10981E001C080E04F
:100EF000C13991E0D90714F0C0E9D1E0D09389005D
:100F0000C093880090917F01891711F0299A01C040
:100F10002998219ADF91CF910895CF93DF93EB0128
:100F20000E944907CE01DF91CF910C946B071F926D
:100F30000F920FB60F9211242F933F938F939F938D
:100F4000AF93BF938091820190918301A09184011E
:100F5000B09185013091810123E0230F2D3720F4DA
:100F60000196A11DB11D05C026E8230F0296A11D03
:100F7000B11D209381018093820190938301A093FE
:100F80008401B09385018091860190918701A091A1
:100F90008801B09189010196A11DB11D8093860140
:100FA00090938701A0938801B0938901BF91AF917D
:100FB0009F918F913F912F910F900FBE0F901F9097
:100FC00018953FB7F8948091860190918701A09180
:100FD0008801B091890126B5A89B05C02F3F19F063
:100FE0000196A11DB11D3FBF6627782F892F9A2F2B
:100FF000620F711D811D911D42E0660F771F881FD2
:10100000991F4A95D1F70895CF92DF92EF92FF9200
:10101000CF93DF936B017C010E94E107EB01C114C8
:10102000D104E104F10479F00E94E1076C1B7D0B0F
:10103000683E7340A0F381E0C81AD108E108F108C6
:10104000C851DC4FECCFDF91CF91FF90EF90DF9054
:10105000CF9008950197009739F0880F991F880F56
:10106000991F02970197F1F70895789484B58260EB
:1010700084BD84B5816084BD85B5826085BD85B53C
:10108000816085BDEEE6F0E0808181608083E1E8EB
:10109000F0E0108280818260808380818160808323
:1010A000E0E8F0E0808181608083E1E9F0E0808128
:1010B00082608083808181608083E0E9F0E08081CC
:1010C00081608083E1ECF0E08081846080838081B6
:1010D00082608083808181608083E3ECF0E08081A6
:1010E00081608083E0ECF0E0808182608083E2ECCC
:1010F000F0E0808181608083EAE7F0E080818460B5
:101100008083808182608083808181608083808110
:10111000806880830895CF93DF938230910510F427
:1011200082E090E0E091F401F091F50120E030E000
:10113000A0E0B0E0309739F140815181481759075C
:10114000B8F04817590771F482819381109729F0FC
:1011500013969C938E9312972CC09093F5018093D5
:10116000F40127C02115310531F04217530718F05B
:10117000A901DB0101C0EF019A01BD01DF0102807D
:10118000F381E02DD7CF21153105F9F0281B390B5C
:101190002430310580F48A819B816115710521F02D
:1011A000FB019383828304C09093F5018093F40143
:1011B000FE01329644C0FE01E20FF31F819391932A
:1011C00022503109398328833AC02091F2013091AD
:1011D000F301232B41F4209102013091030130935C
:1011E000F3012093F20120910001309101012115BA
:1011F000310541F42DB73EB74091040150910501EE
:10120000241B350BE091F201F091F301E217F30793
:10121000A0F42E1B3F0B2817390778F0AC014E5F66
:101220005F4F2417350748F04E0F5F1F5093F301AF
:101230004093F2018193919302C0E0E0F0E0CF018E
:10124000DF91CF910895CF93DF93009709F487C082
:10125000FC01329713821282C091F401D091F50102
:10126000209781F420813181280F391F8091F2016C
:101270009091F3018217930779F5F093F301E093CE
:10128000F2016DC0DE0120E030E0AE17BF0750F480
:1012900012964D915C9113979D014115510509F1ED
:1012A000DA01F3CFB383A28340815181840F951F6C
:1012B0008A179B0771F48D919C911197840F951F4C
:1012C00002969183808312968D919C9113979383BC
:1012D00082832115310529F4F093F501E093F4019F
:1012E0003EC0D9011396FC93EE9312974D915D91F8
:1012F000A40FB51FEA17FB0779F480819181840F51
:10130000951F0296D90111969C938E9382819381A9
:1013100013969C938E931297E0E0F0E08A819B8174
:10132000009719F0FE01EC01F9CFCE010296288159
:101330003981820F931F2091F2013091F301281718
:10134000390769F4309729F41092F5011092F401ED
:1013500002C013821282D093F301C093F201DF9195
:10136000CF91089590E0FC013197EE30F10590F5B2
:10137000EA5AFF4F0C94BA10809180008F7703C017
:10138000809180008F7D80938000089584B58F7751
:1013900002C084B58F7D84BD0895809190008F77C1
:1013A00007C0809190008F7D03C080919000877F5F
:1013B0008093900008958091C0008F7703C0809142
:1013C000C0008F7D8093C00008958091C200877F08
:1013D0008093C2000895CF93DF9390E0FC01EA511F
:1013E000FF4F2491FC01EC5FFE4F8491882349F16B
:1013F00090E0880F991FFC01E25CFE4FA591B4912B
:10140000805D9E4FFC01C591D4919FB7611108C0CA
:10141000F8948C91209582238C93888182230AC032
:10142000623051F4F8948C91322F309583238C9351
:101430008881822B888304C0F8948C91822B8C93B2
:101440009FBFDF91CF9108950F931F93CF93DF93A9
:101450001F92CDB7DEB7282F30E0F901E853FF4FD8
:101460008491F901EA51FF4F1491F901EC5FFE4FAD
:1014700004910023C9F0882321F069830E94B209F6
:101480006981E02FF0E0EE0FFF1FE05DFE4FA591B8
:10149000B4919FB7F8948C91611103C0109581238A
:1014A00001C0812B8C939FBF0F90DF91CF911F9133
:1014B0000F910895CF93DF93282F30E0F901E8537F
:1014C000FF4F8491F901EA51FF4FD491F901EC5F8C
:1014D000FE4FC491CC2391F081110E94B209EC2FF0
:1014E000F0E0EE0FFF1FEE5DFE4FA591B4912C9141
:1014F0002D2381E090E021F480E002C080E090E0C4
:10150000DF91CF9108950E9435088AE891E00E940A
:10151000700D0E94D101C0E0D0E00E94FC01209734
:10152000E1F30E940000F9CF0895615030F020915E
:10153000F100FC0120830196F8CF289884E680937F
:10154000910108952FB7FC012083F8946770609390
:10155000E9000895CF93DF931F92CDB7DEB7682FD0
:10156000CE0101960E94A20A8091F20099819FBF4C
:101570000F90DF91CF910895FF920F931F93CF9318
:10158000DF9300D0CDB7DEB7F62E8A01909190019F
:10159000992311F057FF03C08FEF9FEF2BC0682FE7
:1015A000CE0101967A830E94A20A8091F20090E017
:1015B000A8017A81801791070CF4AC01EF2DF72F69
:1015C000F40E84E6FE1639F02898809391019091EC
:1015D000F1009193F7CF4115510521F08091F20070
:1015E000882321F089818FBFCA0104C08BE68093D4
:1015F000E800F8CF0F900F90DF91CF911F910F91DE
:10160000FF900895CF93DF931F92CDB7DEB741E0EF
:1016100050E0BE016F5F7F4F0E94BC0A019719F432
:10162000898190E002C08FEF9FEF0F90DF91CF9103
:101630000895CF93DF931F92CDB7DEB7682FCE0109
:1016400001960E94A20A9091E800892F807295FF6E
:1016500004C09091F20080E4891B99819FBF0F9094
:10166000DF91CF9108954F925F926F927F928F9208
:101670009F92AF92BF92CF92DF92EF92FF920F9321
:101680001F93CF93DF931F92CDB7DEB7582E7B0108
:10169000A42E952E80919001882369F0042F152F98
:1016A0008AEFB82E852D8072782E9AE3892E852DAB
:1016B0008074682E11C08FEF9FEF53C0852D0E945C
:1016C000190B482E81110CC0BA94A9F361E070E0A7
:1016D00080E090E00E9404080115110579F737C0F9
:1016E000282F30E0021713070CF4402EC42CD12C05
:1016F0000C191D09652DCE0101960E94A20A7720C2
:1017000039F04A948FEF4816B1F01092F100F9CFFA
:10171000F701842D57FE07C0815058F094919093A3
:10172000F1003196F9CF815020F091919093F10022
:10173000FACFEC0CFD1C8091E80085FF0FC001156D
:10174000110511F461100AC089818FBFC5CF5D9862
:1017500084E6809392018A2D992D03C08092E8003F
:10176000F3CF0F90DF91CF911F910F91FF90EF90EA
:10177000DF90CF90BF90AF909F908F907F906F90B1
:101780005F904F9008951092E90010928F0110928F
:101790008E0190938D0180938C010895CF93DF93F8
:1017A000FB0120E030E0DEEF24173507A1F187FFD1
:1017B00002C0C49101C0C081A0918E01B0918F017F
:1017C00060918C0170918D01A617B707B4F49091C8
:1017D000E8009570E1F39091E80092FD1EC0C0937F
:1017E000F10060918E0170918F016F5F7F4F6F7379
:1017F0007727672B11F4D093E80060918E017091E8
:101800008F016F5F7F4F70938F0160938E012F5F09
:101810003F4F3196C9CFC90102C08FEF9FEFDF91D3
:10182000CF9108951F93CF93DF931F92CDB7DEB76B
:10183000162F2091E80022FFFCCF612F79830E94B0
:10184000950A8BEF8093E800812F7981972F0F9075
:10185000DF91CF911F910895CF93DF931F92CDB762
:10186000DEB71982CE0101960E94ED0FCE010196DE
:101870000E940B0E898190E00F90DF91CF91089527
:101880001F920F920FB60F921124EF92FF920F93B7
:101890001F932F933F934F935F936F937F938F93F8
:1018A0009F93AF93BF93EF93FF93CF93DF93CDB706
:1018B000DEB76297DEBFCDBF1092E9008091E800ED
:1018C00083FFE7C068E0CE010A960E94950A82EF86
:1018D0008093E8009A8597FF05C08091E80080FF1B
:1018E000FCCF03C08EEF8093E800892F807609F04B
:1018F000B5C08B85811105C01092F1001092F100E6
:10190000C1C0282F2D7F213009F4BCC0853049F497
:101910008091E80080FFFCCF8C8580688093E30095
:10192000B1C0863009F072C02D85E888F988223070
:1019300071F580E090E02A8B0E94C30B0E942C0C72
:1019400099E08E010F5F1F4FF801392F11923A95E0
:10195000E9F799832A892A8391E09E8390E8988702
:101960009AEF998720918E0130918F01275F3F4F29
:101970003C832B838D83C7010E94C30B49E050E059
:10198000B80180E00E94CE0B0E942C0C7BC0C701E6
:101990002A8B0E94C30B2A89223241F482E290E012
:1019A0000E94160E892B09F06DC070C0213069F4B9
:1019B00088899989089711F420938B0180918B0174
:1019C000882389F061E571E016C0233009F05EC01C
:1019D0008C85882359F0823061F0813009F056C03F
:1019E00065E771E008C063E671E005C06FEA71E089
:1019F00002C06DE871E06115710509F447C0FB0193
:101A0000449150E080E80E94CE0B3CC0873009F43E
:101A10003DC0883021F481E08093F10033C08930EB
:101A200089F5937099F5EDE4F1E081E021E096E32A
:101A30008093E9002093EB0034913093EC00909375
:101A4000ED008F5F3196853099F78EE78093EA003D
:101A50001092EA008C858093900114C0888999893E
:101A60000E94C30B8E85811105C0CE010A960E948B
:101A7000F80F06C0823051F4CE010A960E943E0E45
:101A8000882321F08EEF8093E80003C081E28093E9
:101A9000EB0062960FB6F894DEBF0FBECDBFDF91AC
:101AA000CF91FF91EF91BF91AF919F918F917F91D6
:101AB0006F915F914F913F912F911F910F91FF90E7
:101AC000EF900F900FBE0F901F9018958093E90034
:101AD0008091F200882319F08AE38093E80008954A
:101AE0001092900181E08093D70080EA8093D80023
:101AF00082E189BD09B400FEFDCF61E070E080E0C5
:101B000090E00E94040880E98093D8008CE08093E4
:101B1000E2001092E000559A209A08951F920F92C9
:101B20000FB60F9211242F933F934F935F936F93B0
:101B30007F938F939F93AF93BF93EF93FF93809186
:101B4000E1001092E10083FF0FC01092E90091E0E4
:101B50009093EB001092EC0092E39093ED001092C2
:101B6000900198E09093F00082FF26C083E00E94ED
:101B7000660D82E00E94AA0A882321F080EA91E0A3
:101B80000E949F0F80919201882339F080919201E9
:101B9000815080939201882369F08091910188237C
:101BA00059F080919101815080939101811104C07D
:101BB000289A02C05D9AF1CFFF91EF91BF91AF914A
:101BC0009F918F917F916F915F914F913F912F9155
:101BD0000F900FBE0F901F901895FF920F931F93B9
:101BE000CF93DF93EC01F62EE881F9810480F58133
:101BF000E02D09958C01E881F9810680F781E02DBF
:101C00006F2DCE010995C8019927DF91CF911F91C2
:101C10000F91FF900895FC0120812F5F208349E1FF
:101C200050E063E372E080E80C94CE0B45E650E0B0
:101C30006CE472E080E80C94CE0BEF92FF920F936D
:101C40001F93CF93DF931F92CDB7DEB789838B01AC
:101C50007A0141E050E0BE016F5F7F4F84E00E9457
:101C6000330BA701B80184E40E94330B0F90DF917E
:101C7000CF911F910F91FF90EF900895FC019181FA
:101C80008081813A31F481E0913091F0933089F490
:101C900011C0813271F49B3021F48281809307015D
:101CA00005C09A3031F482818093060181E0089565
:101CB000089580E0089548E050E082E00C941D0E05
:101CC000CF93DF93DC01683818F0E8E7E60F25C012
:101CD000E62FF0E067FF11C0E058F10981E090E0E5
:101CE00001C0880FEA95EAF714969C911497982BF7
:101CF00014969C931497E0E010C0ED54FE4FE491CD
:101D0000EE2309F440C0E7FF08C014968C911497A5
:101D1000826014968C931497EF7716968C91169791
:101D20008E1741F117968C9117978E1719F1189607
:101D30008C9118978E17F1F019968C9119978E1730
:101D4000C9F01A968C911A978E17A1F01B968C9158
:101D50001B978E1779F080E090E0ED01C80FD91F36
:101D60002E81211102C0EE8305C0019686309105B7
:101D7000A1F709C0BD016C5F7F4FCD010E945B0ED2
:101D800081E090E008C081E090E013969C938E93F0
:101D9000129780E090E0DF91CF910895683818F0B5
:101DA000E8E7E60F25C0E62FF0E067FF12C0E05835
:101DB000F10921E030E001C0220FEA95EAF7209511
:101DC000DC0114963C911497322314963C93E0E086
:101DD0000FC0ED54FE4FE491EE2329F1E7FF08C058
:101DE000DC0114962C9114972D7F14962C93EF7789
:101DF00020E030E0EE2351F0DC01A20FB31F169675
:101E00004C9116974E1302C016961C922F5F3F4FAF
:101E10002630310579F7BC016C5F7F4F0E945B0E65
:101E200081E090E0089580E090E00895FC01168242
:101E3000178210861186128613861482BC016C5F8D
:101E40007F4F0C945B0E10929F011092960110929E
:101E5000950187E391E09093940180939301089515
:101E6000CF92DF92EF92FF920F931F93CF93DF9366
:101E70006C017A01EB01E60EF71E00E010E0CE15D2
:101E8000DF0561F06991D601ED91FC910190F0813F
:101E9000E02DC6010995080F191FF1CFC801DF9188
:101EA000CF911F910F91FF90EF90DF90CF90089509
:101EB0008091EE019091EF012091F0013091F101BC
:101EC000821B930B8F73992708952091EE01309117
:101ED000EF018091F0019091F1012817390749F045
:101EE000E091F001F091F101E255FE4F808190E028
:101EF00008958FEF9FEF08952091EE013091EF014B
:101F00008091F0019091F10128173907A9F0E09133
:101F1000F001F091F101E255FE4F80812091F00136
:101F20003091F1012F5F3F4F2F7333273093F10131
:101F30002093F00190E008958FEF9FEF0895CF93E5
:101F4000DF93C091EE01D091EF012196CF73DD2791
:101F50008091F0019091F101C817D90799F082E0C2
:101F60000E94020B8F3F2FEF920761F0E091EE018C
:101F7000F091EF01E255FE4F8083D093EF01C093C3
:101F8000EE01DFCFDF91CF91089583E00C94660DD1
:101F90000F931F93CF93DF931F92CDB7DEB78C01C2
:101FA000698380910F01882359F041E050E0BE0120
:101FB0006F5F7F4F83E00E94330B181619063CF0C9
:101FC00081E090E0F8019383828380E090E00F90BD
:101FD000DF91CF911F910F910895FC0120812E5F19
:101FE000208342E450E061EB72E080E80C94CE0B79
:101FF000FC0181819081913A59F4813209F04BC002
:1020000047E050E068E071E080E00E94CE0B45C000
:10201000913209F040C0803239F467E070E088E026
:1020200091E00E94120C39C0823209F034C08281E2
:1020300080930F018091080190910901A0910A01FC
:10204000B0910B01803B9440A105B10531F5809121
:102050000F0180FD12C087E797E7909301088093F6
:1020600000082BE088E190E00FB6F894A8958093E3
:1020700060000FBE2093600010C088E10FB6F89496
:1020800080936000109260000FBEA8951092010826
:102090001092000802C080E0089581E00895109237
:1020A000A3011092A20188EE93E0A0E0B0E080933B
:1020B000A4019093A501A093A601B093A70185E484
:1020C00091E09093A1018093A00108950E94C01017
:1020D000A59F900DB49F900DA49F800D911D11247C
:1020E0000895B7FF0C9466100E946610821B930B34
:1020F0000895A1E21A2EAA1BBB1BFD010DC0AA1F49
:10210000BB1FEE1FFF1FA217B307E407F50720F060
:10211000A21BB30BE40BF50B661F771F881F991FDB
:102120001A9469F760957095809590959B01AC0124
:10213000BD01CF010895052E97FB1EF400940E9467
:10214000B21057FD07D00E94791007FC03D04EF45F
:102150000C94B21050954095309521953F4F4F4FBC
:102160005F4F089590958095709561957F4F8F4F43
:102170009F4F0895EE0FFF1F0590F491E02D0994F5
:10218000A29FB001B39FC001A39F700D811D1124B8
:10219000911DB29F700D811D1124911D089512E0B3
:1021A000CAEFD2E004C0FE010E94BC102296CC3FD0
:0821B000D107C9F7F894FFCF35
:1021B8000000F6018000010100E1000000000000BD
:1021C800120115000C000000000907000000006162
:1021D8000200000000940A000000006102000000F4
:1021E80000090700000000ED0D300F600ECE0E163E
:1021F8000F00000000C80F300F580F7C0F650FC587
:042208000F9F0F0015
:00000001FF
