:100000000C9482010C94AA010C94AA010C94AA01EC
:100010000C94AA010C94AA010C94AA010C94AA01B4
:100020000C94AA010C94AA010C94D7100C94890F7B
:100030000C94AA010C94AA010C94AA010C94AA0194
:100040000C94AA010C94AA010C94AA010C94AA0184
:100050000C94AA010C94AA010C94AA010C948B0C88
:100060000C94AA010C94AA010C94AA010C94AA0164
:100070000C94AA010C94AA010C94AA010C94AA0154
:100080000C94AA010C94AA010C94AA010C94AA0144
:100090000C94AA010C94AA010C94AA010C94AA0134
:1000A0000C94AA010C94B3060C94AA01A70AAA0AFC
:1000B0009D0AA10ACB0ACB0ACB0AAE0AB20AB60A3B
:1000C000BC0AC00ACB0AC60A50726573732041008D
:1000D0000000000200080E0000030401000B0000F5
:1000E0000000000000000000000000000000040804
:1000F000020110408040102040804080080204012E
:1001000080402010020110801020404004040404AC
:1001100004030405020202020403020202020606AC
:100120000606060604040202020400000000230082
:10013000260029002C002F000000000025002800C8
:100140002B002E00310000000000240027002A00B0
:100150002D00300000C18081C112010002020000A8
:10016000404123368000010102000112010002001B
:1001700000004041233680000101020001180341C4
:100180000072006400750069006E006F0020004C72
:10019000004C0043002203410072006400750069B6
:1001A000006E006F0020004C0065006F006E006163
:1001B00000720064006F00040309040000000000E6
:1001C0000000002A2B2800000000000000000000B2
:1001D00000000000000000000000002C9EB4A0A160
:1001E000A2A434A6A7A5AE362D3738271E1F20217E
:1001F0002223242526B333B62EB7B89F848586875D
:1002000088898A8B8C8D8E8F9091929394959697F6
:1002100098999A9B9C9D2F3130A3AD350405060714
:1002200008090A0B0C0D0E0F1011121314151617D6
:1002300018191A1B1C1DAFB1B0B50009040200014A
:100240000300000009210101000122650007058467
:100250000340000105010902A1010901A100850176
:10026000050919012903150025019503750181026E
:10027000950175058103050109300931093815819A
:10028000257F750895038106C0C005010906A101F7
:100290008502050719E029E7150025017501950874
:1002A000810295017508810395067508150025657D
:1002B0000507190029658100C0080B000202020130
:1002C00000090400000102020000052400100105DD
:1002D000240101010424020605240600010705810A
:1002E0000310004009040100020A00000007050293
:1002F0000240000007058302400000005C036C120E
:1003000070137E0311241FBECFEFDAE0DEBFCDBF36
:1003100011E0A0E0B1E0EAE4F8E202C005900D923D
:10032000A838B107D9F712E0A8E8B1E001C01D92E2
:10033000A233B107E1F712E0C2E0D3E004C0229794
:10034000FE010E941414CC3FD107C9F70E94800D12
:100350000C9418140C9400005B98539A0895FC01B7
:10036000A2EEB0E08C9180831C92A9EEB0E08C915B
:1003700081831C92A0EFB0E08C9182831C9208953F
:10038000FC01A9EEB0E01C9282818093F000818193
:100390008C9380818093E200089560FF02C02B9AC5
:1003A00001C02B98239A61FF02C0289A01C02898A7
:1003B000209A62FF02C0479A01C047983F9A63FFA4
:1003C00002C05D9A01C05D98559A5B9A539A85E088
:1003D0008A95F1F700005B98539A85E08A95F1F7CA
:1003E00000000895CF93DF93479A3F9A8AEA91E0FD
:1003F0000E94530A68EC70E08AEA91E00E94B90D0D
:100400008EE991E00E94B50747983F9A8AEA91E009
:100410000E94530AC3E0D0E068EE73E080E090E011
:100420000E94F80C4FE068EC70E08BE20E94E70459
:100430002197209789F768EE73E080E090E00E94B2
:10044000F80C4FE064EF71E087E30E94E70468EE88
:1004500073E080E090E0DF91CF910C94F80C0F9363
:10046000CF93DF9300D01F92CDB7DEB782E18983AF
:1004700085E18A838CE08B830BE020ED37E043E05D
:10048000BE016F5F7F4F8EE891E00E9490090E944D
:10049000F2010F900F900F90DF91CF910F9108957F
:1004A000E0919E01F0919F010190F081E02D8EE995
:1004B00091E00995882361F060E070E080E090E0D1
:1004C0000E946F078EE991E00E9497070E94F20157
:1004D00041E068E871E08EE891E00E9417098091A0
:1004E000880190918901883E934088F468E37FEF0A
:1004F00088E39FEF0E946F0768EC70E080E090E077
:100500000E94F80C68E37FEF88EC90E017C08091C0
:100510008C0190918D01883E9340C0F468E37FEF99
:1005200088E39FEF0E946F0768EC70E080E090E046
:100530000E94F80C68EC70E088E39FEF0E946F0760
:100540006CE271E080E090E00E94F80C68EC70E0F2
:1005500088EC90E00C946F0720E05D99216055993C
:100560002260FC0120830895FC01208121FB0EF014
:10057000559820FB0EF05D980EF45D9A21FB0EF469
:10058000559A089520E02899216020992260FC0165
:1005900020830895FC01208121FB0EF0209820FB90
:1005A0000EF028980EF4289A21FB0EF4209A089554
:1005B000FF920F931F93CF93DF93CDB7DEB72A97A8
:1005C0000FB6F894DEBF0FBECDBF8C01F62ECE0164
:1005D00001962A8749870E94AF0130E05A9931601D
:1005E000529932603E8330E02B993160239932601A
:1005F0003F83CE0105960E94C20230E047993160E8
:100600003F9932603887CE0104960E94AC0249853A
:100610002A85442311F05A9A01C05A98529A2111FE
:100620000AC06F2D70E084E0759567958A95E1F7B3
:10063000C8010E94CD016F2D6F70C8010E94CD01CD
:10064000CE0104960E94B402288521FB0EF03F984B
:1006500020FB0EF047980EF4479A21FB0EF43F9AC8
:10066000CE0105960E94CA023F8131FB0EF023980D
:1006700030FB0EF02B980EF42B9A31FB0EF4239ADC
:100680002E8121FB0EF0529820FB0EF05A980EF4AA
:100690005A9A21FB0EF4529ACE0101960E94C00193
:1006A0002A960FB6F894DEBF0FBECDBFDF91CF9173
:1006B0001F910F91FF9008958AEA91E00E94CC0962
:1006C00084E291E09093AB018093AA0121E041E0A4
:1006D0006EE08EE991E00E94BF078EE191E0909379
:1006E0009F0180939E018EE891E00E94800980E343
:1006F00091E090938F0180938E0108958AE591E0B7
:1007000090938F0180938E018EE891E00C94A20962
:100710009091B301E091B701F091B801992311F0E4
:10072000849101C080812FEB280F2A3110F4805E64
:100730000895803249F49F012F5F3F4F3093B801F5
:100740002093B701EF2B31F708951F93CF93DF93D9
:100750000E948803C0E0D0E01AE090ED980F9A3034
:10076000B8F49E01129FE001139FD00D1124C80F11
:10077000D11D87FDDA95E0978091B7019091B8017E
:1007800001969093B8018093B7010E948803E5CF4A
:10079000CE01DF91CF911F910895109272001092B7
:1007A000C00084E08093C10089E08093C20081E0B2
:1007B0008093C300EFEBF0E083E0808388EE8093CA
:1007C000D10010821092D200579A789408952F92F7
:1007D0003F924F925F926F927F928F929F92AF92D1
:1007E000BF92CF92DF92EF92FF920F931F93CF931E
:1007F000DF93CDB7DEB727970FB6F894DEBF0FBEF5
:10080000CDBF7C011B014D838091B901811105C0D1
:1008100081E08093B9010E94CD0310920901F7FE97
:1008200004C0E894F7F81AE001C011E088E2189FCC
:10083000802D1124282F30E03F832E832E153F0575
:1008400010F4FF82EE82113049F44E815F81413114
:10085000574220F0E0E1F7E2FF83EE83812E912CF6
:10086000A12CB12C8E819F81969587959C0140E0AB
:1008700050E029833A834B835C834E815F812A0158
:10088000612C712CA501940160E072E18AE790E08F
:100890000E94A11329813A814B815C81620F731FF1
:1008A000841F951FA30192010E94F31369017A012D
:1008B000EE24FF2400E00F5FC11434E0D306E1040E
:1008C000F10408F120E032E14AE750E0002E04C0D4
:1008D00055954795379527950A94D2F7C501B401E8
:1008E0000E94A11329813A814B815C81620F731FA1
:1008F000841F951FA30192010E94F31369017A01DD
:10090000EE24FF24D8CF1A3049F48E819F810596BA
:100910006AE070E00E94BD137F836E834E815F8129
:10092000483E83E0580759F09101DA010E9487138D
:1009300028EE33E040E050E00E94F31319011092DA
:1009400072008091C100807F802B8093C100BB2703
:10095000AF2D9E2D8D2D8093BF00C092D1002D8193
:10096000203108F02FE080E190E0821B910904C063
:10097000F694E794D794C7948A95D2F78D2D99274A
:100980008093BF00C092D2003092B6012092B50190
:1009900089B38FEF89BB84E08093720027960FB6EE
:1009A000F894DEBF0FBECDBFDF91CF911F910F91A5
:1009B000FF90EF90DF90CF90BF90AF909F908F907F
:1009C0007F906F905F904F903F902F900895CF93BE
:1009D000DF93EB018F3F11F0411105C040E0BE01F4
:1009E00088EE93E043C0813130F050EF580F50361D
:1009F00018F05FE501C050E0852F6CE00E94B11354
:100A0000682F74EF760390011124250F311D2C30CF
:100A1000310540F4F901EE0FFF1FEE5CFE4F20811F
:100A2000318102C020E030E0873081F0082E02C022
:100A3000220F331F0A94E2F7823028F0C90105968D
:100A40006AE070E00CC0C90190580CC0C90136E0E2
:100A5000880F991F3A95E1F7029665E070E00E94D1
:100A6000BD13CB01403108F04FE0BE01DF91CF91C3
:100A70000C94E7034F925F926F927F928F929F92B6
:100A8000AF92BF92CF92DF92EF92FF920F931F939C
:100A9000CF93DF9300D0CDB7DEB79090080180915F
:100AA000B201882321F06091B101611117C0772450
:100AB0007394B0ECAB2EBDE5BB2E1AE0612E04E0C2
:100AC000802E80EDC82E87E0D82E94E0E92EF12C00
:100AD00004EF11E02FE0422E512C15C070E040E0F1
:100AE00088EE93E00E94E7031092B10129C1863697
:100AF000D4F5813609F4A9C07CF58C3309F460C0C3
:100B00008E3381F493940E9488032091B701309131
:100B1000B8012F5F3F4F3093B8012093B70185365E
:100B200031F752C0813209F08BC080920801D09217
:100B30000701C0920601F0920501E09204011093B2
:100B400003010093020150920101409200011092B2
:100B5000B201A4E09A2ED7CF8336A1F10CF478C06D
:100B600010E082E077C08D36C1F194F4873691F1C0
:100B700074F18C3609F064C00E94A503BC01909307
:100B8000050180930401809106019091070151C0F5
:100B90008237C9F14CF48F3609F052C00E94A50388
:100BA000982E80930801AFCF843781F1863709F002
:100BB00047C00E94A5039093010180930001A3CF39
:100BC0009A94A1CF10E020C010E084E043C010E070
:100BD00085E040C010E087E03DC00E9488038C366D
:100BE00019F41092B20104C07092B2011092B101D6
:100BF0002091B7013091B8012F5F3F4F3093B8017A
:100C00002093B70180CF11E080E024C00E94A503AB
:100C1000BC01C5010E94BD13669EC001679E900D78
:100C20001124909307018093060160910401709153
:100C300005010E94BD13709303016093020163CF0D
:100C40001092B8011092B7017BC010E089E002C099
:100C500010E08BE0082F9CE0999E000D11240E946B
:100C60008803982F977F933261F42091B7013091D8
:100C7000B8012F5F3F4F3093B8012093B7010F5F4A
:100C8000EECF8D3271F42091B7013091B8012F5F12
:100C90003F4F3093B8012093B70101500E94880361
:100CA000F0CF60910201709103018153883050F4BC
:100CB000E0900601F09007010E94A503BC01C70166
:100CC0000E94BD137B01F694E79469837A830E94A6
:100CD000880369817A818E3269F42091B70130915D
:100CE000B8012F5F3F4F3093B8012093B7016E0DCD
:100CF0007F1DE9CF8091B201882339F09B013695A1
:100D000027952093B101621B7109409100011123C5
:100D100011F08FEF01C0802F0F900F90DF91CF91D6
:100D20001F910F91FF90EF90DF90CF90BF90AF9009
:100D30009F908F907F906F905F904F900C94E704FE
:100D40000F900F90DF91CF911F910F91FF90EF9037
:100D5000DF90CF90BF90AF909F908F907F906F90DB
:100D60005F904F9008951F920F920FB60F9211242B
:100D70002F933F934F935F936F937F938F939F93A3
:100D8000AF93BF93EF93FF938091B5019091B6011C
:100D90009C01215031093093B6012093B501892B74
:100DA00011F51092720078948091C100807F846068
:100DB0008093C10083E08093BF0088EE8093D100D0
:100DC0001092BF001092D20081E0809309018091BF
:100DD000B7019091B801892B31F08091B401811154
:100DE00002C00E943A05FF91EF91BF91AF919F9190
:100DF0008F917F916F915F914F913F912F910F90C4
:100E00000FBE0F901F9018952E98269A2D98259A10
:100E10002A98229A2998219A80EA8093800081E179
:100E20008093810080E991E0909387008093860011
:100E3000109289001092880010928B0010928A0004
:100E400008958091BA01811105C081E08093BA01B3
:100E50000C9404070895CF93DF93EC010E942107BF
:100E6000D7FF05C0D195C195D10981E001C080E0CF
:100E7000C13991E0D90714F0C0E9D1E0D0938B00DB
:100E8000C0938A009091BC01891711F02A9A01C081
:100E90002A98229ADF91CF910895CF93DF93EC01A6
:100EA0000E942107D7FF05C0D195C195D10981E0E6
:100EB00001C080E0C13991E0D90714F0C0E9D1E068
:100EC000D0938900C09388009091BB01891711F0DD
:100ED000299A01C02998219ADF91CF910895CF9343
:100EE000DF93EB010E942B07CE01DF91CF910C9491
:100EF0004D07CF93DF93EC01E881F9810190F081F8
:100F0000E02DCE0109958823B9F36AE070E080E016
:100F100090E00E94F80CE881F9810190F081E02DC9
:100F2000CE010995882341F3DF91CF910895CF93A6
:100F3000DF93EC01E881F9810190F081E02DCE0191
:100F400009958111F7CF6AE070E080E090E00E949F
:100F5000F80CE881F9810190F081E02DCE0109952E
:100F60008111E8CFDF91CF910895CF93DF93EC010A
:100F70000E947907CE01DF91CF910C949707FC0175
:100F8000128215828EE491E09183808310866187BE
:100F900081E0411101C080E0828781E0211101C020
:100FA00080E083870895FC018285882311F062E048
:100FB00001C060E081850E94CC0A85E090E00C943D
:100FC0001E0DCF93DF93EC018885811105C081E070
:100FD0008887CE010E94D30789850E943B0B2B8511
:100FE00030E041E08217930709F440E0842FDF915D
:100FF000CF9108956F927F928F929F92AF92BF92FE
:10100000CF92DF92EF92FF920F931F93CF93DF93D4
:10101000EC018B018A859B85892B09F474C0D12C46
:101020008C85D816E8F4ED2CF12C8E859F85F70180
:10103000EE0FFF1FE00FF11F91838083EA85FB8590
:10104000EE0DFF1D61E080810E94050BEA85FB85A6
:10105000EE0DFF1D61E080810E94CC0AD394E0CFA9
:101060008AE090E00E941E0DD12C8C85D816A0F449
:10107000ED2CF12CEA85FB85EE0DFF1D60E08081F3
:101080000E94CC0AEA85FB85EE0DFF1D60E08081A1
:101090000E94050BD394E9CF0E94D50C6B017C0113
:1010A0000E94D50C6C197D098E099F092E853F85FC
:1010B0004901A12CB12C681579058A059B0518F505
:1010C0000E94D50C3B016C187D08912C8C859816DC
:1010D00038F7A92CB12CAA85BB85AA0DBB1D8C9114
:1010E0000E943B0B892B51F4F501EE0FFF1FE00F1F
:1010F000F11F808191816816790610F09394E6CFF4
:1011000071826082FBCFDF91CF911F910F91FF9091
:10111000EF90DF90CF90BF90AF909F908F907F9097
:101120006F900895EF92FF920F931F93CF93DF93E9
:101130001F92CDB7DEB77C018B01DC0113961C92A8
:101140001E92129715961C921E92149717961C9237
:101150001E92169719961C921E921897413120F0F4
:1011600080E11C968C9302C0FC014487D7011A963B
:101170008D919C911B97892B11F030E00FC0F701E6
:10118000848590E029830E94640BD7011B969C9371
:101190008E931A972981892B81F715C0F7018485D1
:1011A000381780F4832F90E0F801E80FF91F408191
:1011B000D7011A96ED91FC911B97E80FF91F408318
:1011C0003F5FECCF25870F90DF91CF911F910F915B
:1011D000FF90EF900895CF93DF93EC018D858F3FC3
:1011E00069F061E00E94CC0A60E08D850E94050BE9
:1011F00088EC90E0DF91CF910C941E0DDF91CF91A0
:101200000895CF93DF93EC018D858F3F69F061E006
:101210000E94CC0A61E08D850E94050B88EC90E06D
:10122000DF91CF910C941E0DDF91CF910895DF9245
:10123000EF92FF920F931F93CF93DF93CDB7DEB75B
:10124000A0970FB6F894DEBF0FBECDBF8C017B0117
:10125000D42E8FEF840F823020F4C8010E94010940
:1012600003C0C8010E94EB08D801ED91FC910190E8
:10127000F081E02DB701C8010995C8010E94EB0873
:10128000B2E0DB122FC0D801ED91FC910190F0810A
:10129000E02DBE016F5F7F4FC801099540E0F80166
:1012A00084854817F8F4842F90E0880F991FF70180
:1012B000E80FF91F21E030E02C0F3D1F820F931F34
:1012C000D8011E962D913C911F97DC018D919C9128
:1012D000281B390B80819181820F931F918380831A
:1012E0004F5FDDCFA0960FB6F894DEBF0FBECDBF27
:1012F000DF91CF911F910F91FF90EF90DF900895B4
:10130000FC018AE591E09183808313821282158229
:10131000148217821682118610861386128608950B
:10132000EF92FF920F93CF93DF93EC017901202F7F
:101330000E949208FF86EE86DF91CF910F91FF9079
:10134000EF900895CF93DF93EC0184E591E09983CA
:1013500088838A859B85009711F00E94FC0B8C8105
:101360009D81009711F00E94FC0B8885998500975C
:1013700011F00E94FC0B8A819B81009711F00E9462
:10138000FC0B8E819F81009721F0DF91CF910C940F
:10139000FC0BDF91CF910895FC011382128280E64D
:1013A00091E091838083148208951F93CF93DF93FC
:1013B000EC01162F64600E944F0A1E83DF91CF91CB
:1013C0001F910895CF93DF93EC01E881F9810480A8
:1013D000F581E02D099563E0CE010E944B0A8FE96B
:1013E00091E40197F1F700C0000063E0CE010E9494
:1013F0004B0A87E592E00197F1F700C0000063E037
:10140000CE010E944B0A62E0CE010E944B0A68E2C4
:10141000CE010E944F0A60E0CE010E945D0ACE011B
:101420000E94530A62E0CE010E94D50964E0CE0119
:10143000DF91CF910C945D0A0F931F93CF93DF93AD
:1014400000D01F92CDB7DEB78C01DC0114968C91D1
:10145000149781110CC081E014968C93C8012B83E2
:101460004A8369830E94E20969814A812B81D801FC
:10147000ED91FC910680F781E02DC8010995B5EC4E
:10148000BA95F1F700000F900F900F90DF91CF9178
:101490001F910F91089521E040E00C941C0A20E078
:1014A00040E00C941C0A61E00E944F0A8FE39FE128
:1014B0000197F1F700C0000008951F93CF93DF93C9
:1014C000EC01162F68600E944F0A1D83DF91CF91B7
:1014D0001F91089520E041E00C941C0A0E946A0AC2
:1014E00081E090E00895CF92DF92EF92FF920F9308
:1014F0001F93CF93DF937C018A01EB016B01C40E34
:10150000D51ECC15DD0529F06991C7010E946A0A34
:10151000F8CFC801DF91CF911F910F91FF90EF900D
:10152000DF90CF90089590E0FC013197EE30F10507
:1015300090F5EA5AFF4F0C941214809180008F7737
:1015400003C0809180008F7D80938000089584B5D2
:101550008F7702C084B58F7D84BD089580919000FF
:101560008F7707C0809190008F7D03C0809190009D
:10157000877F8093900008958091C0008F7703C08B
:101580008091C0008F7D8093C00008958091C2003B
:10159000877F8093C2000895CF93DF9390E0FC0192
:1015A000E251FF4F2491FC01E45FFE4F84918823B8
:1015B00049F190E0880F991FFC01EA5BFE4FA5916D
:1015C000B491885C9E4FFC01C591D4919FB7611185
:1015D00008C0F8948C91209582238C938881822373
:1015E0000AC0623051F4F8948C91322F30958323E5
:1015F0008C938881822B888304C0F8948C91822BF1
:101600008C939FBFDF91CF9108950F931F93CF933A
:10161000DF931F92CDB7DEB7282F30E0F901E053FA
:10162000FF4F8491F901E251FF4F1491F901E45FFA
:10163000FE4F04910023C9F0882321F069830E94A2
:10164000930A6981E02FF0E0EE0FFF1FE85CFE4F88
:10165000A591B4919FB7F8948C91611103C0109536
:10166000812301C0812B8C939FBF0F90DF91CF917D
:101670001F910F910895CF93DF93282F30E0F90148
:10168000E053FF4F8491F901E251FF4FD491F901EA
:10169000E45FFE4FC491CC2391F081110E94930A24
:1016A000EC2FF0E0EE0FFF1FE65DFE4FA591B49129
:1016B0002C912D2381E090E021F480E002C080E0B5
:1016C00090E0DF91CF910895CF93DF938230910521
:1016D00010F482E090E0E0913002F091310220E0DD
:1016E00030E0A0E0B0E0309739F1408151814817F7
:1016F0005907B8F04817590771F482819381109700
:1017000029F013969C938E9312972CC090933102DC
:101710008093300227C02115310531F0421753075D
:1017200018F0A901DB0101C0EF019A01BD01DF0141
:101730000280F381E02DD7CF21153105F9F0281B68
:10174000390B2430310580F48A819B816115710544
:1017500021F0FB019383828304C090933102809334
:101760003002FE01329644C0FE01E20FF31F819366
:10177000919322503109398328833AC020912E0257
:1017800030912F02232B41F420910C0130910D0157
:1017900030932F0220932E0220910A0130910B01E9
:1017A0002115310541F42DB73EB740910E015091FE
:1017B0000F01241B350BE0912E02F0912F02E2174E
:1017C000F307A0F42E1B3F0B2817390778F0AC0164
:1017D0004E5F5F4F2417350748F04E0F5F1F509341
:1017E0002F0240932E028193919302C0E0E0F0E03B
:1017F000CF01DF91CF910895CF93DF93009709F444
:1018000087C0FC01329713821282C0913002D091BE
:101810003102209781F420813181280F391F809176
:101820002E0290912F028217930779F5F0932F02E1
:10183000E0932E026DC0DE0120E030E0AE17BF075E
:1018400050F412964D915C9113979D0141155105ED
:1018500009F1DA01F3CFB383A28340815181840F70
:10186000951F8A179B0771F48D919C911197840F96
:10187000951F02969183808312968D919C91139768
:10188000938382832115310529F4F0933102E0938B
:1018900030023EC0D9011396FC93EE9312974D91FE
:1018A0005D91A40FB51FEA17FB0779F48081918140
:1018B000840F951F0296D90111969C938E93828175
:1018C000938113969C938E931297E0E0F0E08A81C7
:1018D0009B81009719F0FE01EC01F9CFCE01029631
:1018E00028813981820F931F20912E0230912F027F
:1018F0002817390769F4309729F4109231021092B1
:10190000300202C013821282D0932F02C0932E02A3
:10191000DF91CF9108951F920F920FB60F9211246D
:101920002F933F938F939F93AF93BF938091BE016B
:101930009091BF01A091C001B091C1013091BD0152
:1019400023E0230F2D3720F40196A11DB11D05C002
:1019500026E8230F0296A11DB11D2093BD0180939F
:10196000BE019093BF01A093C001B093C1018091CB
:10197000C2019091C301A091C401B091C50101962B
:10198000A11DB11D8093C2019093C301A093C40116
:10199000B093C501BF91AF919F918F913F912F91CE
:1019A0000F900FBE0F901F9018953FB7F89480913D
:1019B000C2019091C301A091C401B091C50126B5A7
:1019C000A89B05C02F3F19F00196A11DB11D3FBF77
:1019D0006627782F892F9A2F620F711D811D911D07
:1019E00042E0660F771F881F991F4A95D1F7089527
:1019F000CF92DF92EF92FF92CF93DF936B017C0146
:101A00000E94D50CEB01C114D104E104F10479F07A
:101A10000E94D50C6C1B7D0B683E7340A0F381E0E7
:101A2000C81AD108E108F108C851DC4FECCFDF91AA
:101A3000CF91FF90EF90DF90CF900895019700979E
:101A400039F0880F991F880F991F02970197F1F7B6
:101A50000895789484B5826084BD84B5816084BD26
:101A600085B5826085BD85B5816085BDEEE6F0E017
:101A7000808181608083E1E8F0E010828081826073
:101A80008083808181608083E0E8F0E080818160F4
:101A90008083E1E9F0E080818260808380818160E1
:101AA0008083E0E9F0E0808181608083E1ECF0E018
:101AB0008081846080838081826080838081816076
:101AC0008083E3ECF0E0808181608083E0ECF0E0F3
:101AD000808182608083E2ECF0E08081816080839D
:101AE000EAE7F0E080818460808380818260808387
:101AF00080818160808380818068808308950895DB
:101B00000E94290D86EC91E00E94B9100E942F02DC
:101B1000C0E0D0E00E9450022097E1F30E94000054
:101B2000F9CFCF92DF92EF92FF920F931F93CF9353
:101B3000DF936C017A01EB01E60EF71E00E010E086
:101B4000CE15DF0561F06991D601ED91FC91019010
:101B5000F081E02DC6010995080F191FF1CFC801CA
:101B6000DF91CF911F910F91FF90EF90DF90CF9079
:101B70000895EF92FF920F931F93CF93DF938C0101
:101B8000FB01C0E0D0E064917F018FEFE81AF80A12
:101B9000662361F0D801ED91FC910190F081E02D78
:101BA000C8010995C80FD91FF701EDCFCE01DF910C
:101BB000CF911F910F91FF90EF900895615030F0F9
:101BC0002091F100FC0120830196F8CF289884E64B
:101BD0008093CD0108952FB7FC012083F89467709E
:101BE0006093E9000895CF93DF931F92CDB7DEB7DE
:101BF000682FCE0101960E94EB0D8091F200998131
:101C00009FBF0F90DF91CF910895FF920F931F9385
:101C1000CF93DF9300D0CDB7DEB7F62E8A01909137
:101C2000CC01992311F057FF03C08FEF9FEF2BC01A
:101C3000682FCE0101967A830E94EB0D8091F2000D
:101C400090E0A8017A81801791070CF4AC01EF2D88
:101C5000F72FF40E84E6FE1639F028988093CD0114
:101C60009091F1009193F7CF4115510521F08091AA
:101C7000F200882321F089818FBFCA0104C08BE65E
:101C80008093E800F8CF0F900F90DF91CF911F91D4
:101C90000F91FF900895CF93DF931F92CDB7DEB7DA
:101CA00041E050E0BE016F5F7F4F0E94050E01973B
:101CB00019F4898190E002C08FEF9FEF0F90DF91C0
:101CC000CF910895CF93DF931F92CDB7DEB7682FE2
:101CD000CE0101960E94EB0D9091E800892F807251
:101CE00095FF04C09091F20080E4891B99819FBF09
:101CF0000F90DF91CF9108954F925F926F927F92F4
:101D00008F929F92AF92BF92CF92DF92EF92FF920B
:101D10000F931F93CF93DF931F92CDB7DEB7582E4B
:101D20007B01A42E952E8091CC01882369F0042F8D
:101D3000152F8AEFB82E852D8072782E9AE3892E82
:101D4000852D8074682E11C08FEF9FEF53C0852DB5
:101D50000E94620E482E81110CC0BA94A9F361E072
:101D600070E080E090E00E94F80C0115110579F711
:101D700037C0282F30E0021713070CF4402EC42C74
:101D8000D12C0C191D09652DCE0101960E94EB0D79
:101D9000772039F04A948FEF4816B1F01092F10095
:101DA000F9CFF701842D57FE07C0815058F0949168
:101DB0009093F1003196F9CF815020F0919190935A
:101DC000F100FACFEC0CFD1C8091E80085FF0FC0FC
:101DD0000115110511F461100AC089818FBFC5CFAB
:101DE0005D9884E68093CE018A2D992D03C0809260
:101DF000E800F3CF0F90DF91CF911F910F91FF90EB
:101E0000EF90DF90CF90BF90AF909F908F907F909A
:101E10006F905F904F9008951092E9001092CB015F
:101E20001092CA019093C9018093C8010895CF937D
:101E3000DF93FB0120E030E0DEEF24173507A1F14E
:101E400087FF02C0C49101C0C081A091CA01B091B6
:101E5000CB016091C8017091C901A617B707B4F40E
:101E60009091E8009570E1F39091E80092FD1EC01A
:101E7000C093F1006091CA017091CB016F5F7F4FF9
:101E80006F737727672B11F4D093E8006091CA0134
:101E90007091CB016F5F7F4F7093CB016093CA014C
:101EA0002F5F3F4F3196C9CFC90102C08FEF9FEF1F
:101EB000DF91CF9108951F93CF93DF931F92CDB7FA
:101EC000DEB7162F2091E80022FFFCCF612F798327
:101ED0000E94DE0D8BEF8093E800812F7981972F90
:101EE0000F90DF91CF911F910895CF93DF931F92B1
:101EF000CDB7DEB71982CE0101960E940E13CE0136
:101F000001960E945411898190E00F90DF91CF914A
:101F100008951F920F920FB60F921124EF92FF9225
:101F20000F931F932F933F934F935F936F937F93E1
:101F30008F939F93AF93BF93EF93FF93CF93DF93D1
:101F4000CDB7DEB76297DEBFCDBF1092E9008091BA
:101F5000E80083FFE7C068E0CE010A960E94DE0D2C
:101F600082EF8093E8009A8597FF05C08091E80092
:101F700080FFFCCF03C08EEF8093E800892F80762E
:101F800009F0B5C08B85811105C01092F100109247
:101F9000F100C1C0282F2D7F213009F4BCC085304D
:101FA00049F48091E80080FFFCCF8C8580688093A5
:101FB000E300B1C0863009F072C02D85E888F98849
:101FC000223071F580E090E02A8B0E940C0F0E9475
:101FD000750F99E08E010F5F1F4FF801392F119295
:101FE0003A95E9F799832A892A8391E09E8390E8BC
:101FF00098879AEF99872091CA013091CB01275F8A
:102000003F4F3C832B838D83C7010E940C0F49E017
:1020100050E0B80180E00E94170F0E94750F7BC04E
:10202000C7012A8B0E940C0F2A89223241F482E2D6
:1020300090E00E945F11892B09F06DC070C02130C3
:1020400069F488899989089711F42093C7018091D0
:10205000C701882389F069E571E016C0233009F0D3
:102060005EC08C85882359F0823061F0813009F0A0
:1020700056C06DE771E008C06BE671E005C067EB24
:1020800071E002C065E971E06115710509F447C0AE
:10209000FB01449150E080E80E94170F3CC087305C
:1020A00009F43DC0883021F481E08093F10033C011
:1020B000893089F5937099F5E5E5F1E081E021E05B
:1020C00096E38093E9002093EB0034913093EC0089
:1020D0009093ED008F5F3196853099F78EE780936E
:1020E000EA001092EA008C858093CC0114C08889A4
:1020F00099890E940C0F8E85811105C0CE010A9628
:102100000E94191306C0823051F4CE010A960E9433
:102110008711882321F08EEF8093E80003C081E2CD
:102120008093EB0062960FB6F894DEBF0FBECDBF72
:10213000DF91CF91FF91EF91BF91AF919F918F91DF
:102140007F916F915F914F913F912F911F910F91CF
:10215000FF90EF900F900FBE0F901F9018958093F7
:10216000E9008091F200882319F08AE38093E80067
:1021700008951092CC0181E08093D70080EA80938B
:10218000D80082E189BD09B400FEFDCF61E070E0B6
:1021900080E090E00E94F80C80E98093D8008CE009
:1021A0008093E2001092E000559A209A08951F92C1
:1021B0000F920FB60F9211242F933F934F935F937B
:1021C0006F937F938F939F93AF93BF93EF93FF93FF
:1021D0008091E1001092E10083FF0FC01092E900AE
:1021E00091E09093EB001092EC0092E39093ED005D
:1021F0001092CC0198E09093F00082FF26C083E01B
:102200000E94AF1082E00E94F30D882321F08CED34
:1022100091E00E94C0128091CE01882339F0809114
:10222000CE0181508093CE01882369F08091CD0149
:10223000882359F08091CD0181508093CD01811187
:1022400004C0289A02C05D9AF1CFFF91EF91BF912F
:10225000AF919F918F917F916F915F914F913F913E
:102260002F910F900FBE0F901F901895FF920F9314
:102270001F93CF93DF93EC01F62EE881F981048060
:10228000F581E02D09958C01E881F9810680F781BF
:10229000E02D6F2DCE010995C8019927DF91CF91CF
:1022A0001F910F91FF900895FC0120812F5F2083E3
:1022B00049E150E06BE372E080E80C94170F45E6CB
:1022C00050E064E572E080E80C94170FEF92FF9203
:1022D0000F931F93CF93DF931F92CDB7DEB7898300
:1022E0008B017A0141E050E0BE016F5F7F4F84E0D7
:1022F0000E947C0EA701B80184E40E947C0E0F901E
:10230000DF91CF911F910F91FF90EF900895FC0105
:1023100091818081813A31F481E0913091F0933064
:1023200089F411C0813271F49B3021F48281809351
:10233000110105C09A3031F482818093100181E04F
:102340000895089580E0089548E050E082E00C94FC
:102350006611CF93DF93DC01683818F0E8E7E60FE9
:1023600025C0E62FF0E067FF11C0E058F10981E0D9
:1023700090E001C0880FEA95EAF714969C911497B3
:10238000982B14969C931497E0E010C0E554FE4FF0
:10239000E491EE2309F440C0E7FF08C014968C9145
:1023A0001497826014968C931497EF7716968C91FD
:1023B00016978E1741F117968C9117978E1719F172
:1023C00018968C9118978E17F1F019968C91199791
:1023D0008E17C9F01A968C911A978E17A1F01B963A
:1023E0008C911B978E1779F080E090E0ED01C80F7B
:1023F000D91F2E81211102C0EE8305C001968630BF
:102400009105A1F709C0BD016C5F7F4FCD010E940E
:10241000A41181E090E008C081E090E013969C93C5
:102420008E93129780E090E0DF91CF910895683805
:1024300018F0E8E7E60F25C0E62FF0E067FF12C0CE
:10244000E058F10921E030E001C0220FEA95EAF7F7
:102450002095DC0114963C911497322314963C93FA
:10246000E0E00FC0E554FE4FE491EE2329F1E7FFD1
:1024700008C0DC0114962C9114972D7F14962C9390
:10248000EF7720E030E0EE2351F0DC01A20FB31F24
:1024900016964C9116974E1302C016961C922F5FFB
:1024A0003F4F2630310579F7BC016C5F7F4F0E94AA
:1024B000A41181E090E0089580E090E00895FC018F
:1024C0001682178210861186128613861482BC012A
:1024D0006C5F7F4F0C94A4111092DB011092D2011B
:1024E0001092D1018CE691E09093D0018093CF01BE
:1024F000089580912A0290912B0220912C02309114
:102500002D02821B930B8F739927089520912A0225
:1025100030912B0280912C0290912D0228173907BF
:1025200049F0E0912C02F0912D02E651FE4F80819E
:1025300090E008958FEF9FEF089520912A02309147
:102540002B0280912C0290912D0228173907A9F0B7
:10255000E0912C02F0912D02E651FE4F80812091F6
:102560002C0230912D022F5F3F4F2F733327309372
:102570002D0220932C0290E008958FEF9FEF089595
:10258000CF93DF93C0912A02D0912B022196CF7373
:10259000DD2780912C0290912D02C817D90799F060
:1025A00082E00E944B0E8F3F2FEF920761F0E09187
:1025B0002A02F0912B02E651FE4F8083D0932B022A
:1025C000C0932A02DFCFDF91CF91089583E00C946E
:1025D000AF100F931F93CF93DF931F92CDB7DEB74A
:1025E0008C01698380911901882359F041E050E002
:1025F000BE016F5F7F4F83E00E947C0E18161906A4
:102600003CF081E090E0F8019383828380E090E0E9
:102610000F90DF91CF911F910F910895FC012081C0
:102620002E5F208342E450E069EB72E080E80C9476
:10263000170FFC0181819081913A59F4813209F0A0
:102640004BC047E050E062E171E080E00E94170F6C
:1026500045C0913209F040C0803239F467E070E043
:1026600082E191E00E945B0F39C0823209F034C0F0
:102670008281809319018091120190911301A091A0
:102680001401B0911501803B9440A105B10531F5CD
:102690008091190180FD12C087E797E790930108A8
:1026A000809300082BE088E190E00FB6F894A8959D
:1026B000809360000FBE2093600010C088E10FB6C9
:1026C000F89480936000109260000FBEA89510925D
:1026D00001081092000802C080E0089581E008958A
:1026E0001092DF011092DE0188EE93E0A0E0B0E0EE
:1026F0008093E0019093E101A093E201B093E301A4
:102700008AE791E09093DD018093DC010895A29F18
:10271000B001B39FC001A39F700D811D1124911DB5
:10272000B29F700D811D1124911D08950E94871381
:10273000A59F900DB49F900DA49F800D911D112415
:102740000895DB018F939F930E949613BF91AF91E1
:10275000A29F800D911DA39F900DB29F900D1124FB
:102760000895991B79E004C0991F961708F0961BED
:10277000881F7A95C9F780950895AA1BBB1B51E164
:1027800007C0AA1FBB1FA617B70710F0A61BB70BE1
:10279000881F991F5A95A9F780959095BC01CD0186
:1027A0000895A1E21A2EAA1BBB1BFD010DC0AA1F92
:1027B000BB1FEE1FFF1FA217B307E407F50720F0AA
:1027C000A21BB30BE40BF50B661F771F881F991F25
:1027D0001A9469F760957095809590959B01AC016E
:1027E000BD01CF010895052E97FB1EF400940E94B1
:1027F0000A1457FD07D00E94D11307FC03D04EF4F2
:102800000C940A1450954095309521953F4F4F4FA9
:102810005F4F089590958095709561957F4F8F4F8C
:102820009F4F0895EE0FFF1F0590F491E02D09943E
:1028300013E0C2E0D3E004C0FE010E94141422960B
:0A284000C430D107C9F7F894FFCFA8
:10284A000F00F4010400D0070401000032028000E6
:10285A00010100E100000000000000000000E107A3
:10286A00000000006E0A730AAC01D80200000000E2
:10287A00FA079C01B501CF01EA01070226024702C5
:10288A0069028E02B502DE020A0300000000E107B7
:10289A00000000007F0D00000000FA0700000000A1
:1028AA006E0A730A7F0D7F0D000000003611910D2C
:1028BA00A91117125F1200000000E912910D791296
:0828CA009D128612E612C012F5
:00000001FF
